:0400000066EF00F0B7
:0E0008005982FACF47F0FBCF48F0C2ED0CF062
:100018005980D8CF80F0E8CF81F0E0CF82F0FACFD6
:1000280083F0FBCF84F0E9CF85F0EACF86F0E1CF0B
:1000380087F0E2CF88F0D9CF89F0DACF8AF0F3CF12
:100048008BF0F4CF8CF0F6CF8DF0F7CF8EF0F8CFA1
:100058008FF0F5CF90F0F2A411D0FD0ED76E8F0E71
:10006800D66E0001E74BE82B00F0222A140E22641A
:1000780004D0000E226EE9EC1BF0F29490C0F5FF5C
:100088008FC0F8FF8EC0F7FF8DC0F6FF8CC0F4FF5D
:100098008BC0F3FF8AC0DAFF89C0D9FF88C0E2FFAE
:1000A80087C0E1FF86C0EAFF85C0E9FF84C0FBFF87
:1000B80083C0FAFF82C0E0FF81C0E8FF80C0D8FF9C
:1000C80059901000F9EF1DF0ED0E0201666F010E58
:1000D8000201676F9CEF05F0250E02017C19D8B468
:1000E80008D0E9C1D9FFEAC1DAFF7CC2DFFF99EF86
:1000F80005F0000E02016F6F000E6E6F000E020118
:100108006D6F000E6C6FEBC1F6FFECC1F7FF0800D6
:10011800F550F0EC1FF0D8A040D0000E02016F6F30
:10012800000E6E6F6EC291F06FC292F0000E000169
:10013800946F0A0E936F13EC1FF091C06EF292C089
:100148006FF2D00E0101F16FFF0E0101F26FEBC1EA
:10015800F6FFECC1F7FF0800F5500101F36FF46BEF
:100168000101F1510101F3270101F2510101F423C9
:100178000101F35102016E270101F45102016F23BD
:100188000101EB4BEC2BEBC1F6FFECC1F7FF0800CC
:10019800F550F0EC1FF0D8B0C5D7EBC1F6FFECC1B5
:1001A800F7FF0800F5502E0AD8A439D002016D8D4A
:1001B8000101EB4BEC2B000E02017B6F000E7A6FF6
:1001C80023D07AC291F07BC292F0000E0001946FA6
:1001D8000A0E936F13EC1FF0EBC1F6FFECC1F7FFAB
:1001E8000800F55000019127000E00019223D00E5F
:1001F8000001912502017A6FFF0E00019221020190
:100208007B6F0101EB4BEC2BEBC1F6FFECC1F7FF69
:100218000800F550F0EC1FF0D8A00CD0D2D7000E93
:1002280002017B6F000E7A6F02016D8903D0020113
:100238006D8515D0EBC1F6FFECC1F7FF0101EB4B63
:10024800EC2B0800F5CF7CF202017C51000AD8B4EF
:10025800ABEF05F0660AD8B4EAD79CEF05F0070EB5
:1002680002016D15D8B497D302016DA905D0000E0F
:1002780002017B6F060E7A6F66C2D9FF67C2DAFF8A
:10028800DECF76F2DECF77F2DECF78F2DECF79F20C
:10029800040E02016627000E6723020179AF15D00C
:1002A80076C291F077C292F078C293F079C294F056
:1002B800F7EC1EF091C076F292C077F293C078F214
:1002C80094C079F2030E02016C13000E0201756FDF
:1002D800000E746F02017651020177110201781144
:1002E80002017911D8B48ED0020178357935820FA0
:1002F8000201746F0201756BFF0E7523020174070A
:10030800D8A0750774C291F075C292F0000E000172
:10031800946F030E936F13EC1FF091C074F292C0A8
:1003280075F274C297F075C298F0000E00019A6FCA
:100338000A0E996F36EC19F097C074F298C075F2EE
:10034800020175AF04D002017407D8A07507020135
:1003580074510008B2EC05F0B8C070F2B9C071F27F
:10036800BAC072F2BBC073F270C29FF071C2A0F043
:1003780072C2A1F073C2A2F076C2A3F077C2A4F051
:1003880078C2A5F079C2A6F06FEC0AF09FC070F2AF
:10039800A0C071F2A1C072F2A2C073F270C291F053
:1003A80071C292F072C293F073C294F0000E000111
:1003B800956F000E966F800E976F3F0E986FF7EC53
:1003C80014F00001D8B005D002017407D8A0750751
:1003D80019D070C291F071C292F072C293F073C2D8
:1003E80094F0000E0001956F000E966F200E976F27
:1003F800410E986FF7EC14F00001D8A003D0020169
:10040800744B752B02017BBF08D002017B5123E19D
:100418000D0E02017A5DD8B01ED076C2C5F077C243
:10042800C6F078C2C7F079C2C8F002017A51F9EC77
:1004380010F0B8C0C9F0B9C0CAF0BAC0CBF0BBC0A0
:10044800CCF01BEC08F0C5C076F2C6C077F2C7C086
:1004580078F2C8C079F2020175BF08D0020175515F
:100468002EE10A0E0201745DD8B029D0020176513E
:10047800020177110201781102017911D8B46DD007
:1004880076C2C1F077C2C2F078C2C3F079C2C4F0B4
:10049800D0EC17F00001C1510001C2110001C311D5
:1004A8000001C411D8A459D0020175BF56D0020169
:1004B800755105E1020E0201745DD8A04ED070C2DC
:1004C80091F071C292F072C293F073C294F05F0E11
:1004D8000001956F700E966F890E976F400E986F9A
:1004E800F7EC14F00001D8B003D00201F70E02D0E7
:1004F8000201F80E7427FF0E752302017451B2EC45
:1005080005F0B8C070F2B9C071F2BAC072F2BBC0DF
:1005180073F276C291F077C292F078C293F079C202
:1005280094F070C295F071C296F072C297F073C2DF
:1005380098F084EC16F091C068F292C069F293C00A
:100548006AF294C06BF2000E0201766F000E776FAC
:10055800000E786F000E796F3CD076C2C1F077C27A
:10056800C2F078C2C3F079C2C4F0D0EC17F0C1C0B1
:1005780068F2C2C069F2C3C06AF2C4C06BF276C244
:10058800D9F077C2DAF078C2DBF079C2DCF068C261
:1005980091F069C292F06AC293F06BC294F0000EB7
:1005A80062EC12F091C0DDF092C0DEF093C0DFF093
:1005B80094C0E0F076EC1EF0D9C076F2DAC077F29B
:1005C800DBC078F2DCC079F2000E0201756F000E14
:1005D800746F010E02017C6F0A0E02017C19D8B4F7
:1005E8001ED002017C51040D620EF324F66E7F0EBC
:1005F800F420F76E0900F5500201685D0900F55016
:10060800020169590900F55002016A590900F550BB
:1006180002016B59D8A003D002017C2BDDD77CC224
:10062800F1F10101F26BF1BFF20702017A51010108
:10063800F12702017B510101F223020174510101EA
:10064800F127020175510101F2230101F151020163
:100658006E5F0101F25102016F5B02017A510201E2
:100668007B11D8B404D002016E07D8A06F07030E1F
:1006780002016C150101F16F000E02016D150101F7
:10068800F26F0101F1510101F211D8B40ED009D075
:10069800E9C1D9FFEAC1DAFF200EDF6E0101E94B9B
:1006A800EA2B02016E07D8A06F0702016FBF07D0BF
:1006B80002016F51EDE102016E05D8B0E9D7030ED2
:1006C80002016C150101F16F000E02016D150101A7
:1006D800F26F0101F1510101F211D8B455D0E9C10D
:1006E800D9FFEAC1DAFF2D0E4DD00101E94BEA2B03
:1006F8004BD068C291F069C292F06AC293F06BC2A3
:1007080094F002017C51040D620EF324F66E7F0E04
:10071800F420F76E0900F5CF95F00900F5CF96F0B3
:100728000900F5CF97F00A00F5CF98F095EC19F08D
:1007380091C070F292C071F293C072F294C073F2D9
:1007480070C291F071C292F072C293F073C294F0C9
:100758000A0E0001956F000E966F000E976F000E3F
:10076800986F9CEC1BF091C070F292C071F293C02C
:1007780072F294C073F202017051300FE9C1D9FFCF
:10078800EAC1DAFFDF6EB1D702017C0702017C29DA
:10079800D8B40ED0AED7E9C1D9FFEAC1DAFF300E1E
:1007A800DF6E0101E94BEA2B02017407D8A0750737
:1007B800020175BF07D002017551EDE10201740510
:1007C800D8B0E9D702017BBF0CD002017B5105E10B
:1007D800090E02017A5DD8A004D0080E02017C6FD0
:1007E80002D07AC27CF202017C5102017A5F000ECB
:1007F80002017CBFFF0E02017B5B02017C510201FA
:10080800D8B409D0E9C1D9FFEAC1DAFF2E0EDF6EEC
:100818000101E94BEA2B02017C51B2EC05F0B8C0AA
:1008280062F2B9C063F2BAC064F2BBC065F276C2C4
:10083800A3F077C2A4F078C2A5F079C2A6F062C28C
:100848009FF063C2A0F064C2A1F065C2A2F06FEC91
:100858000AF09FC0C1F0A0C0C2F0A1C0C3F0A2C0FE
:10086800C4F0D0EC17F0C1C068F2C2C069F2C3C0CE
:100878006AF2C4C06BF274D068C291F069C292F097
:100888006AC293F06BC294F002017C51040D620EAF
:10089800F324F66E7F0EF420F76E0900F5CF95F07D
:1008A8000900F5CF96F00900F5CF97F00A00F5CFCB
:1008B80098F095EC19F091C070F292C071F293C063
:1008C80072F294C073F270C291F071C292F072C267
:1008D80093F073C294F00A0E0001956F000E966FA4
:1008E800000E976F000E986F9CEC1BF091C070F291
:1008F80092C071F293C072F294C073F20201705107
:10090800300FE9C1D9FFEAC1DAFFDF6E0101E94B17
:10091800EA2B68C291F069C292F06AC293F06BC286
:1009280094F002017C51040D620EF324F66E7F0EE2
:10093800F420F76E0900F5CF95F00900F5CF96F091
:100948000900F5CF97F00A00F5CF98F09CEC1BF062
:1009580091C068F292C069F293C06AF294C06BF2D7
:1009680002017C0702017C29D8B40ED085D7E9C1E1
:10097800D9FFEAC1DAFF300EDF6E0101E94BEA2B3D
:1009880002017A07D8A07B0702017A5102017B1184
:10099800D8B4CED0ECD702017A5102017B11D8A489
:1009A8000DD0020168510201691102016A110201A8
:1009B8006B11D8A403D002017A4B7B2B800E020165
:1009C8007CBF7F0E0101F16F02017A5102017C5D4B
:1009D80002017B51800A0101F159D8B003D07AC2D3
:1009E8007CF218D002017B51800A0101F16F0201EB
:1009F8007C5102017A5D800E02017CBF7F0E0101ED
:100A0800F159D8B007D002017C5102017A6F7B6B93
:100A18007ABF7B0702016E5102016F11D8B414D05E
:100A2800030E02016C150101F16F000E02016D1534
:100A38000101F26F0101F1510101F211D8B404D0A2
:100A480002016E07D8A06F0702016DAD1ED002012A
:100A58006E5102017A5D02017B51800A0101F16F3A
:100A680002016F51800A0101F159D8B009D0020181
:100A78007A5102016E5F02017B5102016F5B05D062
:100A8800000E02016F6F000E6E6F800E02017CBFB8
:100A98007F0E0101F16F02016E5102017C5D0201BE
:100AA8006F51800A0101F159D8B00BD002017C5175
:100AB80002016E5F000E02017CBFFF0E02016F5B38
:100AC80005D0000E02016F6F000E6E6F02016E51AD
:100AD80002016F11D8B413D0E9C1D9FFEAC1DAFF16
:100AE800200EDF6E0101E94BEA2B02016E07D8A048
:100AF8006F0702016E5102016F11D8A4EDD7030EE2
:100B080002016C150101F16F000E02016D15010162
:100B1800F26F0101F1510101F211D8B409D0E9C114
:100B2800D9FFEAC1DAFF2D0EDF6E0101E94BEA2B8E
:100B3800EBC1F6FFECC1F7FF0101EB4BEC2B080012
:100B4800F5CF7CF202017C51D8A470EF00F0E9C126
:100B5800D9FFEAC1DAFF000EDF6E12000001C06F94
:100B68000001C0AF33D10001C06D0001C051800A3F
:100B7800120FD8A0B2D0000E00019A6F0A0E996F1A
:100B8800000E0001946F640E936F0001C0510001C4
:100B9800916F926B91BF9207ABEC1AF091C097F0EE
:100BA80092C098F036EC19F00001D8909737983732
:100BB8000001D89097379837240E00019727000E28
:100BC80000019823C90E00019725F66E7E0E0001DC
:100BD8009821F76E0900F5CFA3F00900F5CFA4F02E
:100BE8000900F5CFA5F00A00F5CFA6F0000E000128
:100BF8009A6F640E996F0001C0510001976F986B4E
:100C080097BF980736EC19F00001D89097379837B6
:100C18000001D89097379837480E00019727000EA3
:100C280000019823C90E00019725F66E7E0E00017B
:100C38009821F76E0900F5CF9FF00900F5CFA0F0D5
:100C48000900F5CFA1F00A00F5CFA2F06FEC0AF089
:100C58009FC0BCF0A0C0BDF0A1C0BEF0A2C0BFF054
:100C6800BCC09FF0BDC0A0F0BEC0A1F0BFC0A2F044
:100C7800000E0001946F0A0E936F0001C05100012D
:100C8800916F926B91BF9207ABEC1AF00001D8906C
:100C9800913792370001D89091379237C90E0001E9
:100CA8009125F66E7E0E00019221F76E0900F5CFB0
:100CB800A3F00900F5CFA4F00900F5CFA5F00A00CC
:100CC800F5CFA6F06FEC0AF09FC0B8F0A0C0B9F05D
:100CD800A1C0BAF0A2C0BBF012000001C051800A46
:100CE800750FD8A05DD0000E00019A6F0A0E996F9B
:100CF8000001C0510001976F986B97BF980736ECB9
:100D080019F00001D890973798370001D890973795
:100D18009837240E00019727000E00019823C90E6A
:100D280000019725F66E7E0E00019821F76E0900E6
:100D3800F5CF9FF00900F5CFA0F00900F5CFA1F09D
:100D48000A00F5CFA2F0000E0001946F0A0E936F0F
:100D58000001C0510001916F926B91BF9207ABECFB
:100D68001AF00001D890913792370001D890913746
:100D78009237C90E00019125F66E7E0E0001922170
:100D8800F76E0900F5CFA3F00900F5CFA4F009002C
:100D9800F5CFA5F00A00F5CFA6F06FEC0AF094D7CE
:100DA8000001C051040DC90EF324F66E7E0EF42026
:100DB800F76E0900F5CFB8F00900F5CFB9F00900D2
:100DC800F5CFBAF00A00F5CFBBF012000001C05110
:100DD800800A120FD8A0B2D0000E00019A6F0A0E36
:100DE800996F000E0001946F640E936F0001C0515B
:100DF8000001916F926B91BF9207ABEC1AF091C012
:100E080097F092C098F036EC19F00001D890973717
:100E180098370001D89097379837240E0001972704
:100E2800000E00019823FD0E00019725F66E7E0E38
:100E380000019821F76E0900F5CFA3F00900F5CF5E
:100E4800A4F00900F5CFA5F00A00F5CFA6F0000E32
:100E580000019A6F640E996F0001C0510001976FED
:100E6800986B97BF980736EC19F00001D890973720
:100E780098370001D89097379837480E0001972780
:100E8800000E00019823FD0E00019725F66E7E0ED8
:100E980000019821F76E0900F5CF9FF00900F5CF02
:100EA800A0F00900F5CFA1F00A00F5CFA2F06FEC91
:100EB8000AF09FC0BCF0A0C0BDF0A1C0BEF0A2C0A7
:100EC800BFF0BCC09FF0BDC0A0F0BEC0A1F0BFC0C5
:100ED800A2F0000E0001946F0A0E936F0001C0513A
:100EE8000001916F926B91BF9207ABEC1AF0000171
:100EF800D890913792370001D89091379237FD0EEC
:100F080000019125F66E7E0E00019221F76E090010
:100F1800F5CFA3F00900F5CFA4F00900F5CFA5F0AF
:100F28000A00F5CFA6F06FEC0AF09FC0B8F0A0C099
:100F3800B9F0A1C0BAF0A2C0BBF012000001C051C4
:100F4800800A750FD8A05DD0000E00019A6F0A0EB6
:100F5800996F0001C0510001976F986B97BF980770
:100F680036EC19F00001D890973798370001D890DF
:100F780097379837240E00019727000E0001982311
:100F8800FD0E00019725F66E7E0E00019821F76E82
:100F98000900F5CF9FF00900F5CFA0F00900F5CFC3
:100FA800A1F00A00F5CFA2F0000E0001946F0A0E1E
:100FB800936F0001C0510001916F926B91BF92072E
:100FC800ABEC1AF00001D890913792370001D89015
:100FD80091379237FD0E00019125F66E7E0E0001C5
:100FE8009221F76E0900F5CFA3F00900F5CFA4F020
:100FF8000900F5CFA5F00A00F5CFA6F06FEC0AF0CE
:1010080094D70001C051040DFD0EF324F66E7E0E38
:10101800F420F76E0900F5CFB8F00900F5CFB9F064
:101028000900F5CFBAF00A00F5CFBBF012000001B5
:10103800C851800B0001D56F0001C851C8250001B7
:10104800D76F0001C7AF02D00001D7810001D75187
:101058000001D8B412D00001D729D8A409D0000EB5
:101068000001C56F000EC66F000EC76F000EC86F77
:101078000001C78F000E000108D0000E0001C56FE7
:10108800000EC66F000EC76F000EC86F0001CC516E
:10109800800B0001D66F0001D5510001D619D8B4D4
:1010A80002D00001D58D0001CC51CC250001D66FAE
:1010B8000001CBAF02D00001D6810001D65100015A
:1010C800D8B412D00001D629D8A409D0000E000146
:1010D800C96F000ECA6F000ECB6F000ECC6F0001F7
:1010E800CB8F000E000108D0000E0001C96F000E62
:1010F800CA6F000ECB6F000ECC6F0001D7510001F4
:10110800D65DD8B024D00001D5AD03D0800E000143
:10111800D51BD7C0D8F0D6C0D7F0D8C0D6F0C5C038
:10112800D8F0C9C0C5F0D8C0C9F0C6C0D8F0CAC088
:10113800C6F0D8C0CAF0C7C0D8F0CBC0C7F0D8C076
:10114800CBF0C8C0D8F0CCC0C8F0D8C0CCF0000EE6
:101158000001D86F0001D7510001CD6FCE6B00019F
:10116800CD1FCE1FCD4BCE2B0001D6510001CF6F26
:10117800D06B0001CD510001CF270001CE510001F5
:10118800D0230001D0BF3DD00001D05105E11A0E97
:101198000001CF5DD8A035D00001C5510001C611AE
:1011A8000001C7110001C811D8B402D0010E01D046
:1011B800000E0001D86F000E0001C56F000EC66F4B
:1011C800000EC76F000EC86FD6C0D7F020D0000140
:1011D800D8A107D00001D890D83101090001D86FF3
:1011E80003D00001D890D8330001C5A102D0000176
:1011F800D88F0001C835C833C733C633C53300019B
:10120800D72B0001D6510001D75DD8A0E0D7000147
:10121800D5BD3FD00001D7510001D8A40AD0000E97
:101228000001C56F000EC66F000EC76F000EC86FB5
:1012380012000001C9510001C5270001CA5100016F
:10124800C6230001CB510001C7230001CC51000186
:10125800C8230001C8A1CCD00001D8A109D0000141
:10126800D890D8330001D85101090001D86F03D0B4
:101278000001D890D8330001C5A102D00001D88F51
:101288000001C835C833C733C633C5330001D72B6F
:10129800AFD00001C9510001C55D0001CA5100016C
:1012A800C6590001CB510001C7590001C851800A35
:1012B8000001CD6F0001CC51800A0001CD59D8B092
:1012C80050D0C5C0CDF0C6C0CEF0C7C0CFF0C8C0A2
:1012D800D0F00001CD1FCE1FCF1FD01FCD2B000E89
:1012E800CE23CF23D0230001C9510001CD25000111
:1012F800D16F0001CA510001CE210001D26F000157
:10130800CB510001CF210001D36F0001CC51000166
:10131800D0210001D46FFF0E0001D1250001C56F57
:10132800FF0E0001D2210001C66FFF0E0001D3217C
:101338000001C76FFF0E0001D4210001C86F800EA5
:101348000001D51B0001D86D0001D8510001D8A4B7
:1013580018D0010E0001C527000EC623C723C823D5
:1013680010D00001C9510001C55F0001CA51000138
:10137800C65B0001CB510001C75B0001CC510001E5
:10138800C85B0001C5510001C6110001C711000169
:10139800C811D8A42AD00001D8510001D8A425D05A
:1013A800000E0001C56F000EC66F000EC76F000E5D
:1013B800C86F12000001D890C537C637C737C8377D
:1013C8000001D8AF02D00001C5810001D8A103D027
:1013D800D880000102D00001D890D8370001D75139
:1013E8000001D8B402D00001D7070001C7AFE2D787
:1013F800000E0001D66F0001D8AF0DD0D8C0CDF0D7
:101408007F0E0001CD17D8A403D00001C5A103D0D9
:10141800010E0001D66F0001D6510001D8B426D0C4
:10142800010E0001C527000EC623C723C8230001EB
:10143800C8A11CD0C5C0CDF0C6C0CEF0C7C0CFF083
:10144800C8C0D0F00001D035D033CF33CE33CD3340
:10145800CDC0C5F0CEC0C6F0CFC0C7F0D0C0C8F070
:101468000001D729D8B402D00001D72B0001D72911
:10147800D8B405D00001D7510001D8A411D0000E6E
:101488000001C56F000EC66F000EC76F000EC86F53
:101498000001D7510001D8A403D0000E0001D56F78
:1014A8000001D7A103D00001C78F02D00001C79F58
:1014B8000001D890D7310001C86F0001D5AF02D024
:1014C8000001C88FC5C0C5F0C6C0C6F0C7C0C7F008
:1014D800C8C0C8F012000001A251800B0001AB6F18
:1014E8000001A251A2250001B16F0001A1AF02D0F5
:1014F8000001B1810001B1510001D8B410D0000140
:10150800B129D8A409D0000E00019F6F000EA06F6A
:10151800000EA16F000EA26F0001A18F09D0000E6E
:1015280000019F6F000EA06F000EA16F000EA26F4A
:101538000001A651800B0001AB1B0001A651A62596
:101548000001AC6F0001A5AF02D00001AC81000121
:10155800AC510001D8B410D00001AC29D8A409D0EE
:10156800000E0001A36F000EA46F000EA56F000E01
:10157800A66F0001A58F09D0000E0001A36F000E11
:10158800A46F000EA56F000EA66F0001AC510001FC
:10159800D8B405D00001B1510001D8A40AD0000E7A
:1015A80000019F6F000EA06F000EA16F000EA26FCA
:1015B80012000001A55100019F03F3CFB6F0F4CF4C
:1015C800B7F00001B6510001AD6FAE6BAF6BB06BF9
:1015D8000001B7510001B26FB36BB46BB56B00017A
:1015E800A4510001A003F3CFB6F0F4CFB7F0000187
:1015F800B6510001AD27000EAE23AF23B023000182
:10160800B7510001B227000EB323B423B52300015C
:10161800A3510001A103F3CFB6F0F4CFB7F0000156
:10162800B6510001AD27000EAE23AF23B023000151
:10163800B7510001B227000EB323B423B523AFC0BE
:10164800B0F0AEC0AFF0ADC0AEF00001AD6B0001C0
:10165800A3510001A003F3CFB6F0F4CFB7F0000117
:10166800B6510001AD270001B7510001AE23000EAD
:101678000001AF23000E0001B0230001A4510001B6
:101688009F03F3CFB6F0F4CFB7F00001B6510001D5
:10169800AD270001B7510001AE23000E0001AF23B2
:1016A800000E0001B023AFC0B0F0AEC0AFF0ADC0C7
:1016B800AEF00001AD6B0001A35100019F03F3CF11
:1016C800B6F0F4CFB7F00001B6510001AD27000124
:1016D800B7510001AE23000E0001AF23000E000138
:1016E800B0230001A5510001A003F3CFB6F0F4CF59
:1016F800B7F00001B6510001B2270001B75100014F
:10170800B323000E0001B423000E0001B52300012D
:10171800A4510001A103F3CFB6F0F4CFB7F0000154
:10172800B6510001B2270001B7510001B323000EE2
:101738000001B423000E0001B5230001A5510001EA
:10174800A103F3CFB6F0F4CFB7F00001B651000112
:10175800A76F0001B7510001A86F0001A96B000134
:10176800AA6BA9C0AAF0A8C0A9F0A7C0A8F0000158
:10177800A76B0001A7510001B2270001A851000181
:10178800B3230001A9510001B4230001AA510001AB
:10179800B523ADC0A7F0AEC0A8F0AFC0A9F0B0C0E7
:1017A800AAF0190E06D00001D890AA33A933A8339D
:1017B800A733E82EF8D70001A7510001B22700018E
:1017C800A8510001B3230001A9510001B42300016D
:1017D800AA510001B523AFC0B0F0AEC0AFF0ADC0A4
:1017E800AEF00001AD6B0001AC51B1C0A7F0000133
:1017F800A86B0001A727000EA823820E0001A725C9
:101808000001B66FFF0E0001A8210001B76F15D0C7
:101818000001D890B237B337B437B5370001B0AF4D
:1018280002D00001B2810001D890AD37AE37AF3792
:10183800B0370001B607D8A0B7070001B4AFE8D7A2
:10184800000E0001AC6F0001B0AF24D0FF0E000104
:10185800AD150001A76FFF0E0001AE150001A86FBE
:10186800FF0E0001AF150001A96F7F0E0001B01532
:101878000001AA6F0001A7510001A8110001A911D8
:101888000001AA11D8A403D00001B2A103D0010E0F
:101898000001AC6F0001AC510001D8B423D0010E97
:1018A8000001B227000EB323B423B5230001B5A16C
:1018B80019D0B2C0A7F0B3C0A8F0B4C0A9F0B5C0A1
:1018C800AAF00001AA35AA33A933A833A733A7C0C1
:1018D800B2F0A8C0B3F0A9C0B4F0AAC0B5F0000136
:1018E800B64BB72B0001B7BF10D00001B75104E1C8
:1018F8000001B629D8A009D0000E0001B26F000E71
:10190800B36F800EB46F7F0E2BD00001B7BF07D026
:101918000001B75111E10001B605D8B00DD0000E95
:101928000001B26F000EB36F000EB46F000EB56FFA
:10193800000E0001AB6F15D0B6C0B1F0FF0E00016C
:10194800B217FF0EB3177F0EB417000EB5170001BC
:10195800B1A102D00001B48F0001D890B1310001CB
:10196800B56F0001AB510001B513B2C09FF0B3C011
:10197800A0F0B4C0A1F0B5C0A2F012000600E9CFF3
:1019880049F0EACF4AF0E1CF4BF0E2CF4CF0D9CFA3
:101998004DF0DACF4EF0F3CF4FF0F4CF50F0F6CF52
:1019A80051F0F7CF52F0F8CF53F0F5CF54F09EAA8C
:1019B800F5D100F049EC1FF00101A06FEA0E01011A
:1019C800A019D8B4FF00550E0101A019D8A4E2D17E
:1019D800ABA4ABB2DFD12950D8A4DCD149EC1FF0BD
:1019E8000101A16FABA4ABB2D5D12950D8A4D2D1F3
:1019F800BDD1020E236E060E236401D014D02350ED
:101A0800010DA00EF324D96E010EF420DA6E49EC14
:101A18001FF0DF6EABA4ABB2BDD12950D8A4BAD1A8
:101A280000F0232AE8D7070E236E13D02350010DA8
:101A3800A00EF324D96E010EF420DA6E49EC1FF0E3
:101A4800DF6EABA4ABB2A6D12950D8A4A3D100F0C5
:101A5800232A0101A651426E436A090E4226000E4E
:101A680043222350446E456A4250445C4550800AE4
:101A7800466E4350800A4658D8A0D8D7A00E396E73
:101A8800010E3A6E0101A651070F3B6EEDEC1CF0FA
:101A98000009D8B47FD1070E246EA3C123F003D068
:101AA80000F0242A232A0101A351A6C142F0436A67
:101AB8004226000E43222350446E456A4250445C3D
:101AC8004550800A466E4350800A4658D8A0E8D749
:101AD8002E0E306E000E316E74EC20F0000E236E68
:101AE800050E236401D015D02E0E306E000E316E17
:101AF8002350010DA00EF324D96E010EF420DA6EE6
:101B0800DF50326E26EC1DF09FEC20F000F0232A07
:101B1800E7D72EC031F02FC032F092EC20F03AD146
:101B2800020E236E070E236401D014D02350010D3A
:101B3800A00EF324D96E010EF420DA6E49EC1FF0E2
:101B4800DF6EABA4ABB226D12950D8A423D100F0C4
:101B5800232AE8D700F0A00E396E010E3A6E060E61
:101B68003B6EEDEC1CF00009D8B449D02E0E306E57
:101B7800000E316E74EC20F02E0E306E000E316EB9
:101B8800550E326E26EC1DF09FEC20F02E0E306EB6
:101B9800000E316E410E326E26EC1DF09FEC20F0E7
:101BA8000101A351A2C142F0436A42C043F0426A14
:101BB80042101C6E43501D6E0101A551A4C142F094
:101BC800436A42C043F0426A42101E6E43501F6E81
:101BD8002E0E306E000E316E24C032F026EC1DF051
:101BE8009FEC20F01C2803E11D28D8B408D01C4A1B
:101BF8001D2A1C501E5C1D501F58D8B0E9D72EC096
:101C080031F02FC032F092EC20F0C4D0020E236ED7
:101C1800070E236401D014D02350010DA00EF32425
:101C2800D96E010EF420DA6E49EC1FF0DF6EABA41A
:101C3800ABB2B0D02950D8A4ADD000F0232AE8D751
:101C480000F0A00E396E010E3A6E060E3B6EEDECFA
:101C58001CF00009D8B44ED02E0E306E000E316E36
:101C680074EC20F02E0E306E000E316E550E326E72
:101C780026EC1DF09FEC20F02E0E306E000E316E1B
:101C8800030E326E26EC1DF09FEC20F0020E0101CF
:101C9800A503F350A56F2E0E306E000E316EA5C150
:101CA80032F026EC1DF09FEC20F0A3C123F00DD0FC
:101CB800000E246E2E0E306E000E316E24C032F0EF
:101CC80026EC1DF09FEC20F0232A0101A351A5C1A9
:101CD80042F0436A4226000E43222350446E456A6E
:101CE8004250445C4550800A466E4350800A46582C
:101CF800D8A0DED72EC031F02FC032F092EC20F001
:101D080049D02E0E306E000E316E74EC20F02E0E7F
:101D1800306E000E316E550E326E26EC1DF09FECC3
:101D280020F02E0E306E000E316E440E326E26EC10
:101D38001DF09FEC20F02E0E306E000E316E550E09
:101D4800326E26EC1DF09FEC20F02EC031F02FC033
:101D580032F092EC20F01ED056EC18F01BD0E90EB1
:101D6800316E7F0E326E1AEC20F014D00101A151B1
:101D7800030AD8B44BD7130AD8B43BD6510AD8B4FF
:101D8800CFD6050AD8B4BDD7010AD8B4E5D70D0A0D
:101D9800D8B4E5D79E9AAB9800F0AB8854C0F5FF4D
:101DA80053C0F8FF52C0F7FF51C0F6FF50C0F4FF10
:101DB8004FC0F3FF4EC0DAFF4DC0D9FF4CC0E2FF61
:101DC8004BC0E1FF4AC0EAFF49C0E9FF48C0FBFF3A
:101DD80047C0FAFF59921100FDD1010E256EE7C0E8
:101DE800E9F0E8C0EAF01200040EBCEC1EF00009AD
:101DF800D8B411D081AE05D0020E256E9AEC1EF033
:101E08000AD02750D8A402D0010E04D02704D8A4A1
:101E180002D0000E276E020EBCEC1EF00009D8B4EA
:101E2800D9D081AE07D0000EF3EC19F0020E41ECC8
:101E380020F0D0D02750D8A44DD0F7C191F0F8C1E8
:101E480092F0F90E0001936F010E0001946F040ED9
:101E58000001956F05EC20F0F9C1C5F0FAC1C6F094
:101E6800FBC1C7F0FCC1C8F0770E0001C96FCC0EEA
:101E7800CA6F2B0ECB6F320ECC6F1BEC08F0C5C0AF
:101E8800F9F1C6C0FAF1C7C0FBF1C8C0FCF1F7C14F
:101E980091F0F8C192F0F90E0001936F010E000164
:101EA800946F040E0001956F84EC20F0F9C19FF047
:101EB800FAC1A0F0FBC1A1F0FCC1A2F0000E000124
:101EC800A36F240EA46F740EA56F490EA66F6FEC56
:101ED8000AF051D02704D8A456D0000E0001926F02
:101EE800020E916FF90E0001936F010E0001946FBD
:101EF800040E0001956F05EC20F0F9C1C5F0FAC198
:101F0800C6F0FBC1C7F0FCC1C8F06F0E0001C96F75
:101F1800120ECA6F830ECB6F3A0ECC6F1BEC08F013
:101F2800C5C0F9F1C6C0FAF1C7C0FBF1C8C0FCF1E1
:101F3800000E0001926F020E916FF90E0001936F6F
:101F4800010E0001946F040E0001956F84EC20F0DF
:101F5800F9C19FF0FAC1A0F0FBC1A1F0FCC1A2F049
:101F6800000E0001A36F000EA46F7A0EA56F440E39
:101F7800A66F6FEC0AF09FC0F9F1A0C0FAF1A1C0FA
:101F8800FBF1A2C0FCF1000E0001996F000E5FEC9E
:101F98001DF0200E0101E96F020E0101EA6FF50E36
:101FA8000101EB6F7F0E0101EC6FF9C1EDF1FAC190
:101FB800EEF1FBC1EFF1FCC1F0F168EC00F0200E8E
:101FC8000001996F020E00019A6F4EEC1EF0FA0E96
:101FD80094EC1FF0030EBCEC1EF00009D8B41200FC
:101FE80081AE07D0010EF3EC19F0040E41EC20F09D
:101FF80012002750D8A44DD0F7C191F0F8C192F043
:10200800F90E0001936F010E0001946F040E000198
:10201800956F05EC20F0F9C1C5F0FAC1C6F0FBC117
:10202800C7F0FCC1C8F0770E0001C96FCC0ECA6FAB
:102038002B0ECB6FB20ECC6F1BEC08F0C5C0F9F1BC
:10204800C6C0FAF1C7C0FBF1C8C0FCF1F7C191F0F6
:10205800F8C192F0F90E0001936F010E0001946F20
:10206800040E0001956F84EC20F0F9C19FF0FAC1CD
:10207800A0F0FBC1A1F0FCC1A2F0000E0001A36F0B
:10208800240EA46F740EA56F490EA66F6FEC0AF0AC
:1020980051D02704D8A456D0000E0001926F020E2A
:1020A800916FF90E0001936F010E0001946F040EF9
:1020B8000001956F05EC20F0F9C1C5F0FAC1C6F032
:1020C800FBC1C7F0FCC1C8F06F0E0001C96F120E4A
:1020D800CA6F830ECB6FBA0ECC6F1BEC08F0C5C06D
:1020E800F9F1C6C0FAF1C7C0FBF1C8C0FCF1000E97
:1020F8000001926F020E916FF90E0001936F010EAD
:102108000001946F040E0001956F84EC20F0F9C172
:102118009FF0FAC1A0F0FBC1A1F0FCC1A2F0000E33
:102128000001A36F000EA46F7A0EA56F440EA66F70
:102138006FEC0AF09FC0F9F1A0C0FAF1A1C0FBF161
:10214800A2C0FCF1000E0001996F000E5FEC1DF0BB
:10215800200E0101E96F020E0101EA6FF50E01017F
:10216800EB6F7F0E0101EC6FF9C1EDF1FAC1EEF1F1
:10217800FBC1EFF1FCC1F0F168EC00F0200E0001AA
:10218800996F020E00019A6F4EEC1EF0FA0E94EC55
:102198001FF01200040EBCEC1EF00009D8B402D0E7
:1021A800010E256E020EBCEC1EF00009D8B406D054
:1021B800050E286001D0282A9AEC1EF0030EBCEC0C
:1021C8001EF00009D8B412002850D8A428069AECAA
:1021D8001EF012002550000AD8B4FFD5010AD8B461
:1021E80003D6030AD8A41200D5D70001C46F6D0E18
:1021F8000001C465C4D0000E00019A6F0A0E996FE1
:10220800000E0001946F640E936FC4C091F000013A
:10221800926BABEC1AF091C097F092C098F036EC44
:1022280019F00001D890973798370001D890973760
:102238009837240E00019727000E00019823C90E35
:1022480000019725F66E7E0E00019821F76E0900B1
:10225800F5CFA3F00900F5CFA4F00900F5CFA5F05C
:102268000A00F5CFA6F0000E00019A6F640E996F70
:10227800C4C097F00001986B36EC19F00001D890B3
:10228800973798370001D89097379837480E00014C
:102298009727000E00019823C90E00019725F66EB6
:1022A8007E0E00019821F76E0900F5CF9FF0090016
:1022B800F5CFA0F00900F5CFA1F00A00F5CFA2F004
:1022C8006FEC0AF09FC0C0F0A0C0C1F0A1C0C2F07E
:1022D800A2C0C3F0000E0001946F0A0E936FC4C031
:1022E80091F00001926BABEC1AF00001D890913795
:1022F80092370001D89091379237C90E0001912585
:10230800F66E7E0E00019221F76E0900F5CFA3F05C
:102318000900F5CFA4F00900F5CFA5F00A00F5CF24
:10232800A6F0C0C09FF0C1C0A0F0C2C0A1F0C3C059
:10233800A2F06FEC0AF09FC0BCF0A0C0BDF0A1C035
:10234800BEF0A2C0BFF0BCC09FF0BDC0A0F0BEC030
:10235800A1F0BFC0A2F0000E0001A36F000EA46F91
:10236800000EA56F3F0EA66F6FEC0AF09FC0B8F085
:10237800A0C0B9F0A1C0BAF0A2C0BBF012000A0E0A
:102388000001C46572D0000E0001946F0A0E936FAD
:10239800C4C091F00001926BABEC1AF00001D89028
:1023A800913792370001D89091379237C90E0001C2
:1023B8009125F66E7E0E00019221F76E0900F5CF89
:1023C800A3F00900F5CFA4F00900F5CFA5F00A00A5
:1023D800F5CFA6F0000E00019A6F0A0E996FC4C0DF
:1023E80097F00001986B36EC19F00001D8909737F8
:1023F80098370001D89097379837240E000197270F
:10240800000E00019823C90E00019725F66E7E0E76
:1024180000019821F76E0900F5CF9FF00900F5CF6C
:10242800A0F00900F5CFA1F00A00F5CFA2F06FECFB
:102438000AF09FC0C0F0A0C0C1F0A1C0C2F0A2C005
:10244800C3F0C0C09FF0C1C0A0F0C2C0A1F0C3C01B
:10245800A2F0000E0001A36F000EA46F000EA56F7E
:102468003F0EA66F6FEC0AF081D70001C451040D2E
:10247800C90EF324F66E7E0EF420F76E0900F5CF30
:102488009FF00900F5CFA0F00900F5CFA1F00A00F0
:10249800F5CFA2F0000E0001A36F000EA46F000E8E
:1024A800A56F3F0EA66F6FEC0AF09FC0B8F0A0C0F2
:1024B800B9F0A1C0BAF0A2C0BBF012000001996F38
:1024C800000199510001D8B41ED0000194AF1BD06F
:1024D80091C095F092C096F093C097F094C098F090
:1024E8000001951F961F971F981F952B000E962386
:1024F8009723982395C09BF096C09CF097C09DF0B9
:1025080098C09EF008D091C09BF092C09CF093C0F8
:102518009DF094C09EF000019151000192110001BC
:10252800931100019411D8A40AD0000E0001916FF4
:10253800000E926F000E936F000E946F1200960EAD
:1025480000019A6F08D000019A2B0001D8909E33A1
:102558009D339C339B33000E00019B150001956F42
:10256800000E00019C150001966F000E00019D15DC
:102578000001976FFE0E00019E150001986F000183
:102588009551000196110001971100019811D8B4D6
:1025980010D0D9D700019A2B010E00019B27000EFD
:1025A8009C239D239E230001D8909E339D339C330A
:1025B8009B33000E00019B150001956F000E000172
:1025C8009C150001966F000E00019D150001976F84
:1025D800FF0E00019E150001986F00019551000142
:1025E80096110001971100019811D8B409D0D2D7DB
:1025F80000019A070001D8909B379C379D379E377A
:1026080000019DBF04D0020E00019A61F1D70001BC
:102618009AB109D0FF0E00019B17FF0E9C177F0E81
:102628009D17FF0E9E170001D8909A339AC095F017
:102638000001966B976B986B95C098F00001976BAB
:10264800966B956B0001955100019B130001965103
:1026580000019C130001975100019D13000198513E
:1026680000019E13000199510001D8B405D0000162
:1026780094AF02D000019E8F9BC091F09CC092F055
:102688009DC093F09EC094F01200000E0101F66FF9
:10269800900EF76F620EF86F450EF96F000E4CEC56
:1026A8001BF0F6C1EBF0F7C1ECF0F8C1EDF0F9C1A1
:1026B800EEF000F0CD0E0101F66F5C0EF76FB90E6B
:1026C800F86F440EF96F010E4CEC1BF0F6C1EBF0FD
:1026D800F7C1ECF0F8C1EDF0F9C1EEF000F0CD0E65
:1026E8000101F66F4C0EF76F100EF86F440EF96F7C
:1026F800020E4CEC1BF0F6C1EBF0F7C1ECF0F8C1A0
:10270800EDF0F9C1EEF000F0000E0101F66F800E59
:10271800F76FB40EF86F430EF96F030E4CEC1BF015
:10272800F6C1EBF0F7C1ECF0F8C1EDF0F9C1EEF04D
:1027380000F0660E0101F66F660EF76FDD0EF86F9A
:10274800420EF96F040E4CEC1BF0F6C1EBF0F7C12A
:10275800ECF0F8C1EDF0F9C1EEF000F0000E010167
:10276800F66FFC0EF76F3D0EF86F460EF96F050E0B
:102778004CEC1BF0F6C1EBF0F7C1ECF0F8C1EDF052
:10278800F9C1EEF000F0000E896E000E8A6E000EA0
:102798008B6E000EC26E0F0EC16E0F0EC06E7DECFA
:1027A80020F0320E926EC30E936E900E946E070E4A
:1027B8007CEC1FF0F19EF19CF19AF08CF096F29867
:1027C800F292F090000EC76E310EC66E830ED56E73
:1027D800F194F28AF28C9D8A9F8AD08E26EC1EF0A4
:1027E800010E2EEC1FF0800E2EEC1FF073EC1CF087
:1027F800010E2EEC1FF0800E2EEC1FF0000E0001D3
:10280800996F000E5FEC1DF0DA0E0001996F7F0ED4
:1028180000019A6FC4EC1FF0020E0001996F000EC0
:102828005FEC1DF0040E41EC20F056825680DAEC85
:102838001FF0F28E0400F0EC0EF0CBEC1DF0FCEC77
:102848001AF0B3EC1CF0F6D793C097F00001986B20
:10285800996B000192350001973701E398810001D7
:10286800975100019F6F00019F51D8A40AD0000E14
:102878000001916F000E926F000E936F000E946F1F
:10288800120096C097F00001986B996B000195357E
:102898000001973701E398810001975100019E6F6D
:1028A80000019E51D8A40AD0000E0001916F000EBD
:1028B800926F000E936F000E946F12000001928FBA
:1028C800FF0E00019117FF0E00019217000E000184
:1028D80093170001958FFF0E00019417FF0E00015A
:1028E8009517000E00019617000E00019A6F000E52
:1028F8009B6F000E9C6F000E9D6F7F0E00019F5F07
:1029080000019E51980F00019F5F180E00019E6FF5
:102918000001D8909A379B379C379D370001945116
:102928000001915D000195510001925900019651F5
:1029380000019359D8A00ED0000194510001915F75
:10294800000195510001925B000196510001935BD3
:1029580000019A810001D89091379237933700018E
:102968009E2FD6D700019FAF1AD000019F51800A31
:10297800970FD8B00AD0000E0001916F000E926F29
:10298800000E936F000E946F12000001D8909D33D3
:102998009C339B339A3300019F3FF7D71BD0170E08
:1029A80000019F6512D0000E0001916F000E926F1A
:1029B800000E936F000E946F12000001D8909A37A2
:1029C8009B379C379D3700019F0700019F510001ED
:1029D800D8A4F3D79AC091F09BC092F09CC093F012
:1029E8009DC094F01200000E000191150001996F2E
:1029F800000E0001921500019A6F800E00019315D8
:102A080000019B6F7F0E0001941500019C6F00016F
:102A1800995100019A1100019B1100019C11D8A441
:102A280009D0000E0001916F000E926F000E936F97
:102A3800000E946F000E000195150001996F000EAD
:102A48000001961500019A6F800E0001971500018C
:102A58009B6F7F0E0001981500019C6F0001995132
:102A680000019A1100019B1100019C11D8A409D002
:102A7800000E0001956F000E966F000E976F000E06
:102A8800986F000194AF26D091C099F092C09AF047
:102A980093C09BF094C09CF00001991F9A1F9B1F44
:102AA8009C1F992B000E9A239B239C23000E000148
:102AB80099250001916F000E00019A210001926F83
:102AC800000E00019B210001936F800E00019C21E4
:102AD8000001946F000198AF26D095C099F096C078
:102AE8009AF097C09BF098C09CF00001991F9A1F1C
:102AF8009B1F9C1F992B000E9A239B239C23000E3F
:102B0800000199250001956F000E00019A2100012E
:102B1800966F000E00019B210001976F800E000147
:102B28009C210001986F000E0001911B000E921B62
:102B3800000E931B800E941B000E0001951B000EC7
:102B4800961B000E971B800E981B000195510001E3
:102B5800915D0001965100019259000197510001C1
:102B680093590001985100019459D8B002D0D890D7
:102B78001200D88012000101F0AF0FD0000E000142
:102B8800E66F210EE56F000E0101ED6F000EEE6F8E
:102B9800000EEF6F000EF06F12000101ED51010100
:102BA800EE110101EF110101F011D8A40FD0000EB0
:102BB8000001E66F220EE56F000E0101ED6F000EB9
:102BC800EE6F000EEF6F000EF06F1200000E0001A6
:102BD800A36F000EA46F000EA56F400EA66FF10E36
:102BE8000001956F010E0001966FEDC191F0EEC1E5
:102BF80092F0EFC193F0F0C194F050EC1AF091C04C
:102C08009FF092C0A0F093C0A1F094C0A2F06FEC26
:102C18000AF09FC0C5F0A0C0C6F0A1C0C7F0A2C00E
:102C2800C8F0000E0001C96F000ECA6F800ECB6F8E
:102C3800BF0ECC6F1BEC08F0C5C0EDF1C6C0EEF1BD
:102C4800C7C0EFF1C8C0F0F10101F107D8A0F20741
:102C5800EDC1D9F0EEC1DAF0EFC1DBF0F0C1DCF084
:102C6800B60E0001DD6F7F0E0001DE6F000E000161
:102C7800E06F080EDF6F48EC17F0D9C0EDF1DAC04D
:102C8800EEF1DBC0EFF1DCC0F0F1180E0001A36F2C
:102C9800720EA46F310EA56F3F0EA66FF1C191F0B1
:102CA800F2C192F00001000E92BFFF0E936F946F75
:102CB800010E62EC12F091C09FF092C0A0F093C098
:102CC800A1F094C0A2F06FEC0AF09FC0C5F0A0C0BC
:102CD800C6F0A1C0C7F0A2C0C8F0EDC1C9F0EEC1EE
:102CE800CAF0EFC1CBF0F0C1CCF01BEC08F0C5C0C6
:102CF800EDF1C6C0EEF1C7C0EFF1C8C0F0F11200A7
:102D080000019335943500019E6F00019E51D8A4AF
:102D18000AD0000E0001916F000E926F000E936FA3
:102D2800000E946F120000019735983500019D6FD1
:102D380000019D51D8A40AD0000E0001916F000E29
:102D4800926F000E936F000E946F12000001938F24
:102D5800FF0E00019117FF0E9217FF0E9317000E3A
:102D680094170001978FFF0E00019517FF0E961715
:102D7800FF0E9717000E9817000E0001996F000EAE
:102D88009A6F000E9B6F000E9C6F7F0E00019E5F76
:102D980000019D51A00F00019E5F200E00019D6F54
:102DA8000001D89099379A379B379C370001955185
:102DB8000001915D0001965100019259000197515F
:102DC800000193590001985100019459D8A012D0DC
:102DD800000195510001915F000196510001925B3D
:102DE800000197510001935B000198510001945B29
:102DF800000199810001D890913792379337943721
:102E080000019D2FCDD700019EAF1AD000019E5121
:102E1800800A9F0FD8B00AD0000E0001916F000EF3
:102E2800926F000E936F000E946F12000001D890FD
:102E38009C339B339A33993300019E3FF7D71BD0BD
:102E48001F0E00019E6512D0000E0001916F000E4A
:102E5800926F000E936F000E946F12000001D890CD
:102E680099379A379B379C3700019E0700019E517E
:102E78000001D8A4F3D799C091F09AC092F09BC0F2
:102E880093F09CC094F01200DFC0E1F0E0C0E2F0E3
:102E98000001D890E137E2370001D890E137E237F6
:102EA800DDC0E3F0DEC0E4F00001E1510001E327FA
:102EB8000001E2510001E423E3C0F6FFE4C0F7FF9C
:102EC8000900F5CFE9F10900F5CFEAF10900F5CFDE
:102ED800EBF10A00F5CFECF150D0E9C1A3F0EAC15B
:102EE800A4F0EBC1A5F0ECC1A6F0D9C09FF0DAC000
:102EF800A0F0DBC0A1F0DCC0A2F06FEC0AF09FC02C
:102F0800C5F0A0C0C6F0A1C0C7F0A2C0C8F00001BB
:102F1800DF07D8A0E007DFC0E1F0E0C0E2F0000181
:102F2800D890E137E2370001D890E137E237DDC0C9
:102F3800E3F0DEC0E4F00001E1510001E327000105
:102F4800E2510001E423E3C0F6FFE4C0F7FF090003
:102F5800F5CFC9F00900F5CFCAF00900F5CFCBF0DD
:102F68000A00F5CFCCF01BEC08F0C5C0E9F1C6C0EB
:102F7800EAF1C7C0EBF1C8C0ECF10001DF51000174
:102F8800E011D8A4AAD7E9C1D9F0EAC1DAF0EBC1B7
:102F9800DBF0ECC1DCF012000001C335C4350001E0
:102FA800CA6F0001CA51D8A40AD0000E0001C16F2F
:102FB800000EC26F000EC36F000EC46F1200C1C0B6
:102FC800C5F0C2C0C6F0C3C0C7F0C4C0C8F0200E68
:102FD80006D00001D890C833C733C633C533E82EAE
:102FE800F8D70001C5510001C96F0001C38FFF0E5A
:102FF8000001C117FF0EC217FF0EC317000EC4173A
:10300800960E0001CA5F0001CAAF1AD00001CA516A
:10301800800A970FD8B00AD0000E0001C16F000EC9
:10302800C26F000EC36F000EC46F12000001D8906B
:10303800C433C333C233C1330001CA3FF7D71BD0EF
:103048001F0E0001CA6512D0000E0001C16F000EEC
:10305800C26F000EC36F000EC46F12000001D8903B
:10306800C137C237C337C4370001CA070001CA5184
:103078000001D8A4F3D70001C9510001D8B409D080
:103088000001C41FC31FC21FC16D000EC223C3238A
:10309800C423C1C0C1F0C2C0C2F0C3C0C3F0C4C021
:1030A800C4F0120000F02E0E306E000E316E74EC7B
:1030B80020F02E0E306E000E316E550E326E26EC5C
:1030C8001DF09FEC20F02E0E306E000E316E450E76
:1030D800326E26EC1DF09FEC20F0000E396E070EC4
:1030E800396401D049D03950040D420EF324206EC2
:1030F800020EF420216E00F02E0E306E000E316E9E
:1031080020C0D9FF21C0DAFFDF50326E26EC1DF057
:103118009FEC20F0204A212A2E0E306E000E316ED0
:1031280020C0D9FF21C0DAFFDF50326E26EC1DF037
:103138009FEC20F0204A212A2E0E306E000E316EB0
:1031480020C0D9FF21C0DAFFDF50326E26EC1DF017
:103158009FEC20F0204A212A2E0E306E000E316E90
:1031680020C0D9FF21C0DAFFDF50326E26EC1DF0F7
:103178009FEC20F0392AB3D72EC031F02FC032F09F
:1031880092EC20F01200000E0101F16F000EF26FB8
:10319800000EF36F000EF46F000E0101F56FED0ED7
:1031A8000001916F010E0001926F0001D951ACEC42
:1031B8001FF0F5C1BCF0DBC0B8F0DCC0B9F0DDC071
:1031C800BAF0DEC0BBF032EC1CF0B8C0E9F1B9C00F
:1031D800EAF1BAC0EBF1BBC0ECF1EDC1A3F0EEC16E
:1031E800A4F0EFC1A5F0F0C1A6F0E9C19FF0EAC1D3
:1031F800A0F0EBC1A1F0ECC1A2F06FEC0AF09FC007
:10320800C5F0A0C0C6F0A1C0C7F0A2C0C8F0F1C107
:10321800C9F0F2C1CAF0F3C1CBF0F4C1CCF01BEC99
:1032280008F0C5C0F1F1C6C0F2F1C7C0F3F1C8C0DB
:10323800F4F1040E0001D927000EDA230101F52B61
:10324800F5050001E06F0001DF510001E05DD8A045
:10325800A6D7F1C1D9F0F2C1DAF0F3C1DBF0F4C1BD
:10326800DCF01200000E00019C6F00019AAF08D03C
:103278000001996D9A1FD8B09A2B010E00019C6F1E
:10328800000198AF08D00001976D981FD8B0982B0F
:10329800010E00019C1B000E00019E6F000E9D6F29
:1032A8000001995100019A11D8B42CD0010E0001E7
:1032B8009B6F06D00001D89099379A3700019B2B55
:1032C80000019AAFF7D70001D8909D379E370001CB
:1032D80099510001975D00019A5100019859D8A0B1
:1032E8000AD0000199510001975F00019A5100012D
:1032F800985B00019D810001D8909A3399330001B1
:103308009B2FE1D700019C510001D8B405D00001E2
:103318009D6D9E1FD8B09E2B9DC097F09EC098F0C3
:103328001200000E0001996F000E9A6F000E9B6F3D
:10333800000E9C6F00019551000196110001971134
:1033480000019811D8B442D0010E00019D6F08D039
:103358000001D890953796379737983700019D2BFD
:10336800000198AFF5D70001D89099379A379B3765
:103378009C37000195510001915D000196510001B3
:103388009259000197510001935900019851000189
:103398009459D8A012D0000195510001915F000105
:1033A80096510001925B000197510001935B000167
:1033B80098510001945B000199810001D8909833DD
:1033C80097339633953300019D2FCDD799C091F04F
:1033D8009AC092F09BC093F09CC094F01200000138
:1033E8009C6F010E2EEC1FF0800E2EEC1FF00001DA
:1033F8009C510001D8A449D0000E0001996F010E1C
:103408005FEC1DF0310EDAEC1EF0000E0001996F32
:10341800090E5FEC1DF0320EDAEC1EF0010E000111
:10342800996F010E5FEC1DF0330EDAEC1EF0010E01
:103438000001996F090E5FEC1DF0340EDAEC1EF0F6
:10344800020E0001996F010E5FEC1DF0350EDAECEB
:103458001EF0020E0001996F090E5FEC1DF0360E8A
:10346800DAEC1EF0030E0001996F010E5FEC1DF0FF
:10347800370EDAEC1EF0030E0001996F090E5FECAF
:103488001DF0380EDAEC1EF01200010E0001996FE3
:10349800000E5FEC1DF01200000191510001921125
:1034A8000001931100019411D8A412D095C0D9FF3E
:1034B80096C0DAFF000EDE6E000EDD6E000E000113
:1034C800916F000E926F000E936F000E946F1200B2
:1034D800000194517F0B0001976F986BD890000101
:1034E8009737983795C0D9FF96C0DAFF97C0DEFFA7
:1034F80098C0DDFF000193AF04D00001976B972BB4
:1035080002D00001976B0001975195C0D9FF96C072
:10351800DAFFDE12000EDD1295C0D9FF96C0DAFF81
:10352800820EDE26FF0EDD220001948194839485AD
:1035380094879489948B949D0001939F91C091F0F6
:1035480092C092F093C093F094C094F01200000ED1
:103558000001966F000192AF08D00001916D921F93
:10356800D8B0922B010E0001966F000194AF05D0E0
:103578000001936D941FD8B0942B00019351000162
:103588009411D8B426D0010E0001956F06D0000121
:10359800D890933794370001952B000194AFF7D753
:1035A800000193510001915D00019451000192596D
:1035B800D8A008D0000193510001915F00019451F7
:1035C8000001925B0001D890943393330001952F4A
:1035D800E7D7000196510001D8B405D00001916DDC
:1035E800921FD8B0922B91C091F092C092F0120025
:1035F8004AD056A412005694000E00019C6F030E88
:1036080000019C6501D010D09CC099F0000E5FECC1
:103618001DF0200E0001996F020E00019A6F4EEC0A
:103628001EF000019C2BEBD781AE0DD0030E0001DC
:10363800996F080E5FEC1DF02A2A2AA012002E0EA0
:10364800DAEC1EF01200030E0001996F080E5FEC11
:103658001DF02A2A2AA003D0530EDAEC1EF0020E1F
:103668000001996F080E5FEC1DF02750D8A404D014
:103678004B0EDAEC1EF012002704D8A412005A0EE2
:10368800DAEC1EF012002550010AD8A41200B1D7B6
:1036980002016A6FF6C1EDF1F7C1EEF1F8C1EFF181
:1036A800F9C1F0F1BFEC15F0EDC166F2EEC167F2B9
:1036B800EFC168F2F0C169F266C2C5F067C2C6F030
:1036C80068C2C7F069C2C8F0000E0001C96F000ED9
:1036D800CA6FE00ECB6FC00ECC6F1BEC08F0C5C0F4
:1036E80062F2C6C063F2C7C064F2C8C065F20201E4
:1036F8006A511C0D0A0EF3240001D96F000EF42044
:103708000001DA6F62C2DBF063C2DCF064C2DDF094
:1037180065C2DEF0060E0001DF6FC7EC18F0D9C0F5
:10372800F6F1DAC0F7F1DBC0F8F1DCC0F9F112000C
:10373800000195510001961100019711000198119F
:10374800D8B43AD0010E0001996F08D00001D89082
:1037580095379637973798370001992B000198AF1E
:10376800F5D7000195510001915D000196510001C6
:103778009259000197510001935900019851000195
:103788009459D8A010D0000195510001915F000113
:1037980096510001925B000197510001935B000173
:1037A80098510001945B0001D89098339733963371
:1037B80095330001992FD5D791C091F092C092F01E
:1037C80093C093F094C094F0120081A081B21BD0F2
:1037D8001A501B10D8B417D0010E576E010E586E30
:1037E8001A4A1B2A1B5004E1650E1A5CD8A0120065
:1037F800000E1B6E000E1A6E010E5DEC20F0040E1A
:103808005DEC20F0120081B081A204D0000E1B6E86
:10381800010E1A6E1A501B10D8B4120081B002D0D3
:10382800000E0AD05750D8A406D0010E5DEC20F047
:10383800020E5DEC20F0010E576E81B203D0000E2F
:10384800586E12005850D8A406D0010E5DEC20F036
:10385800030E5DEC20F0010E586E1200000E000100
:10386800BD6F000EBE6F800EBF6F3F0EC06F0001B0
:10387800BC510001D8A409D0BDC0B8F0BEC0B9F091
:10388800BFC0BAF0C0C0BBF01200BDC09FF0BEC040
:10389800A0F0BFC0A1F0C0C0A2F0B8C0A3F0B9C0EA
:1038A800A4F0BAC0A5F0BBC0A6F06FEC0AF09FC0A8
:1038B800BDF0A0C0BEF0A1C0BFF0A2C0C0F0000122
:1038C800BC070001BC510001D8A4DFD7BDC0B8F0C7
:1038D800BEC0B9F0BFC0BAF0C0C0BBF01200000E45
:1038E80000019A6F480E0001996F000199512EEC62
:1038F8001FF00001992B140E266E000100F000F055
:1039080000F000F000F0262F82EF1CF000019A5121
:10391800010D310EF324F66E7F0EF420F76E0800C9
:10392800F550DAEC1EF000019A2B140E266E0001F9
:1039380000F000F000F000F000F0262F9CEF1CF0E3
:1039480000019A51010D310EF324F66E7F0EF4201A
:10395800F76E0800F5500009D8B41200C6D7000E5B
:103968000001926F040E0001926501D0120000015F
:103978009251010D110EF324D96E000EF420DA6E67
:10398800020EDE18D8A40BD000019251010D110EC1
:10399800F324D96E000EF420DA6E000EDF6E0001FB
:1039A8009251010D110EF324D96E000EF420DA6E37
:1039B800DE04D8A40BD000019251010D110EF3249E
:1039C800D96E000EF420DA6E020EDF6E0001922B23
:1039D800C9D7400E306E000E316E74EC20F0000E28
:1039E8003F6E0FD0400E306E000E316E39C0D9FFD9
:1039F8003AC0DAFFDF50326E26EC1DF0394A3A2A17
:103A08003F2A3B503F5CD8A0EDD739C0D9FF3AC018
:103A1800DAFF394A3A2A4050DE18D8A411D039C002
:103A2800D9FF3AC0DAFF40C03DF041C03EF03EC089
:103A38003DF03E6ADE503D18D8A402D0010E1200B7
:103A4800000E1200325030C0D9FF31C0DAFFDE1A42
:103A5800000EDD1A000E386E070E386401D029D02A
:103A680030C0D9FF31C0DAFFDF50010B376E30C0EC
:103A7800D9FF31C0DAFFDECF33F0DDCF34F0D89094
:103A88003430366E3330356E30C0D9FF31C0DAFF8E
:103A980035C0DEFF36C0DDFF3750D8B408D030C09F
:103AA800D9FF31C0DAFF010EDE1AA00EDD1A382A5E
:103AB800D3D73250120000019B6F000EF2BE010EE8
:103AC80000019A6FF29E18D000019B51800F2EECD6
:103AD8001FF020D000019B51C00F2EEC1FF01AD010
:103AE80000019B51900F2EEC1FF014D000019B5148
:103AF800D00F2EEC1FF00ED000019951000AD8B457
:103B0800E3D7010AD8B4E6D7030AD8B4E9D7010A3B
:103B1800D8B4ECD700019AA102D0F28E1200F29E1E
:103B28001200000E0001936F000EF2BE010E00019C
:103B3800926FF29E010E51EC20F08D948D80010E53
:103B4800266E000100F000F000F000F000F0262FD3
:103B5800A6EF1DF08D84010E266E000100F000F026
:103B680000F000F000F0262FB2EF1DF083CF93F0A5
:103B780000F08D948D90000E51EC20F0000192A180
:103B880002D0F28E01D0F29E0001935112005680AD
:103B980056A012002B507CEC1FF0960E94EC1FF0F0
:103BA800A5EC20F0F29E2B50040D000EF324D96EE4
:103BB800020EF420DA6E2B50040D420EF324E16E4F
:103BC800020EF420E26EDECFE6FFDECFE6FFDECFA8
:103BD800E6FFDECFE6FFF28E2B2A070E2B162B50C0
:103BE800D8B4569256905684120002EE00F0620E37
:103BF800EE6AE806FDE101EE00F0E90EEE6AE8067D
:103C0800FDE10001EA6BE96BE86BE76BE66BE56BDE
:103C1800566A00EE01F02F0EEE6AE806FDE1500E3E
:103C2800F66E410EF76E000EF86E0900F5CF57F0EC
:103C38000900F5CF58F059905992000EF86E00011E
:103C480049EF13F09690969296948D928D948D905C
:103C5800000E51EC20F0380E8C6E000E0001996FAA
:103C68000A0E0001996501D008D0C80E94EC1FF027
:103C78002FEC20F00001992BF3D7380E2EEC1FF013
:103C8800060E2EEC1FF00C0E2EEC1FF0010E2EEC83
:103C98001FF012001FD0010EDAEC1EF018D0020E31
:103CA800DAEC1EF014D099C0D9FF9AC0DAFFDF50C1
:103CB800DAEC1EF00CD099C0D9FF9AC0DAFFDF50B9
:103CC800400AD8B4E8D71E0AD8B4E9D7ECD700011F
:103CD800994B9A2B99C0D9FF9AC0DAFFDF50D8B414
:103CE8001200E9D7000E0001DD1B000EDE1B000EDE
:103CF800DF1B800EE01BD9C0C5F0DAC0C6F0DBC000
:103D0800C7F0DCC0C8F0DDC0C9F0DEC0CAF0DFC053
:103D1800CBF0E0C0CCF01BEC08F0C5C0D9F0C6C0B1
:103D2800DAF0C7C0DBF0C8C0DCF01200010E2EECE0
:103D38001FF0800E2EEC1FF0000E00019C6F030E8A
:103D480000019C6501D008D09CC099F0000E5FEC82
:103D58001DF000019C2BF3D7285069EC20F00001DE
:103D6800996F000E5FEC1DF02A0EDAEC1EF01200BF
:103D78000001926F00019251010D110EF324D96ECA
:103D8800000EF420DA6E020EDE18D8A40DD0000161
:103D98009251010D110EF324D96E000EF420DA6E43
:103DA800000EDF6E010E1200000E12000001976F68
:103DB800000EF2BE010E0001986FF29E63EC1FF038
:103DC800000E51EC20F08D828D948D90000197515A
:103DD8008BEC20F08D92000198A102D0F28E01D0D8
:103DE800F29E00F0120000019151000192110001B1
:103DF800931100019411D8B409D0000E0001911B51
:103E0800000E921B000E931B800E941B91C091F024
:103E180092C092F093C093F094C094F01200000105
:103E2800915100019303F3CF95F0F4CF96F0000180
:103E3800915100019403F35000019627000192511B
:103E480000019303F3500001962795C091F096C0A6
:103E580092F012000001976F000EF2BE010E0001F1
:103E6800986FF29E63EC1FF0000E51EC20F08D92DB
:103E78008D948D90000197518BEC20F0000198A152
:103E880002D0F28E1200F29E1200000E296E000E71
:103E9800316E000E306E00F09EBA08D0304A312ADA
:103EA800100E305C270E3158D8A0F5D79EAA03D043
:103EB80099EC20F01200010E296E000E1200030E7C
:103EC8000001956FE80E946F07D095EC1DF0000186
:103ED800966F000196AF120000019407D8A09507CD
:103EE80000019429F2E100019529D8B41200EDD718
:103EF8000001916F93969398939A000191A102D033
:103F08008A8601D08A96000191A302D08A8801D0BE
:103F18008A98000191A502D08A8A12008A9A120012
:103F28000001916F040E0001926FFA0E266E0001D7
:103F380000F000F000F000F000F0262F9CEF1FF0DA
:103F480000F00001922FF1D70001912FEBD712005A
:103F580091C093F092C094F0000E0001956F030E8B
:103F68000001956501D0120093C0D9FF94C0DAFF13
:103F7800000EDF6E0001934B942B0001952BEFD7B9
:103F88000BD099C0F6FF9AC0F7FF0800F550DAEC9D
:103F98001EF00001994B9A2B99C0F6FF9AC0F7FFC3
:103FA8000800F5500009D8B41200EBD7000E000144
:103FB800916F040E0001916501D01200000191512A
:103FC800010D110EF324D96E000EF420DA6E000EE6
:103FD800DF6E0001912BEDD70001936F000E0001F9
:103FE800926F3A0E0001936107D02F0E000193657E
:103FF80003D0010E0001926F92C091F0000191313F
:1040080012000DD000019551010DF35000019325C8
:10401800D96EF45000019421DA6E000EDF6E0001B3
:10402800950700019529D8B41200ECD70AD031C001
:10403800F6FF32C0F7FF0800F5509FEC20F0314A38
:10404800322A31C0F6FF32C0F7FF0800F5500009E8
:10405800D8B41200ECD78D84010E266E000100F052
:1040680000F000F000F000F0262F33EF20F000F011
:1040780000F000F000F08D9412000001936F040E20
:104088000001946FFA0E94EC1FF000F00001942FD9
:10409800F9D70001932FF3D712000001916F0001A7
:1040A80091510001D8A403D0000E956E12009568B6
:1040B8001200556E5550010D110EF324D96E000EE5
:1040C800F420DA6E010EDF6E12000001916F040E0B
:1040D8000001916103D0000191511200030E1200FA
:1040E80030C0D9FF31C0DAFFFF0EDE6EFF0EDD6E85
:1040F8001200AC84140EAF6EAC8AAB88AB8E120083
:104108000001950700019529D8B41200F9D70001DC
:10411800916F91C08CFF2FEC20F0120031509FEC72
:1041280020F032509FEC20F0120001D000F09EAA3F
:10413800FDD7AE501200306EACA2FED730C0ADFF36
:0A4148001200C68A8A9412000101D9
:107EC800000000803FCDCCCC3D0AD7233C6F128305
:107ED8003A17B7D138ACC52737BD37863595BFD6E1
:107EE8003377CC2B325F708930FFE6DB2E08E53C18
:107EF8001E6042A20D0000803F000020410000C823
:107F08004200007A4400401C460050C347002474D5
:107F1800498096184B20BCBE4C286B6E4EF9021552
:107F280050EC78AD60CAF249710609090680808074
:107F380080800E11110A9B8080151F1F04080807F6
:107F480080FFFFFFFFFFFFFF8055AA55AA55AA55DE
:107F58008055AA55AA7FFF7F8000010000000A0013
:107F6800000064000000E803000010270000A0865D
:107F7800010040420F008096980000E1F50500CA14
:107F88009A3B000000000000000000000000000014
:107F980000000000000000000000000000000000D9
:107FA80000005A4F293CED8A543E0F70103F0000E4
:107FB8000000C4FF7F3F80EFFFBE90E1A93EEC8246
:107FC80076BE82AD2B3E0E3CC3BD87D1133D4178B2
:107FD800D3BB54363030345452205665722E343167
:107FE800004E6F7620303220323031360020253373
:087FF8002E326620202000005B
:020000040020DA
:08000000FFFFFFFFFFFFFFFF00
:020000040030CA
:0E000000FF061F16FF8381FF0FC00FE00F40A9
:0200000400F00A
:100000003700000000008FC2953F9DC65842D6E2DF
:1000100037C1CF3D8EBEAC874CBE04C2F33DA0DCE1
:10002000BA3C9012DABBA23C5542E9602EC11FC116
:100030002BBDAE3BA7BECEE04E3C967CC83C169C8A
:10004000AA3BBFDD5442A85228C130270DBEB528B7
:10005000A5BEA13D873C0D4ADE3C609A7E3B798F70
:1000600065426F2F31C160D379BCEA0E98BE29E694
:1000700074BD9697783C2FF80B3C94FB524262ADCE
:100080002CC1CA5429BE5B56BEBEE4C7903B9470D7
:100090000E3DF73EDA3B794951424E972AC10B6437
:1000A00039BEF88DAFBE339A883C4A1E073DDF3A11
:1000B000A43B000000000000000000000000000061
:1000C0000000000000000000000000000000000030
:1000D0000000000000000000000000000000000020
:1000E0000000000000000000000000000000000010
:1000F0000000000000000000000000000000000000
:00000001FF
