:0400000033EF00F0EA
:10000800D9CF1EF0DACF1FF0F3CF20F020ED05F0A6
:10001800D8CF02F0E8CF03F0E0CF04F0D9CF05F055
:10002800DACF06F0F2A410D0FD0ED76E8F0ED66E82
:100038000001CF4BD02B00F0472A140E476403D0A1
:10004800476A71EC11F0F29406C0DAFF05C0D9FFD7
:1000580004C0E0FF03C0E8FF02C0D8FF100034EF7F
:1000680013F00101B16FA5EF04F0B051250A1CE0AF
:10007800B9EC04F013E0B151D96EDA6A020ED92650
:1000880002D8A5EF04F00500FA6EDE50FD6EDE50D2
:10009800FE6EF850FF6EFA50B0511200ADEC04F04D
:1000A800B0C1DFFF9FEF04F0A66BA76BA46BA56B35
:1000B8000001F0EC04F065EC16F02FE30101A66BEB
:1000C800A76BA6C126F0A7C127F0296A0A0E286ED9
:1000D800C0EC15F026C0A6F127C0A7F1D00E00018C
:1000E800B76FB869F0EC04F0B96FBA6BB751B927BC
:1000F800B851BA23B9510101A6270001BA5101012B
:10010800A7230001B44BB52BB4C0F6FFB5C0F7FF69
:100118000800F55065EC16F0D4E2F0EC04F02E0A75
:1001280028E10101A58D0001B44BB52B0101AE6B8F
:10013800AF6B18D0AEC126F0AFC127F0296A0A0EFE
:10014800286EC0EC15F0F0EC04F02626000E2722ED
:10015800D00E26240101AE6FFF0E2720AF6F0001DD
:10016800B44BB52B0001F0EC04F065EC16F008E395
:10017800E1D70101AE6BAF6BA58902D0A58508D088
:10018800F7EC04F0B05101E1E0D3660AF7E0D9D307
:10019800070EA51501E126D3A5A903D0AF6B060E5E
:1001A800AE6F0001B651D96EDA6ADFCFB7F0040E30
:1001B800DF26B751D96EDA6A0101DECFAAF1DECFA8
:1001C800ABF1DECFACF1DECFADF1ADAF14D0AAC14B
:1001D80026F0ABC127F0ACC128F0ADC129F00CEC7A
:1001E80016F026C0AAF127C0ABF128C0ACF129C08F
:1001F800ADF1030EA413A86BA96B21EEAAF0DE5093
:10020800DE10DE10DE106AE0AC35AD35820FA86F67
:10021800A96BFF0EA923A807D8A0A907A8C126F093
:10022800A9C127F0296A030E286EC0EC15F026C074
:10023800A8F127C0A9F1A8C12CF0A9C12DF02F6AF7
:100248000A0E2E6ED7EC0FF02CC0A8F12DC0A9F124
:10025800E7DB000ED8B4A85D03E2A807D8A0A90779
:10026800A85100084AEC08F08FC09BF190C09CF19F
:1002780091C09DF192C09EF19BC180F09CC181F01C
:100288009DC182F09EC183F0AAC184F0ABC185F004
:10029800ACC186F0ADC187F016EC0DF080C09BF1C3
:1002A80081C09CF182C09DF183C09EF1A8DB800EC5
:1002B8002C6E3F0E2D6E88EC13F005E20101A807A5
:1002C800D8A0A9070BD09BDB200E2C6E410E2D6EFB
:1002D80088EC13F003E30101A84BA92B0101AF51EE
:1002E800800AF36E800EF35C0D0ED8B4AE5D1DE28D
:1002F800AAC1A0F0ABC1A1F0ACC1A2F0ADC1A3F0FE
:10030800AE5141EC0BF08FC0A4F090C0A5F091C0A5
:10031800A6F092C0A7F074EC0AF0A0C0AAF1A1C0A0
:10032800ABF1A2C0ACF1A3C0ADF17ADB0A0ED8B430
:10033800A85D26E221EEAAF0DE50DE10DE10DE1007
:100348006DE0AAC198F0ABC199F0ACC19AF0ADC10B
:100358009BF06DEC0EF098C0B7F099C0B8F09AC059
:10036800B9F09BC0BAF0BA51B711B811B91156E13A
:100378000101A951800A800F020ED8B4A85D4EE38E
:100388009BC126F09CC127F09DC128F09EC129F091
:100398005F0E2A6E700E2B6E890E2C6E400E2D6E1F
:1003A80088EC13F003E20101F70E02D00101F80E08
:1003B800A827FF0EA923A8514AEC08F08FC09BF18B
:1003C80090C09CF191C09DF192C09EF1AAC126F007
:1003D800ABC127F0ACC128F0ADC129F09BC12AF010
:1003E8009CC12BF09DC12CF09EC12DF095EC0CF01A
:1003F80026C08FF127C090F128C091F129C092F151
:100408008FC19FF190C1A0F191C1A1F192C1A2F158
:100418000101AA6BAB6BAC6BAD6B39D0AAC198F07C
:10042800ABC199F0ACC19AF0ADC19BF06DEC0EF088
:1004380098C09FF199C0A0F19AC0A1F19BC0A2F108
:10044800AAC1ACF0ABC1ADF0ACC1AEF0ADC1AFF07C
:100458009FC130F0A0C131F0A1C132F0A2C133F088
:1004680007EC15F030C0B0F031C0B1F032C0B2F0D6
:1004780033C0B3F037EC14F0ACC0AAF1ADC0ABF1A7
:10048800AEC0ACF1AFC0ADF10101A86BA96B010E14
:10049800B06F98DAF5509F5D0900F550A059090032
:1004A800F550A1590900F550A25904E3B02BB051F9
:1004B8000A0AEFE1B0C1B7F00001B86BB7BFB807DF
:1004C8000101AE510001B7270101AF510001B82366
:1004D8000101A8510001B7270101A9510001B82362
:1004E800B7510101A65F0001B8510101A75BAF51E7
:1004F800AE1103E0A607D8A0A707A4C1B7F0030E62
:100508000001B7171CE00101A607D8A0A70717D05C
:100518002CDA11E0B151D96EDA6A020ED92601D867
:10052800F2D70500FA6EDE50FD6EDE50FE6EF85012
:10053800FF6EFA50200C0DDA200E1FDAE4D7010105
:10054800A75175DAD8B4A65DE3E2A4C1B7F0030EEB
:100558000001B7174EE0010108DA11E0B151D96E78
:10056800DA6A020ED92601D844D00500FA6EDE50A8
:10057800FD6EDE50FE6EF850FF6EFA502D0CE9D974
:100588002D0E36D002DAB0EC11F026C093F127C058
:1005980094F128C095F129C096F193C126F094C131
:1005A80027F095C128F096C129F034DAEBEC11F068
:1005B80026C093F127C094F128C095F129C096F17F
:1005C800D4D913E0B151D96EDA6A020ED92601D80E
:1005D80010D00500FA6EDE50FD6EDE50FE6EF8504B
:1005E800FF6EFA509351300F1200B3D99351300F68
:1005F800C4D90101B007B0291BE0C4D7B6D911E0AE
:10060800B151D96EDA6A020ED92601D80DD005008B
:10061800FA6EDE50FD6EDE50FE6EF850FF6EFA5038
:10062800300C97D9300EA9D90101A807D8A0A9077D
:10063800A951FDD9D8B4A85DE1E2AF51800A800F75
:10064800090ED8B4AE5D03E3080EB06F02D0AEC198
:10065800B0F1B051AE5F000EB0BFFF0EAF5BB0514E
:1006680016E083D911E0B151D96EDA6A020ED926A3
:1006780001D80DD00500FA6EDE50FD6EDE50FE6E1C
:10068800F850FF6EFA502E0C64D92E0E76D901015F
:10069800B0514AEC08F08FC08BF190C08CF191C03A
:1006A8008DF192C08EF1AAC184F0ABC185F0ACC1C6
:1006B80086F0ADC187F08BC180F08CC181F08DC10F
:1006C80082F08EC183F016EC0DF080C098F081C0E6
:1006D80099F082C09AF083C09BF06DEC0EF098C040
:1006E8009FF199C0A0F19AC0A1F19BC0A2F156D088
:1006F8004CD9B0EC11F026C097F127C098F128C06A
:1007080099F129C09AF197C126F098C127F099C1AB
:1007180028F09AC129F07ED9EBEC11F026C097F1A8
:1007280027C098F128C099F129C09AF11ED913E081
:10073800B151D96EDA6A020ED92601D810D0050057
:10074800FA6EDE50FD6EDE50FE6EF850FF6EFA5007
:100758009751300F1200FDD89751300F0ED99FC115
:1007680026F0A0C127F0A1C128F0A2C129F00101FB
:1007780029D9F5CF2AF00900F5CF2BF00900F5CFDC
:100788002CF00A00F5CF2DF0EBEC11F026C09FF10C
:1007980027C0A0F128C0A1F129C0A2F10101B0072A
:1007A800B0291BE0A5D7E1D811E0B151D96EDA6ABA
:1007B800020ED92601D80DD00500FA6EDE50FD6E66
:1007C800DE50FE6EF850FF6EFA50300CC2D8300E74
:1007D800D4D80101AE07D8A0AF07AF51AE1101E1DF
:1007E800B0D0E1D7AF51AE1107E1A2519F11A011CE
:1007F800A11102E1AE4BAF2B800EB0BF7F0E0001FE
:10080800B76F0101AE51B05DAF51800A0001B75911
:1008180003E2AEC1B0F114D00101AF51800A00016A
:10082800B76F0101B051AE5D800EB0BF7F0E000101
:10083800B75906E20101B051AE6FAF6BAEBFAF075B
:100848000101A751A6110AE0A4C1B7F0030E0001E7
:10085800B71704E00101A607D8A0A7070101A5ADB5
:1008680015D0AF51800A0001B76F0101A651AE5DE6
:10087800A751800A0001B75906E20101AE51A65FEF
:10088800AF51A75B03D00101A66BA76B800EB0BF69
:100898007F0E0001B76F0101A651B05DA751800A14
:1008A8000001B75908E20101B051A65F000EB0BFC0
:1008B800FF0EA75B03D00101A66BA76BA751A6117A
:1008C8001DE053D811E0B151D96EDA6A020ED9266B
:1008D80001D80DD00500FA6EDE50FD6EDE50FE6EBA
:1008E800F850FF6EFA50200C34D8200E46D801017B
:1008F800A607D8A0A707A751A611E3E1A4C1B7F09E
:10090800030E0001B7171DE001012FD811E0B15106
:10091800D96EDA6A020ED92601D813D00500FA6E0C
:10092800DE50FD6EDE50FE6EF850FF6EFA502D0C54
:1009380010D82D0EDF6EB151D96EDA6ADE2A000E9C
:10094800DD2251D8B06739EF00F00001B46BB56B08
:100958001200B151D96EDA6ADECFB7F0DDCFB8F048
:10096800B7C0D9FFB8C0DAFF1200B151D96EDA6A40
:10097800020ED926DE50DD101200DF6EB151D96E9D
:10098800DA6ADE2A000EDD22000C9FC126F0A0C123
:1009980027F0A1C128F0A2C129F0B051040D840E9E
:1009A800F324F66E7F0EF420F76E0900F5CF2AF0D7
:1009B8000900F5CF2BF00900F5CF2CF00A00F5CF90
:1009C8002DF01200B051040D840EF324F66E7F0E44
:1009D800F420F76E09001200B4C0F6FFB5C0F7FFA7
:1009E8000800F55012000001B4C0F6FFB5C0F7FFCB
:1009F800B44BB52B0800F5CFB0F1010112009BC133
:100A080026F09CC127F09DC128F09EC129F02A6AD2
:100A18002B6A12000A0E2A6E2B6A2C6A2D6A000CA9
:100A28000101A951800AF36E800EF35C1200800A5E
:100A3800F36E800EF35C010C0600F4CF21F0F6CFC4
:100A480022F0F7CF23F0F8CF24F0F5CF25F09EAAB7
:100A5800B8D100F034EC15F00101206F2051EA0AFA
:100A6800D8B4FF002051550AD8B4ABB4A6D1ABB264
:100A7800A4D14F5001E0A1D134EC15F00101216F50
:100A8800ABA4ABB29AD14F5001E097D186D1020EF8
:100A9800486E060E486401D013D00101200E482488
:100AA800D96EDA6A010EDA2234EC15F0DF6EABA4E7
:100AB800ABB283D14F5001E080D100F0482AE9D78A
:100AC800070E486E11D0200E4824D96EDA6A010E3E
:100AD800DA2234EC15F0DF6EABA4ABB26ED14F5016
:100AE80001E06BD100F0482A01012651196E1A6AFB
:100AF800090E1926000E1A2248501B6E1C6A1C503B
:100B0800800A1D6E19501B5C1A50800A1D58DBE3C1
:100B1800010E106E200E0F6E2651070F116EACECF1
:100B280012F0000901E149D1070E496E23C148F0CE
:100B380013D0F5EC16F048C007F0086A0101200E42
:100B48004924D96EDA6A010EDA22DF50096E54ECB4
:100B580014F000F0492A482A0101235126C119F04E
:100B68001A6A1926000E1A2248501B6E1C6A1C505D
:100B7800800A1D6E19501B5C1A50800A1D58D9E353
:100B8800520EDDEC16F0486A050E486401D011D00B
:100B98000101200E4824D96EDA6A010EDA22DF50EC
:100BA800076E520E1CEC12F08BEC16F000F0482A7F
:100BB800EBD752C00AF053C00BF0A2EC16F0FDD0F0
:100BC800020E486E070E486401D013D00101200EB2
:100BD8004824D96EDA6A010EDA2234EC15F0DF6E99
:100BE800ABA4ABB2EAD04F5001E0E7D000F0482AFE
:100BF800E9D700F00101010E106E200E0F6E060EEF
:100C0800116EACEC12F00009D4E0520EDDEC16F0D7
:100C1800550E076E520E1CEC12F08BEC16F0410EBE
:100C2800076E520E1CEC12F08BEC16F001012351EA
:100C380022C119F01A6A19C01AF0196A1910436EFC
:100C48001A50446E255124C119F01A6A19C01AF0B5
:100C5800196A1910456E1A50466E49C007F0520EAF
:100C68001CEC12F08BEC16F04328D8B44428A1E011
:100C7800434A442A4350455C445046589AE3EDD7CA
:100C8800020E486E070E486401D013D00101200EF1
:100C98004824D96EDA6A010EDA2234EC15F0DF6ED8
:100CA800ABA4ABB28AD04F5001E087D000F0482AFD
:100CB800E9D700F00101010E106E200E0F6E060E2E
:100CC800116EACEC12F0000901E173D7520EDDECA5
:100CD80016F0550E076E520E1CEC12F08BEC16F047
:100CE800030E076E520E1CEC12F08BEC16F0020E7F
:100CF80001012503F350256F25C107F0520E1CECA6
:100D080012F08BEC16F023C148F00ED048C007F063
:100D1800086AB6EC16F0496E49C007F0520E1CEC92
:100D280012F08BEC16F0482A0101235125C119F065
:100D38001A6A1926000E1A2248501B6E1C6A1C508B
:100D4800800A1D6E19501B5C1A50800A1D5801E359
:100D580030D7DCD7520EDDEC16F0550E076E520E6A
:100D68001CEC12F08BEC16F0440E076E520E1CECC5
:100D780012F08BEC16F0550E076E520E1CEC12F0AA
:100D88008BEC16F016D7EEEC10F017D07F0E0B6E2A
:100D9800DF0E0A6EF9EC15F010D02151030A01E1BB
:100DA8006FD7130A01E173D6510A01E109D7050A81
:100DB800D1E0010AE8E00D0AE9E09E9AAB9800F05C
:100DC800AB8825C0F5FF24C0F8FF23C0F7FF22C079
:100DD800F6FF21C0F4FF20C0F3FF1FC0DAFF1EC0DA
:100DE800D9FF1100CFD0010E4A6ED4D0040E1EECEC
:100DF80016F000090FE081AE05D0020E4A6EA3EC92
:100E080014F008D04C6603D0010E4C6E03D04C048D
:100E1800D8B44C6A020E1EEC16F0000948E081AE08
:100E280007D0000E8AEC0FF0020E7FEC16F03FD0D0
:100E38004C6614D0C8C028F01AD9D3EC15F0D8D80D
:100E4800320EA76F74EC0AF0A0C0CAF0EFD81EECFF
:100E580015F0A1D814D916EC0DF017D04C0416E1F2
:100E6800FDD8D3EC15F0CAC0A0F0D2D83A0EA76FBF
:100E780074EC0AF0ADD81EEC15F08DD8856B7A0E9F
:100E8800866F440E876F16EC0DF0DFD8000E2E6AC1
:100E98005EEC13F08BD8D7EC14F00101010E2F6E25
:100EA800690E2E6EAEEC13F0FA0E5EEC15F0030E22
:100EB8001EEC16F000096EE081AE07D0010E8AEC38
:100EC8000FF0040E7FEC16F065D04C6614D0C8C045
:100ED80028F0CDD8D3EC15F08BD8B20EA76F74ECF0
:100EE8000AF0A0C0CAF0A2D81EEC15F054D8C7D892
:100EF80016EC0DF017D04C0416E1B0D8D3EC15F071
:100F0800CAC0A0F085D8BA0EA76F74EC0AF060D8F2
:100F18001EEC15F040D8856B7A0E866F440E876FED
:100F280016EC0DF092D8000E2E6A5EEC13F03ED847
:100F3800D7EC14F00101010E2F6E690E2E6EAEEC87
:100F480013F0FA0E5EEC15F025D0040E1EEC16F028
:100F5800000902E0010E4A6E020E1EEC16F00009AE
:100F680006E0050E4E5CD8A04E2AA3EC14F0030E42
:100F78001EEC16F000090EE04E50D8A44E06A3EC65
:100F880014F008D04A5001E12ED7010A01E12ED70A
:100F9800030ADBE01200CAC080F0CBC081F0CCC0ED
:100FA80082F0CDC083F00001846B1200010E0001B5
:100FB800BC6F690EBB6F7F0EBE6FEB0EBD6FCAC0F4
:100FC800BFF0CBC0C0F0CCC0C1F0CDC0C2F01200A1
:100FD800A0C0CAF0A1C0CBF0A2C0CCF0A3C0CDF095
:100FE8002B6A020E2A6ECA0E2C6E040E2D6E040C8D
:100FF800CAC0A0F0CBC0A1F0CCC0A2F0CDC0A3F075
:10100800770E0001A46FCC0EA56F2B0EA66F2B0CCC
:10101800CBC0A1F0CCC0A2F0CDC0A3F06F0E0001F0
:10102800A46F120EA56F830EA66F830CA1C0CBF020
:10103800A2C0CCF0A3C0CDF0C8C02AF0C9C02BF024
:10104800CA0E2C6E040E2D6E040C80C0CAF081C02E
:10105800CBF082C0CCF083C0CDF01200296A020E1A
:10106800286E0001CA0E2A6E040E2B6E040CC9C02D
:1010780029F00001CA0E2A6E040E2B6E040C240EF1
:10108800856F740E866F490E876F490C0001976F44
:1010980097AF64D0976D9751800A120F37E32F6A84
:1010A8000A0E2E6E296A640E2DD926BE2706ACECD0
:1010B80010F026C02CF027C02DF0D7EC0FF0E8D8A0
:1010C800EB0E2C24F66E7E0EDAD8C1D82F6A640E89
:1010D8001ED92CBE2D06D7EC0FF0D89002D9EB0EF6
:1010E8002C24F66E7E0ECBD8BED816EC0DF0E2D8C6
:1010F80026BE2706ACEC10F0D6D8EB0E2624F66EEA
:101108007E0EC2D8A4D816EC0DF083D09751800A71
:10111800750F1DE32F6A0A0EFAD82CBE2D06D7ECE0
:101128000FF0B6D8EB0E2C24F66E7E0EA8D89BD8FE
:10113800E2D826BE2706ACEC10F0B5D8EB0E262474
:10114800F66E7E0EA1D883D816EC0DF062D09751BA
:10115800040DEB0EF324F66E7E0E6AD09751800ACA
:10116800120F37E32F6A0A0E2E6E296A640ECAD848
:1011780026BE2706ACEC10F026C02CF027C02DF0B8
:10118800D7EC0FF085D81F0E2C24F66E7F0E77D87B
:101198005ED82F6A640EBBD82CBE2D06D7EC0FF094
:1011A800D8909FD81F0E2C24F66E7F0E68D85BD877
:1011B80016EC0DF07FD826BE2706ACEC10F073D8DD
:1011C8001F0E2624F66E7F0E5FD841D816EC0DF060
:1011D80020D09751800A750F25E32F6A0A0E97D8F9
:1011E8002CBE2D06D7EC0FF053D81F0E2C24F66E0C
:1011F8007F0E45D838D87FD826BE2706ACEC10F02D
:1012080052D81F0E2624F66E7F0E3ED820D816EC34
:101218000DF080C08FF081C090F082C091F083C043
:1012280092F014D09751040D1F0EF324F66E7F0E22
:10123800F420F76E0900F5CF8FF00900F5CF90F094
:101248000900F5CF91F00A00F5CF92F01200F5CF22
:1012580084F00900F5CF85F00900F5CF86F00A0083
:10126800F5CF87F01200F5CF80F00900F5CF81F0B7
:101278000900F5CF82F00A00F5CF83F012002D2087
:10128800F76E0900000112002720F76E090012000E
:10129800D8902C362D36D8902C362D36240E2C2668
:1012A800000E2D22000CD89026362736D8902636E8
:1012B8002736120080C093F081C094F082C095F068
:1012C80083C096F093C080F094C081F095C082F0FE
:1012D80096C083F0296A0A0E286E9751266E276AEF
:1012E80012002C362D36D8902C362D36480E2C264A
:1012F800000E2D22000C296A0A0E286E9751266EC0
:10130800276A1200286E9751266E276A12002E6EE1
:1013180097512C6E2D6A12000001C26B900EC36F9C
:10132800620EC46F450EC56F000E21EC10F0C3D8D5
:1013380054EC16F000F0CD0E0001C26F5C0EC36FC6
:10134800B90EC46F440EC56F010E21EC10F0B3D86E
:1013580054EC16F000F0CD0E0001C26F4C0EC36FB6
:10136800100EC46F440EC56F020E21EC10F0C2C0FF
:1013780054F0C3C055F0C4C056F0C5C057F000F0D3
:101388000001C26B800EC36FB40EC46F430EC56FED
:10139800030E21EC10F0C2C054F0C3C055F0C4C015
:1013A80056F0C5C057F000F0660E0001C26FC36F5B
:1013B800DD0EC46F420EC56F040E21EC10F0C2C0E2
:1013C80054F0C3C055F0C4C056F0C5C057F000F083
:1013D8000001C26BFC0EC36F3D0EC46F460EC56F95
:1013E800050E21EC10F0C2C054F0C3C055F0C4C0C3
:1013F80056F0C5C057F000F0896A8A6A8B6AC26ADB
:101408000F0EC16EC06ECFEC16F0320E926E430E08
:10141800936E100E946E7F0E2A6EF50E296E9AEC5E
:1014280015F0070E4AEC15F0F19EF19CF19AF08C3C
:10143800F096F298F292F090C76A310EC66E830E5B
:10144800D56EF194F28AF28C9D8A9F8AD08EF7EC41
:1014580013F0010EEFEC14F0800EEFEC14F07DECBD
:1014680012F0010EEFEC14F0800EEFEC14F0000E09
:101478002E6A5EEC13F07F0E2F6ED00E2E6EE6EC09
:1014880015F0020E2E6E000E5EEC13F0000158806F
:1014980097EC16F0F28E7F0E2A6EF50E296E9AECF6
:1014A80015F00400F6EC06F009EC13F069EC10F006
:1014B80018EC14F0F0D7C2C054F0C3C055F0C4C043
:1014C80056F0C5C057F07F0EBC6FFB0EBB6F54C003
:1014D800BDF055C0BEF056C0BFF057C0C0F01200F6
:1014E800A0C0A8F0A1C0A9F0A2C0AAF0A3C0ABF008
:1014F800180E01D0BCD8E82EFDD7A8513B6EA4C069
:10150800A8F0A5C0A9F0A6C0AAF0A7C0ABF0180E15
:1015180001D0ADD8E82EFDD7A8513A6E3B5009E06E
:101528003A503B5C0FE23B503A5CA86F210EA85D35
:1015380009E3A4C0A0F0A5C0A1F0A6C0A2F0A7C06E
:10154800A3F08BD03A5009E03B503A5C0FE23A5096
:101558003B5CA86F210EA85D09E3A0C0A0F0A1C064
:10156800A1F0A2C0A2F0A3C0A3F077D0060E396EF6
:10157800A3BF398EA7BF398CA28FA36BA68FA76B89
:101588003A503B5C1AE2D890A437A537A637A7375C
:101598003A063A503B180DE0390639C0A8F0070E54
:1015A800A81707E0F0D7D890A333A233A133A0330C
:1015B8003B2A3A503B62F7D71CD03B503A5C19E2C1
:1015C800D890A037A137A237A3373B063A503B182B
:1015D8000DE0390639C0A8F0070EA81707E0F0D7C4
:1015E800D890A733A633A533A4333A2A3A503B629E
:1015F800F7D739AE09D0A01FA11FA21FA31FA02B88
:10160800000EA123A223A32339AC02D0A41F26D8FD
:10161800396AA051A427A151A523A251A623A351F9
:10162800A723A7AF04D0A41F19D8010E396EA4C0F0
:1016380026F0A5C027F0A6C028F0A7C029F03BC017
:101648002AF039C02BF0CFEC0EF026C0A0F027C04E
:10165800A1F028C0A2F029C0A3F01200A51FA61F60
:10166800A71FA42B000EA523A623A723000CD89000
:10167800AB33AA33A933A833120000019F6F6D0E54
:101688009F6550D00A0E2A6E640E266E9F51ADECEF
:1016980015F089EC14F0A3D8240E9327000E942398
:1016A8008BD82BEC09F0640E2A6E9F5189EC14F04C
:1016B8009FD8480E89D837EC09F016EC0DF080C099
:1016C8009BF081C09CF082C09DF083C09EF00A0E02
:1016D800266E9F51ADEC15F082D86ED82BEC09F030
:1016E8009BC080F09CC081F09DC082F09EC083F0BA
:1016F80016EC0DF080C097F081C098F082C099F088
:1017080083C09AF097C080F098C081F099C082F0A9
:101718009AC083F0846B856B866B3F0E876F16ECDF
:101728000DF041D00A0E9F652CD0266E9F51ADEC6E
:1017380015F055D841D82BEC09F00A0E2A6E9F51A6
:1017480089EC14F055D8240E3FD837EC09F016EC84
:101758000DF080C09BF081C09CF082C09DF083C0DA
:101768009EF09BC080F09CC081F09DC082F09EC01E
:1017780083F0846B856B866B3F0E876F16EC0DF0DC
:1017880012D09F51040DEB0EF324F66E7E0EF4205A
:10179800F76E090037EC09F0846B856B866B3F0E9A
:1017A800876F16EC0DF080C08FF081C090F082C07A
:1017B80091F083C092F01200EB0E9325F66E7E0E28
:1017C8009421F76E090012009527000E9623EB0E60
:1017D8009525F66E7E0E9621F76E09001200936F1E
:1017E800946BD89093379437D890933794371200E6
:1017F800956F966BD89095379637D89095379637DA
:101808001200BFBF07D020EEBCF0DE50DE10DE10A5
:10181800DE1005E1BC6BBD6BBE6BBF6B81D0846B0A
:10182800856B866B400E876FC00E2A6EBCC026F093
:10183800BDC027F0BEC028F0BFC029F030EC11F0C1
:1018480026C080F027C081F028C082F029C083F02C
:1018580016EC0DF080C0A0F081C0A1F082C0A2F00B
:1018680083C0A3F0A46BA56B800EA66FBF0EA76FF5
:1018780074EC0AF0A0C0BCF0A1C0BDF0A2C0BEF0DC
:10188800A3C0BFF0C007D8A0C107BCC0ACF0BDC0A2
:10189800ADF0BEC0AEF0BFC0AFF07F0EB16FAC0E02
:1018A800B06FB36B080EB26F03EC0EF0ACC0BCF0B7
:1018B800ADC0BDF0AEC0BEF0AFC0BFF0180E846FB3
:1018C800720E856F310E866F3F0E876FC0C030F085
:1018D800C1C031F0D3EC13F030C080F031C081F0DA
:1018E80032C082F033C083F016EC0DF080C0A0F057
:1018F80081C0A1F082C0A2F083C0A3F0BCC0A4F054
:10190800BDC0A5F0BEC0A6F0BFC0A7F074EC0AF039
:10191800A0C0BCF0A1C0BDF0A2C0BEF0A3C0BFF083
:10192800120026C02EF027C02FF028C030F029C0A2
:1019380031F0180E01D070D8E82EFDD72E50376E32
:10194800376605D0266A276A286A296A64D02AC0B9
:101958002EF02BC02FF02CC030F02DC031F0180E17
:1019680001D05AD8E82EFDD72E50366E366601D0F3
:10197800E9D7288E296A2C8E2D6A326A336A346A2E
:10198800356A7F0E375E3650A00F375E200E366EF2
:10199800D89032363336343635362A50265C2B50BA
:1019A80027582C5028582D50295809E32A50265ECC
:1019B8002B50275A2C50285A2D50295A3280D8900B
:1019C8002636273628362936362EE2D737AE0FD0B8
:1019D8003750800A2E6EE10E800A2E5CB3E3D89051
:1019E8003532343233323232373EF9D70CD01F0E0B
:1019F800376407D0A7D7D8903236333634363536E1
:101A080037063766F8D732C026F033C027F034C01F
:101A180028F035C029F01200D890313230322F32F8
:101A28002E321200000180C035F081C036F082C02D
:101A380037F083C038F0180E01D06FD8E82EFDD7E4
:101A48003550886F0001886701D012D084C035F006
:101A580085C036F086C037F087C038F0180E01D040
:101A68005CD8E82EFDD735508E6F00018E6705D003
:101A7800806B816B826B836B40D08E517B0F882784
:101A880083C08EF087518E1B800E8E17828F868FB3
:101A9800876B896B8A6B8B6B8C6B070E8D6F80A144
:101AA80002D084512BD832D8843785378637873788
:101AB8008D2FF5D7110E8D6F80A102D084511ED8BD
:101AC80025D88C338B338A3389338D2FF5D789C04A
:101AD80026F08AC027F08BC028F08CC029F088C077
:101AE8002AF08EC02BF0CFEC0EF026C080F027C075
:101AF80081F028C082F029C083F01200892785511F
:101B08008A2386518B2387518C231200D8908333E4
:101B1800823381338033D8901200D89038323732EC
:101B280036323532120028C02CF02D6A2E6A27343E
:101B38002C3601E32D802C50346E346605D0266A8D
:101B4800276A286A296A5AD02BC02CF02D6A2E6A77
:101B58002A342C3601E32D802C50336E336601D0A5
:101B6800EED7278E286A2A8E2B6A2F6A306A316A46
:101B7800326A7F0E345E3350980F345E180E336E1F
:101B8800D8902F363036313632362950265C2A50D6
:101B980027582B50285807E32950265E2A50275AE1
:101BA8002B50285A2F80D890263627362836332EA1
:101BB800E7D734AE0FD03450800A2C6EE90E800A75
:101BC8002C5CBDE3D8903232313230322F32343E81
:101BD800F9D70CD0170E346407D0B1D7D8902F3668
:101BE80030363136323634063466F8D72FC026F010
:101BF80030C027F031C028F032C029F01200B2C03E
:101C0800B4F0B3C0B5F051D8F5CFB8F00900F5CFAE
:101C1800B9F00900F5CFBAF00A00F5CFBBF039D01A
:101C2800B8C084F0B9C085F0BAC086F0BBC087F0F0
:101C3800ACC080F0ADC081F0AEC082F0AFC083F020
:101C480016EC0DF080C0A0F081C0A1F082C0A2F017
:101C580083C0A3F020EEB2F0DE06000EDD5ADECF20
:101C6800B4F0DDCFB5F021D8F5CFA4F00900F5CF59
:101C7800A5F00900F5CFA6F00A00F5CFA7F074EC9F
:101C88000AF0A0C0B8F0A1C0B9F0A2C0BAF0A3C0D1
:101C9800BBF0B351B211C4E1B8C0ACF0B9C0ADF0FB
:101CA800BAC0AEF0BBC0AFF01200D890B437B537A9
:101CB800D890B437B537B0C0B6F0B1C0B7F0B451AA
:101CC800B627B551B723B6C0F6FFB7C0F7FF09006E
:101CD8001200000198C09CF099C09DF09AC09EF037
:101CE8009BC09FF0180E01D050D8E82EFDD79C510C
:101CF8003A6E3A6606D00001986B996B9A6B9B6BAB
:101D080043D0000198C09CF099C09DF09AC09EF005
:101D18009BC09FF0200E01D038D8E82EFDD79C51EB
:101D2800396E9A8F9B6B960E3A5E3AAE0FD03A5048
:101D3800800A9C6FE90E800A9C5DDDE3D8909B3396
:101D48009A33993398333A3EF9D70CD01F0E3A6438
:101D580007D0D1D7D890983799379A379B373A0612
:101D68003A66F8D7395008E09B1F9A1F991F986D5B
:101D7800000E99239A239B2398C098F099C099F054
:101D88009AC09AF09BC09BF01200D8909F339E3364
:101D98009D339C3312002A5005E029502610271045
:101DA800281007E1266A276A286A296A4BD02A2A56
:101DB8004AD82C6A2D6A2E6AFE0E29142F6E2F50CF
:101DC8002C102D102E1008E0F2D72A2A262A000EF1
:101DD80027222822292237D82C6A2D6A2E6A2950D0
:101DE8002F6E2F502C102D102E1007E0EED72A063C
:101DF800D890263627362836293628AEF8D72AB07E
:101E080002D07F0E2816D8902A322AC02CF02D6ACC
:101E18002E6A2F6A2CC02FF02E6A2D6A2C6A2C503D
:101E280026122D5027122E5028122F5029122B50CF
:101E3800D8A4298E26C026F027C027F028C028F06D
:101E480029C029F01200D8902932283227322632A8
:101E58001200BC6BBD6BBE6BBF6BC06BB80E286E3F
:101E6800AC5172EC15F0C0C093F0AEC08FF0AFC0AB
:101E780090F0B0C091F0B1C092F04DEC12F08FC06C
:101E8800B4F090C0B5F091C0B6F092C0B7F0BCC045
:101E9800A0F0BDC0A1F0BEC0A2F0BFC0A3F0B8C002
:101EA80084F0B9C085F0BAC086F0BBC087F0B4C072
:101EB80080F0B5C081F0B6C082F0B7C083F016ECF0
:101EC8000DF080C0A4F081C0A5F082C0A6F083C048
:101ED800A7F074EC0AF0A0C0BCF0A1C0BDF0A2C08D
:101EE800BEF0A3C0BFF0040EAC27000EAD23C02B7C
:101EF800C005B36FB251B35DB1E3BCC0ACF0BDC0B7
:101F0800ADF0BEC0AEF0BFC0AFF01200316E010E32
:101F1800EFEC14F0800EEFEC14F031663ED02E6A30
:101F2800010E5EEC13F0310EBDEC14F02E6A090EB2
:101F38005EEC13F0320EBDEC14F0010E2E6E5EEC6A
:101F480013F0330EBDEC14F0010E2E6E090E5EEC8C
:101F580013F0340EBDEC14F0020E2E6E010E5EEC82
:101F680013F0350EBDEC14F0020E2E6E090E5EEC69
:101F780013F0360EBDEC14F0030E2E6E010E5EEC5F
:101F880013F0370EBDEC14F0030E2E6E090E5EEC46
:101F980013F0380EBDEC14F005D0010E2E6E000EB5
:101FA8005EEC13F01200316A2F50800AF36E800E37
:101FB800F35C000ED8B42E5C06E22E6C2F1ED8B04F
:101FC8002F2A010E316E2D50800AF36E800EF35CBD
:101FD800000ED8B42C5C06E22C6C2D1ED8B02D2A2D
:101FE800010E311A326A336A2F502E101BE0010E8F
:101FF800306E04D0D8902E362F36302A2FAEFAD72E
:10200800D890323633362E502C5C2F502D5805E39D
:102018002E502C5E2F502D5A3280D8902F322E32CF
:10202800302EEED7315004E0326C331ED8B0332A4C
:1020380032C02CF033C02DF01200CE6FC2C0BCF0FD
:10204800C3C0BDF0C4C0BEF0C5C0BFF005EC0CF005
:10205800BCC0CAF0BDC0CBF0BEC0CCF0BFC0CDF094
:10206800CAC0A0F0CBC0A1F0CCC0A2F0CDC0A3F0F4
:10207800A46BA56BE00EA66FC00EA76F74EC0AF0F8
:10208800A0C0C6F0A1C0C7F0A2C0C8F0A3C0C9F0E4
:10209800CE511C0D0A0EF324AC6F000EF420AD6F68
:1020A800C6C0AEF0C7C0AFF0C8C0B0F0C9C0B1F08C
:1020B800060EB26F2DEC0FF0ACC0C2F0ADC0C3F08D
:1020C800AEC0C4F0AFC0C5F012003ED0000158A2A7
:1020D8003ED05892316A31C02EF0000E5EEC13F0FB
:1020E8000101010E2F6E690E2E6EAEEC13F0312A2F
:1020F800030E3164F0D781AE0BD02E6E080E5EEC65
:1021080013F0502A50A023D02E0EBDEC14F01FD08F
:10211800030E2E6E080E5EEC13F0502A50A003D06A
:10212800530EBDEC14F0020E2E6E080E5EEC13F08A
:102138004C6604D04B0EBDEC14F009D04C0407E1FA
:102148005A0EBDEC14F003D04A50010ABFE0120049
:102158002B6A2750800AF36E800EF35C000ED8B409
:10216800265C06E2266C271ED8B0272A010E2B6EA5
:102178002950800AF36E800EF35C000ED8B4285CF8
:1021880004E2286C291ED8B0292A2950281017E003
:10219800010E2A6E04D0D890283629362A2A29AE6C
:1021A800FAD72850265C2950275804E32850265E81
:1021B8002950275AD890293228322A2EF2D72B5064
:1021C80004E0266C271ED8B0272A26C026F027C090
:1021D80027F0120000F0520EDDEC16F0550E076ED7
:1021E800520E1CEC12F08BEC16F0450E076E520ED8
:1021F8001CEC12F08BEC16F00F6A0F50040DF35024
:102208000001D10F4D6E00F020D81CEC12F08BECC1
:1022180016F04D2A1AD81CEC12F08BEC16F04D2A49
:1022280014D81CEC12F08BEC16F04D2A0ED81CECCE
:1022380012F08BEC16F00F2A070E0F64DED752C08F
:102248000AF053C00BF0A2EF16F04D50D96EDA6ABF
:10225800DF50076E520E120020EE26F0DE50DE1020
:10226800DE10DE100BE12A50D96EDA6A000EDE6A43
:10227800DD6A266A276A286A296A2ED029507F0BC8
:102288002B6E2C6AD8902B362C362A50D96EDA6AE7
:102298002BC0DEFF2CC0DDFF2A50D96EDA6A010E92
:1022A80028AE000EDE12000EDD122A50D96EDA6A50
:1022B800820EDE26FF0EDD222980298229842986C6
:1022C8002988298A299C289E26C026F027C027F01D
:1022D80028C028F029C029F0120081A081B216D0A8
:1022E8004250411013E0010E596E5A6E414A422A7B
:1022F800650E415C000E42582EE3416A426A010EA7
:10230800C7EC16F0040EC7EC16F025D081B081A2F8
:1023180003D0426A010E416E425041101CE081B068
:1023280002D0596A0AD0596606D0010EC7EC16F0D9
:10233800020EC7EC16F0010E596E81B202D05A6A2D
:102348000AD05A6606D0010EC7EC16F0030EC7EC89
:1023580016F0010E5A6E12002E6A2F6A306A316A20
:102368002D502A102B102C1029E0010E326E06D0A9
:10237800D8902A362B362C362D36322A2DAEF8D761
:10238800D8902E362F36303631362A50265C2B50D0
:1023980027582C5028582D50295809E32A50265ED2
:1023A8002B50275A2C50285A2D50295A2E80D89015
:1023B8002D322C322B322A32322EE2D72EC026F082
:1023C8002FC027F030C028F031C029F012002D505E
:1023D8002A102B102C1023E0010E2E6E06D0D89058
:1023E8002A362B362C362D362E2A2DAEF8D72A50E3
:1023F800265C2B5027582C5028582D50295808E374
:102408002A50265E2B50275A2C50285A2D50295ACC
:10241800D8902D322C322B322A322E2EE8D726C0D5
:1024280026F027C027F028C028F029C029F012007C
:102438000E6E0E50D96EDA6A0750DE1A000EDD1ADB
:102448000D6A0E50D96EDA6ADF50010B0C6E0E5011
:10245800D96EDA6ADECF08F0DDCF09F0D8900930FE
:102468000B6E08300A6E0E50D96EDA6A0AC0DEFFAB
:102478000BC0DDFF0C5007E00E50D96EDA6A010E72
:10248800DE1AA00EDD1A0D2A070E0D64DAD70750E2
:102498001200000E0001946F956F800E966F3F0E2C
:1024A800976F936709D094C08FF095C090F096C04D
:1024B80091F097C092F01CD094C080F095C081F044
:1024C80096C082F097C083F08FC084F090C085F0EA
:1024D80091C086F092C087F016EC0DF080C094F0A1
:1024E80081C095F082C096F083C097F09307D9D742
:1024F80012002F6A480E2E6E2E50EFEC14F02E2A82
:10250800140E4B6E000100F000F000F000F000F037
:102518004B2F87EF12F0530E13D8BDEC14F02F2A6F
:10252800140E4B6E000100F000F000F000F000F017
:102538004B2F97EF12F0530E03D8D8B41200DCD704
:102548002F24F66EF76A7F0EF7220800F550120066
:10255800170EDDEC16F0166A0CD00FC0D9FF10C0AC
:10256800DAFFDF50076E170E1CEC12F00F4A102A24
:10257800162A1150165CF1E30FC0D9FF10C0DAFF1C
:102588000F4A102A1750DF6210D00FC0D9FF10C0B1
:10259800DAFFDF50126E18C013F013C014F0156A7A
:1025A8001450121802E1010E01D0000E1200000EA4
:1025B800F2BE010E276EF29E010ED6EC16F08D9437
:1025C8008D80010E4B6E000100F000F000F000F06D
:1025D80000F04B2FE8EF12F08D8400F000F000F0CF
:1025E80000F000F04B2FF1EF12F083CF28F000F04D
:1025F8008D948D90000ED6EC16F027A001D0F28EA7
:1026080027B001D0F29E285012005880000158A02F
:1026180026D051504AEC15F0960E5EEC15F0EFEC12
:1026280016F0F29E5150040D000EF324D96E010EDF
:10263800F420DA6E5150040DF350D10FE16EE26AC6
:10264800DECFE6FFDECFE6FFDECFE6FFDDCFE5FF3C
:10265800F28E512A070E5116589000015882120026
:1026680002EE00F0A00EEE6AE806FDE101EE00F0D1
:102678008B0EEE6AE806FDE100EECFF0220EEE6A60
:10268800E806FDE1586A00EE3CF0180EEE6AE8062E
:10269800FDE1F00EF66E2D0EF76E000EF86E0900D5
:1026A800F5CF59F00900F5CF5AF0000EF86E000189
:1026B80090EF09F0306E000EF2BE010E2F6EF29E02
:1026C80014D03050800FEFEC14F017D03050C00FFA
:1026D800EFEC14F012D03050900FEFEC14F00DD056
:1026E8003050D00FEFEC14F008D02E50EAE0010A79
:1026F800EDE0030AF0E0010AF3E02FA001D0F28E2A
:102708002FB001D0F29E120029AE09D0266C271EE8
:10271800D8B0272A281ED8B0282A800E29562DAED0
:1027280009D02A6C2B1ED8B02B2A2C1ED8B02C2AE4
:10273800800E2D56800E291A2D1A2A50265C2B50F1
:1027480027582C5028582D50295802E2D89001D0EB
:10275800D88012001CD0010EBDEC14F016D0020E69
:10276800BDEC14F012D02EC0D9FF2FC0DAFFDF5015
:10277800BDEC14F00AD02EC0D9FF2FC0DAFFDF500D
:10278800400AE9E01E0AEBE0EED72E4A2F2A2EC0B7
:10279800D9FF2FC0DAFFDF50D8B41200ECD7346A63
:1027A8003150800AF36E800EF35C000ED8B4305CB2
:1027B80005E2306C311ED8B0312A342A30C026F0F8
:1027C80031C027F0286A296A960E2A6E34C02BF089
:1027D800CFEC0EF026C030F027C031F028C032F020
:1027E80029C033F012009690969296948D928D940B
:1027F8008D90000ED6EC16F0380E8C6E2E6AC80E30
:102808005EEC15F030EC16F02E2A0A0E2E64F7D77F
:10281800380EEFEC14F0060EEFEC14F00C0EEFECA3
:1028280014F0010EEFEF14F0266A26503C0FD96E13
:10283800DA6A020EDF6205D026503C0FD96EDA6ADA
:10284800DF6A26503C0FD96EDA6A010EDF6206D0C5
:1028580026503C0FD96EDA6A020EDF6E262A040E65
:102868002664E3D7040C800EB31BACC0A0F0ADC047
:10287800A1F0AEC0A2F0AFC0A3F0B0C0A4F0B1C048
:10288800A5F0B2C0A6F0B3C0A7F074EC0AF0A0C0DF
:10289800ACF0A1C0ADF0A2C0AEF0A3C0AFF0120082
:1028A8000A6A07C0A9FF09C0A8FFA69EA69CA6841D
:1028B800000EF2BE010E0A6EF29E550EA76EAA0E0B
:1028C800A76EA682A6B2FED70AB002D0F29E01D0A9
:1028D800F28EA694120026C0A9FF28C0A8FFA69EC3
:1028E800A69CA684000EF2BE010E296EF29E550E1D
:1028F800A76EAA0EA76EA682A6B2FED729B002D0EE
:10290800F29E01D0F28EA69412002B6E2D6A2A50E8
:1029180014E0010E2C6E03D0D8902A362C2A2AAE49
:10292800FBD7D8902D362A502B5C03E32A502B5E18
:102938002D80D8902A322C2EF4D72D501200010E5B
:10294800EFEC14F0800EEFEC14F0316A31C02EF089
:10295800000E5EEC13F0312A030E3164F7D74E50A7
:10296800BFEC16F02E6E000E5EEC13F02A0EBDEFD3
:1029780014F02C6E000EF2BE010E2D6EF29E42EC8B
:1029880016F0000ED6EC16F08D828D948D902C509A
:10299800EAEC16F08D922DA001D0F28E2DB001D068
:1029A800F29E00F01200BCC0C5F0BBC0C4F0C66BFC
:1029B800C76BBF0EC36FBEC0B5F0BDC0B4F0C30EC9
:1029C800B66FC40E35EC00F0C4C0D9FFC5C0DAFF3D
:1029D800000EDF6E000C2C6E000EF2BE010E2D6E86
:1029E800F29E42EC16F0000ED6EC16F08D928D9405
:1029F8008D902C50EAEC16F02DA001D0F28E2DB05F
:102A080001D0F29E120030C026F031C027F032C04B
:102A180028F033C029F0960E2A6E000E2B6ACFECF0
:102A28000EF026C030F027C031F028C032F029C09F
:102A380033F0120010D0F2EC16F02D502A24266E36
:102A4800000E2B20276E2C502D24D96EDA6ADF5009
:102A5800286E6FEC14F02D062D28D8B41200EBD791
:102A68004F6A076A086A00F09EBA07D0074A082A20
:102A7800100E075C270E0858F6E39EAA03D0E4EC74
:102A880016F003D0010E4F6E000E1200266E9396BC
:102A98009398939A26A002D08A8601D08A9626A275
:102AA80002D08A8801D08A9826A402D08A8A01D0C6
:102AB8008A9A1200266E040E276EFA0E4B6E0001DB
:102AC80000F000F000F000F000F04B2F64EF15F07C
:102AD80000F0272EF2D7262EEED7FA0C296E28C042
:102AE8002AF02B6A2A50D96EDA6A29C026F0276A9A
:102AF800ADEC16F0DF6E292A2A2A2B2A030E2B6446
:102B0800F1D7030C076E040E086EFA0E4B6E000127
:102B180000F000F000F000F000F04B2F8CEF15F003
:102B280000F0082EF2D7072EEED7FA0C07D029C0EE
:102B3800F6FF0AD873EC16F0294A2A2A29C0F6FFAC
:102B480003D8D8B41200F3D72AC0F7FF0800F5500D
:102B58001200276E080E286E296AD8902734293467
:102B6800296ED89027362650295C02E32650295E24
:102B7800282EF3D72950120026502802F3CF2AF026
:102B8800F4CF2BF026502902F3502B262750280289
:102B9800F3502B262AC026F02BC027F012000DD0A8
:102BA8002A502B24D96EDA6A2B502824266E000E60
:102BB8002920276EADEC16F0DF6E2B062B28D8B433
:102BC8001200EED707D02EC0F6FF0AD8BDEC14F0DD
:102BD8002E4A2F2A2EC0F6FF03D8D8B41200F3D7F6
:102BE8002FC0F7FF0800F550120007D00AC0F6FF03
:102BF8000AD88BEC16F00A4A0B2A0AC0F6FF03D84B
:102C0800D8B41200F3D70BC0F7FF0800F550120034
:102C180020EE26F0DE50DE10DE10DE1002E0800E20
:102C2800291A26C026F027C027F028C028F029C076
:102C380029F01200266E26503C0FD96EDA6A020E71
:102C4800DF6208D026503C0FD96EDA6A000EDF6EBC
:102C5800010E01D0000E12008D84010E4B6E000192
:102C680000F000F000F000F000F04B2F34EF16F009
:102C780000F000F000F000F08D94010C030E2A6EB5
:102C8800E80E296E05D0DBEC12F02B6E2BAE07D0C8
:102C98002906D8A02A062928D8B42A28F4E112003F
:102CA800C26BC36B2D0EC56FF20EC46FBD0EC16F24
:102CB800BCC0B5F0BBC0B4F0C10EB66FC20E35EFE4
:102CC80000F0286E276A3A0E285C05E22F0E286469
:102CD80002D0010E276E27C026F026301200286E7B
:102CE8008ABE04D08A8E050E5EEC15F0ACA2FED723
:102CF80028C0ADFF1200286E040E296EFA0E5EEC95
:102D080015F000F0292EFAD7282EF6D71200096EF2
:102D18008ABE04D08A8E050E86EC15F0ACA2FED7CA
:102D280009C0ADFF1200266A26503C0FD96EDA6A38
:102D3800DF6A262A040E2664F7D7040C0A508BECA7
:102D480016F00BC00CF00CC00DF00E6A0D508BEF96
:102D580016F026C0A9FFA69CA69EA68000F000F04B
:102D6800A850120007C0A9FFA69CA69EA68000F046
:102D780000F0A8501200266E040E265C02E22650CF
:102D880001D0030E1200016E01503C0FD96EDA6AB1
:102D9800010EDF6E010CAC84030EAF6EAC8AAB88FB
:102DA800AB8E030C266E266602D0956A01D0956814
:102DB8001200076E0750D96EDA6ADE68DD68FF0C0C
:102DC80001D000F09EAAFDD7AE501200266E26C094
:102DD8008CFF30EF16F0C68A8A941200A6A2120061
:0C2DE800FDD7A6A21200FDD701011200C9
:107EEA00000000803FCDCCCC3D0AD7233C6F1283E3
:107EFA003A17B7D138ACC52737BD37863595BFD6BF
:107F0A003377CC2B325F708930FFE6DB2E08E53CF5
:107F1A001E6042A20D0000803F000020410000C800
:107F2A004200007A4400401C460050C347002474B3
:107F3A00498096184B20BCBE4C286B6E4EF9021530
:107F4A0050EC78AD60CAF249710609090680808052
:107F5A0080800E11110A9B8080151F1F04080807D4
:107F6A0080FFFFFFFFFFFFFF8055AA55AA55AA55BC
:107F7A008055AA55AA7FFF7F8000010000000A00F1
:107F8A00000064000000E803000010270000A0863B
:107F9A00010040420F008096980000E1F50500CAF2
:107FAA009A3B00000000C4FF7F3F80EFFFBE90E1D4
:107FBA00A93EEC8276BE82AD2B3E0E3CC3BD87D174
:107FCA00133D4178D3BB5436303034545220566571
:107FDA00722E3431004E6F762031302032303136F5
:107FEA00002025332E3266202020007572610D0A8A
:067FFA00002566000000F6
:020000040020DA
:08000000FFFFFFFFFFFFFFFF00
:020000040030CA
:0E000000FF061F16FF8381FF0FC00FE00F40A9
:0200000400F00A
:100000003700000000008FC2953F9DC65842D6E2DF
:1000100037C1CF3D8EBEAC874CBE04C2F33DA0DCE1
:10002000BA3C9012DABBA23C5542E9602EC11FC116
:100030002BBDAE3BA7BECEE04E3C967CC83C169C8A
:10004000AA3BBFDD5442A85228C130270DBEB528B7
:10005000A5BEA13D873C0D4ADE3C609A7E3B798F70
:1000600065426F2F31C160D379BCEA0E98BE29E694
:1000700074BD9697783C2FF80B3C94FB524262ADCE
:100080002CC1CA5429BE5B56BEBEE4C7903B9470D7
:100090000E3DF73EDA3B794951424E972AC10B6437
:1000A00039BEF88DAFBE339A883C4A1E073DDF3A11
:1000B000A43B000000000000000000000000000061
:1000C0000000000000000000000000000000000030
:1000D0000000000000000000000000000000000020
:1000E0000000000000000000000000000000000010
:1000F0000000000000000000000000000000000000
:00000001FF
