:0400000066EF00F0B7
:0E0008005982FACF18F0FBCF19F0C7ED0FF0B8
:100018005980D8CF80F0E8CF81F0E0CF82F0FACFD6
:1000280083F0FBCF84F0E9CF85F0EACF86F0E1CF0B
:1000380087F0E2CF88F0D9CF89F0DACF8AF0F3CF12
:100048008BF0F4CF8CF0F6CF8DF0F7CF8EF0F8CFA1
:100058008FF0F5CF90F0F2A411D0FD0ED76E8F0E71
:10006800D66E0001E94BEA2B00F04D2A140E4D64C0
:1000780004D0000E4D6EBEEC22F0F29490C0F5FF55
:100088008FC0F8FF8EC0F7FF8DC0F6FF8CC0F4FF5D
:100098008BC0F3FF8AC0DAFF89C0D9FF88C0E2FFAE
:1000A80087C0E1FF86C0EAFF85C0E9FF84C0FBFF87
:1000B80083C0FAFF82C0E0FF81C0E8FF80C0D8FF9C
:1000C80059901000D7EF24F0DF0E0101CE6F000E1B
:1000D8000101CF6F43EF06F0250E0101E819D8B4EE
:1000E80008D0DBC0D9FFDCC0DAFFE8C1DFFF40EF92
:1000F80006F0000E0101E16F000EE06F000E010135
:10010800D96F000ED86FDDC0F6FFDEC0F7FF08001C
:10011800F55018EC27F0D8A03FD0000E0101E16F90
:10012800000EE06FE0C128F0E1C129F0000E2B6E4F
:100138000A0E2A6E6DEC26F028C0E0F129C0E1F124
:10014800D00E0101C46FFF0E0101C56FDDC0F6FFBF
:10015800DEC0F7FF0800F5500101C66FC76B01014B
:10016800C4510101C6270101C5510101C72301017D
:10017800C6510101E0270101C7510101E123000136
:10018800DD4BDE2BDDC0F6FFDEC0F7FF0800F550C3
:1001980018EC27F0D8B0C6D7DDC0F6FFDEC0F7FFF1
:1001A8000800F5502E0AD8A434D00101D98D0001D9
:1001B800DD4BDE2B000E0101E76F000EE66F1ED04F
:1001C800E6C128F0E7C129F0000E2B6E0A0E2A6E50
:1001D8006DEC26F0DDC0F6FFDEC0F7FF0800F55035
:1001E8002826000E2922D00E28240101E66FFF0ED2
:1001F80029200101E76F0001DD4BDE2BDDC0F6FF92
:10020800DEC0F7FF0800F55018EC27F0D8A0B7D0EB
:10021800D7D7000E0101E76F000EE66F0101D989FB
:10022800AED00101D985C3D0CEC1D9FFCFC1DAFF85
:10023800DECFD0F1DDCFD1F1020E0101CE27000EC5
:10024800CF230101D0510101D111D8A406D0F80E55
:100258000101D06F7F0E0101D16F000E0101D36F34
:10026800000ED26F03D00101D24BD32B0101D25122
:100278000101D0250101C46F0101D3510101D12130
:100288000101C56FC4C1F6FFC5C1F7FFF86A050EC5
:10029800F76403D00800F55005D0F6CFE9FFF7CF93
:1002A800EAFFEF500009D8A4DED70101E6510101A9
:1002B800E711D8B40ED00101D2510101E65D010168
:1002C800D3510101E759D8B004D0E6C1D2F1E7C152
:1002D800D3F10101E0510101D25D0101E1510101B8
:1002E800D359D8B009D00101D2510101E05F010111
:1002F800D3510101E15B0FD0000E0101E16F000E47
:10030800E06F09D0DBC0D9FFDCC0DAFF200EDF6E5A
:100318000001DB4BDC2B0101E007D8A0E10701015C
:10032800E029F0E10101E129D8B41CD0EBD7D0C114
:10033800F6FFD1C1F7FFF86ADBC0D9FFDCC0DAFFEE
:10034800050EF76403D00800F55005D0F6CFE9FF95
:10035800F7CFEAFFEF50DF6E0101D04BD12B000140
:10036800DB4BDC2B0101D207D8A0D3070101D2292E
:10037800DEE10101D329D8B443EF06F0D8D7DDC0B8
:10038800F6FFDEC0F7FF0001DD4BDE2B0800F5CFDE
:10039800E8F10101E851000AD8B452EF06F0660A04
:1003A800D8B43FD7150AD8B43FD743EF06F0070EA5
:1003B8000101D915D8B496D30101D9A905D0000EE9
:1003C8000101E76F060EE66FCEC1D9FFCFC1DAFF94
:1003D800DECFE2F1DECFE3F1DECFE4F1DECFE5F10F
:1003E800040E0101CE27000ECF230101E5AF15D081
:1003F800E2C127F0E3C128F0E4C129F0E5C12AF001
:1004080013EC26F027C0E2F128C0E3F129C0E4F19B
:100418002AC0E5F1030E0101D813000E0101DF6FB8
:10042800000EDE6F0101E2510101E3110101E41147
:100438000101E511D8B48DD00101E435E535820F0D
:100448000101DE6F0101DF6BFF0EDF230101DE0713
:10045800D8A0DF07DEC128F0DFC129F0000E2B6E1F
:10046800030E2A6E6DEC26F028C0DEF129C0DFF1FC
:10047800DEC193F0DFC194F0000E0001966F0A0E02
:10048800956F1AEC21F093C0DEF194C0DFF1010101
:10049800DFAF04D00101DE07D8A0DF070101DE517C
:1004A80000087AEC0DF0C8C0DAF1C9C0DBF1CAC0A7
:1004B800DCF1CBC0DDF1DAC1AFF0DBC1B0F0DCC1FB
:1004C800B1F0DDC1B2F0E2C1B3F0E3C1B4F0E4C110
:1004D800B5F0E5C1B6F027EC0BF0AFC0DAF1B0C06B
:1004E800DBF1B1C0DCF1B2C0DDF1DAC191F0DBC102
:1004F80092F0DCC193F0DDC194F0000E0001956F1D
:10050800000E966F800E976F3F0E986F71EC1DF07E
:100518000001D8B005D00101DE07D8A0DF0719D047
:10052800DAC191F0DBC192F0DCC193F0DDC194F047
:10053800000E0001956F000E966F200E976F410E0A
:10054800986F71EC1DF00001D8A003D00101DE4BBB
:10055800DF2B0101E7BF08D00101E75123E10D0EB0
:100568000101E65DD8B01ED0E2C19BF0E3C19CF06A
:10057800E4C19DF0E5C19EF00101E651F0EC18F0F0
:10058800C8C09FF0C9C0A0F0CAC0A1F0CBC0A2F0FB
:10059800D3EC08F09BC0E2F19CC0E3F19DC0E4F10C
:1005A8009EC0E5F10101DFBF08D00101DF512EE156
:1005B8000A0E0101DE5DD8B029D00101E251010126
:1005C800E3110101E4110101E511D8B46DD0E2C1D4
:1005D800D1F0E3C1D2F0E4C1D3F0E5C1D4F03CECF2
:1005E8001FF00001D1510001D2110001D311000107
:1005F800D411D8A459D00101DFBF56D00101DF5171
:1006080005E1020E0101DE5DD8A04ED0DAC191F0FD
:10061800DBC192F0DCC193F0DDC194F05F0E000104
:10062800956F700E966F890E976F400E986F71ECEC
:100638001DF00001D8B003D00101F70E02D001016E
:10064800F80EDE27FF0EDF230101DE517AEC0DF0F4
:10065800C8C0DAF1C9C0DBF1CAC0DCF1CBC0DDF13A
:10066800E2C191F0E3C192F0E4C193F0E5C194F0E6
:10067800DAC195F0DBC196F0DCC197F0DDC198F0E6
:10068800F2EC1BF091C0D4F192C0D5F193C0D6F131
:1006980094C0D7F1000E0101E26F000EE36F000E67
:1006A800E46F000EE56F3CD0E2C1D1F0E3C1D2F0B7
:1006B800E4C1D3F0E5C1D4F03CEC1FF0D1C0D4F1D3
:1006C800D2C0D5F1D3C0D6F1D4C0D7F1E2C1AFF0D2
:1006D800E3C1B0F0E4C1B1F0E5C1B2F0D4C127F094
:1006E800D5C128F0D6C129F0D7C12AF0000E4BECAD
:1006F8001AF027C0B3F028C0B4F029C0B5F02AC05A
:10070800B6F052EC25F0AFC0E2F1B0C0E3F1B1C0F1
:10071800E4F1B2C0E5F1000E0101DF6F000EDE6FFB
:10072800010E0101E86F0A0E0101E819D8B41ED0C4
:100738000101E851040DFA0EF324F66E7E0EF42042
:10074800F76E0900F5500101D45D0900F55001016B
:10075800D5590900F5500101D6590900F550010194
:10076800D759D8A003D00101E82BDDD7E8C1C4F1DF
:100778000101C56BC4BFC5070101E6510101C427CA
:100788000101E7510101C5230101DE510101C4271F
:100798000101DF510101C5230101C4510101E05FDD
:1007A8000101C5510101E15B0101E6510101E711B8
:1007B800D8B404D00101E007D8A0E107030E010175
:1007C800D8150101C46F000E0101D9150101C56FCB
:1007D8000101C4510101C511D8B40ED009D0DBC044
:1007E800D9FFDCC0DAFF200EDF6E0001DB4BDC2B0B
:1007F8000101E007D8A0E1070101E1BF07D001012D
:10080800E151EDE10101E005D8B0E9D7030E01019E
:10081800D8150101C46F000E0101D9150101C56F7A
:100828000101C4510101C511D8B455D0DBC0D9FFAD
:10083800DCC0DAFF2D0E4DD00001DB4BDC2B4BD09A
:10084800D4C191F0D5C192F0D6C193F0D7C194F03C
:100858000101E851040DFA0EF324F66E7E0EF42021
:10086800F76E0900F5CF95F00900F5CF96F009006D
:10087800F5CF97F00A00F5CF98F0D2EC21F091C0AF
:10088800DAF192C0DBF193C0DCF194C0DDF1DAC19A
:1008980091F0DBC192F0DCC193F0DDC194F00A0E57
:1008A8000001956F000E966F000E976F000E986FFF
:1008B8002AEC22F091C0DAF192C0DBF193C0DCF1AE
:1008C80094C0DDF10101DA51300FDBC0D9FFDCC083
:1008D800DAFFDF6EB1D70101E8070101E829D8B4D2
:1008E8000ED0AED7DBC0D9FFDCC0DAFF300EDF6E2A
:1008F8000001DB4BDC2B0101DE07D8A0DF0701017B
:10090800DFBF07D00101DF51EDE10101DE05D8B0FD
:10091800E9D70101E7BF0CD00101E75105E1090E54
:100928000101E65DD8A004D0080E0101E86F02D0ED
:10093800E6C1E8F10101E8510101E65F000E01019D
:10094800E8BFFF0E0101E75B0101E8510101D8B4DE
:1009580009D0DBC0D9FFDCC0DAFF2E0EDF6E000144
:10096800DB4BDC2B0101E8517AEC0DF0C8C0CAF171
:10097800C9C0CBF1CAC0CCF1CBC0CDF1E2C1B3F054
:10098800E3C1B4F0E4C1B5F0E5C1B6F0CAC1AFF057
:10099800CBC1B0F0CCC1B1F0CDC1B2F027EC0BF0B7
:1009A800AFC0D1F0B0C0D2F0B1C0D3F0B2C0D4F073
:1009B8003CEC1FF0D1C0D4F1D2C0D5F1D3C0D6F1F0
:1009C800D4C0D7F174D0D4C191F0D5C192F0D6C1BA
:1009D80093F0D7C194F00101E851040DFA0EF32405
:1009E800F66E7E0EF420F76E0900F5CF95F009003B
:1009F800F5CF96F00900F5CF97F00A00F5CF98F0FB
:100A0800D2EC21F091C0DAF192C0DBF193C0DCF1B5
:100A180094C0DDF1DAC191F0DBC192F0DCC193F052
:100A2800DDC194F00A0E0001956F000E966F000E5E
:100A3800976F000E986F2AEC22F091C0DAF192C0FD
:100A4800DBF193C0DCF194C0DDF10101DA51300F24
:100A5800DBC0D9FFDCC0DAFFDF6E0001DB4BDC2B2B
:100A6800D4C191F0D5C192F0D6C193F0D7C194F01A
:100A78000101E851040DFA0EF324F66E7E0EF420FF
:100A8800F76E0900F5CF95F00900F5CF96F009004B
:100A9800F5CF97F00A00F5CF98F02AEC22F091C034
:100AA800D4F192C0D5F193C0D6F194C0D7F1010129
:100AB800E8070101E829D8B40ED085D7DBC0D9FFF3
:100AC800DCC0DAFF300EDF6E0001DB4BDC2B0101EE
:100AD800E607D8A0E7070101E6510101E711D8B4FC
:100AE800CED0ECD70101E6510101E711D8A40DD011
:100AF8000101D4510101D5110101D6110101D7110C
:100B0800D8A403D00101E64BE72B800E0101E8BF12
:100B18007F0E0101C46F0101E6510101E85D010189
:100B2800E751800A0101C459D8B003D0E6C1E8F101
:100B380018D00101E751800A0101C46F0101E85191
:100B48000101E65D800E0101E8BF7F0E0101C45975
:100B5800D8B007D00101E8510101E66FE76BE6BFA5
:100B6800E7070101E0510101E111D8B414D0030EE7
:100B78000101D8150101C46F000E0101D915010149
:100B8800C56F0101C4510101C511D8B404D00101D8
:100B9800E007D8A0E1070101D9AD1ED00101E0515D
:100BA8000101E65D0101E751800A0101C46F0101FD
:100BB800E151800A0101C459D8B009D00101E651B8
:100BC8000101E05F0101E7510101E15B05D0000E81
:100BD8000101E16F000EE06F800E0101E8BF7F0E9A
:100BE8000101C46F0101E0510101E85D0101E1511A
:100BF800800A0101C459D8B00BD00101E8510101A4
:100C0800E05F000E0101E8BFFF0E0101E15B05D0C6
:100C1800000E0101E16F000EE06F0101E0510101DA
:100C2800E111D8B413D0DBC0D9FFDCC0DAFF200E45
:100C3800DF6E0001DB4BDC2B0101E007D8A0E107E8
:100C48000101E0510101E111D8A4EDD7030E010122
:100C5800D8150101C46F000E0101D9150101C56F36
:100C68000101C4510101C511D8B409D0DBC0D9FFB5
:100C7800DCC0DAFF2D0EDF6E0001DB4BDC2BDDC0A4
:100C8800F6FFDEC0F7FF0001DD4BDE2B0800F5CFD5
:100C9800E8F10101E851D8A470EF00F0DBC0D9FFFA
:100CA800DCC0DAFF000EDF6E12006DD2010E01010A
:100CB800C06FE9C0EBF0EAC0ECF01200040E95EC4E
:100CC80025F00009D8B443D081AE06D0020E010148
:100CD800C06F07EC23F03BD00101C351110D070E83
:100CE800F326000EF422FB0EF324F66E7D0EF4209C
:100CF800F76E0800F550020AD8A405D0000E0101CD
:100D0800EA6F0A0E16D00101C351110D070EF32622
:100D1800000EF422FB0EF324F66E7D0EF420F76E1F
:100D28000800F550100AD8A405D0000E0101EA6F9A
:100D38000E0EE96F0101C151D8A402D0010E05D0F1
:100D48000101C105D8A403D0000E0101C16F020E34
:100D580095EC25F00009D8B4CDD081AE07D0000EAF
:100D6800ACEC20F0020E27EC27F0C4D00101C151F1
:100D7800D8A447D0E9C127F0EAC128F0EB0E296EC4
:100D8800010E2A6E040E2B6E08EC27F0EBC19BF0C7
:100D9800ECC19CF0EDC19DF0EEC19EF0770E000114
:100DA8009F6FCC0EA06F2B0EA16F320EA26FD3ECEB
:100DB80008F09BC0EBF19CC0ECF19DC0EDF19EC02A
:100DC800EEF1E9C127F0EAC128F0EB0E296E010E19
:100DD8002A6E040E2B6E8AEC27F0EBC1AFF0ECC143
:100DE800B0F0EDC1B1F0EEC1B2F0000E0001B36F8A
:100DF800240EB46F740EB56F490EB66F27EC0BF066
:100E08004AD00101C105D8A44ED0000E286E020EAA
:100E1800276EEB0E296E010E2A6E040E2B6E08EC5F
:100E280027F0EBC19BF0ECC19CF0EDC19DF0EEC149
:100E38009EF06F0E00019F6F120EA06F830EA16FC0
:100E48003A0EA26FD3EC08F09BC0EBF19CC0ECF11A
:100E58009DC0EDF19EC0EEF1000E286E020E276EC9
:100E6800EB0E296E010E2A6E040E2B6E8AEC27F00B
:100E7800EBC1AFF0ECC1B0F0EDC1B1F0EEC1B2F032
:100E8800000E0001B36F000EB46F7A0EB56F440EFA
:100E9800B66F27EC0BF0AFC0EBF1B0C0ECF1B1C00E
:100EA800EDF1B2C0EEF1000E0001946F000E3CECC3
:100EB80024F0490E0001DB6F020E0001DC6FE50E25
:100EC8000001DD6F7F0E0001DE6FEBC1DFF0ECC1CA
:100ED800E0F0EDC1E1F0EEC1E2F068EC00F0490E9F
:100EE8000001946F020E0001956F74EC22F0FA0E67
:100EF800BFEC26F0030E95EC25F00009D8B41200DB
:100F080081AE07D0010EACEC20F0040E27EC27F0E0
:100F180012000101C151D8A447D0E9C127F0EAC1A4
:100F280028F0EB0E296E010E2A6E040E2B6E08ECCB
:100F380027F0EBC19BF0ECC19CF0EDC19DF0EEC138
:100F48009EF0770E00019F6FCC0EA06F2B0EA16F45
:100F5800B20EA26FD3EC08F09BC0EBF19CC0ECF191
:100F68009DC0EDF19EC0EEF1E9C127F0EAC128F07D
:100F7800EB0E296E010E2A6E040E2B6E8AEC27F0FA
:100F8800EBC1AFF0ECC1B0F0EDC1B1F0EEC1B2F021
:100F9800000E0001B36F240EB46F740EB56F490EC6
:100FA800B66F27EC0BF04AD00101C105D8A44ED08A
:100FB800000E286E020E276EEB0E296E010E2A6EA9
:100FC800040E2B6E08EC27F0EBC19BF0ECC19CF0F3
:100FD800EDC19DF0EEC19EF06F0E00019F6F120EE5
:100FE800A06F830EA16FBA0EA26FD3EC08F09BC05E
:100FF800EBF19CC0ECF19DC0EDF19EC0EEF1000E4E
:10100800286E020E276EEB0E296E010E2A6E040E54
:101018002B6E8AEC27F0EBC1AFF0ECC1B0F0EDC15C
:10102800B1F0EEC1B2F0000E0001B36F000EB46F64
:101038007A0EB56F440EB66F27EC0BF0AFC0EBF12C
:10104800B0C0ECF1B1C0EDF1B2C0EEF1000E00019C
:10105800946F000E3CEC24F0490E0001DB6F020E89
:101068000001DC6FE50E0001DD6F7F0E0001DE6F11
:10107800EBC1DFF0ECC1E0F0EDC1E1F0EEC1E2F070
:1010880068EC00F0490E0001946F020E0001956FA4
:1010980074EC22F0FA0EBFEC26F01200040E95EC68
:1010A80025F00009D8B452D0010E0101C06F000E1E
:1010B800286E320E276EC30E296E010E2A6E010E9F
:1010C8002B6E8AEC27F0010E2AEC26F0800E2AEC13
:1010D80026F00101C351110D070EF326000EF4226C
:1010E800FB0EF324F66E7D0EF420F76E0800F55023
:1010F800020AD8A40DD0900E0001986F0D0E0001C1
:10110800996F000E00019A6F010EF7EC26F01ED0C1
:101118000101C351110D070EF326000EF422FB0E38
:10112800F324F66E7D0EF420F76E0800F550100AD1
:10113800D8A40CD0900E0001986F0D0E0001996F85
:10114800000E00019A6F040EF7EC26F0020E95ECE3
:1011580025F00009D8B408D0050E0101C36102D0FA
:101168000101C32B07EC23F0030E95EC25F00009D1
:10117800D8B412000101C351D8B402D00101C30789
:1011880007EC23F012000101C051000AD8B48ED533
:10119800010AD8B493D5030AD8A412007FD7000156
:1011A8009E51800B0001AB6F00019E519E250001EE
:1011B800AD6F00019DAF02D00001AD810001AD51BE
:1011C8000001D8B412D00001AD29D8A409D0000E6E
:1011D80000019B6F000E9C6F000E9D6F000E9E6FAE
:1011E80000019D8F000E000108D0000E00019B6FCA
:1011F800000E9C6F000E9D6F000E9E6F0001A251A5
:10120800800B0001AC6F0001AB510001AC19D8B4E0
:1012180002D00001AB8D0001A251A2250001AC6FE4
:101228000001A1AF02D00001AC810001AC51000166
:10123800D8B412D00001AC29D8A409D0000E0001FE
:101248009F6F000EA06F000EA16F000EA26F00012D
:10125800A18F000E000108D0000E00019F6F000E44
:10126800A06F000EA16F000EA26F0001AD5100012A
:10127800AC5DD8B024D00001ABAD03D0800E000126
:10128800AB1BADC0AEF0ACC0ADF0AEC0ACF09BC017
:10129800AEF09FC09BF0AEC09FF09CC0AEF0A0C067
:1012A8009CF0AEC0A0F09DC0AEF0A1C09DF0AEC055
:1012B800A1F09EC0AEF0A2C09EF0AEC0A2F0000E9B
:1012C8000001AE6F0001AD510001A36FA46B0001D6
:1012D800A31FA41FA34BA42B0001AC510001A56FB1
:1012E800A66B0001A3510001A5270001A45100012C
:1012F800A6230001A6BF3DD00001A65105E11A0EA4
:101308000001A55DD8A035D000019B5100019C11BA
:1013180000019D1100019E11D8B402D0010E01D028
:10132800000E0001AE6F000E00019B6F000E9C6F57
:10133800000E9D6F000E9E6FACC0ADF020D0000176
:10134800AEA107D00001D890AE3101090001AE6FFF
:1013580003D00001D890AE3300019BA102D0000158
:10136800AE8F00019E359E339D339C339B33000125
:10137800AD2B0001AC510001AD5DD8A0E0D7000154
:10138800ABBD3FD00001AD510001D8A40AD0000E7A
:1013980000019B6F000E9C6F000E9D6F000E9E6FEC
:1013A800120000019F5100019B270001A05100017C
:1013B8009C230001A15100019D230001A2510001BD
:1013C8009E2300019EA1CCD00001AEA109D000014E
:1013D800D890AE330001AE5101090001AE6F03D0C1
:1013E8000001D890AE3300019BA102D00001AE8F5E
:1013F80000019E359E339D339C339B330001AD2BFA
:10140800AFD000019F5100019B5D0001A051000178
:101418009C590001A15100019D5900019E51800A6B
:101428000001A36F0001A251800A0001A359D8B09E
:1014380050D09BC0A3F09CC0A4F09DC0A5F09EC056
:10144800A6F00001A31FA41FA51FA61FA32B000E13
:10145800A423A523A62300019F510001A325000171
:10146800A76F0001A0510001A4210001A86F00018D
:10147800A1510001A5210001A96F0001A25100019D
:10148800A6210001AA6FFF0E0001A72500019B6F8E
:10149800FF0E0001A82100019C6FFF0E0001A92189
:1014A80000019D6FFF0E0001AA2100019E6F800EB2
:1014B8000001AB1B0001AE6D0001AE510001D8A4C4
:1014C80018D0010E00019B27000E9C239D239E230C
:1014D80010D000019F5100019B5F0001A051000145
:1014E8009C5B0001A15100019D5B0001A25100011C
:1014F8009E5B00019B5100019C1100019D110001A0
:101508009E11D8A42AD00001AE510001D8A425D03C
:10151800000E00019B6F000E9C6F000E9D6F000E69
:101528009E6F12000001D8909B379C379D379E37DD
:101538000001AEAF02D000019B810001AEA103D033
:10154800D880000102D00001D890AE370001AD511B
:101558000001D8B402D00001AD0700019DAFE2D769
:10156800000E0001AC6F0001AEAF0DD0AEC0A3F00D
:101578007F0E0001A317D8A403D000019BA103D0BC
:10158800010E0001AC6F0001AC510001D8B426D0A7
:10159800010E00019B27000E9C239D239E23000122
:1015A8009EA11CD09BC0A3F09CC0A4F09DC0A5F038
:1015B8009EC0A6F00001A635A633A533A433A333F5
:1015C800A3C09BF0A4C09CF0A5C09DF0A6C09EF04F
:1015D8000001AD29D8B402D00001AD2B0001AD291E
:1015E800D8B405D00001AD510001D8A411D0000E27
:1015F80000019B6F000E9C6F000E9D6F000E9E6F8A
:101608000001AD510001D8A403D0000E0001AB6F5A
:101618000001ADA103D000019D8F02D000019D9F64
:101628000001D890AD3100019E6F0001ABAF02D030
:1016380000019E8F9BC09BF09CC09CF09DC09DF0BC
:101648009EC09EF012000001B251800B0001BB6FDA
:101658000001B251B2250001C16F0001B1AF02D043
:101668000001C1810001C1510001D8B410D00001AE
:10167800C129D8A409D0000E0001AF6F000EB06FC9
:10168800000EB16F000EB26F0001B18F09D0000ECD
:101698000001AF6F000EB06F000EB16F000EB26F99
:1016A8000001B651800B0001BB1B0001B651B625E5
:1016B8000001BC6F0001B5AF02D00001BC81000180
:1016C800BC510001D8B410D00001BC29D8A409D05D
:1016D800000E0001B36F000EB46F000EB56F000E60
:1016E800B66F0001B58F09D0000E0001B36F000E70
:1016F800B46F000EB56F000EB66F0001BC5100014B
:10170800D8B405D00001C1510001D8A40AD0000EF8
:101718000001AF6F000EB06F000EB16F000EB26F18
:1017280012000001B5510001AF03F3CFC6F0F4CFAA
:10173800C7F00001C6510001BD6FBE6BBF6BC06B27
:101748000001C7510001C26FC36BC46BC56B0001B8
:10175800B4510001B003F3CFC6F0F4CFC7F00001D5
:10176800C6510001BD27000EBE23BF23C0230001C0
:10177800C7510001C227000EC323C423C52300019B
:10178800B3510001B103F3CFC6F0F4CFC7F00001A5
:10179800C6510001BD27000EBE23BF23C023000190
:1017A800C7510001C227000EC323C423C523BFC0ED
:1017B800C0F0BEC0BFF0BDC0BEF00001BD6B0001EF
:1017C800B3510001B003F3CFC6F0F4CFC7F0000166
:1017D800C6510001BD270001C7510001BE23000EFC
:1017E8000001BF23000E0001C0230001B451000115
:1017F800AF03F3CFC6F0F4CFC7F00001C651000124
:10180800BD270001C7510001BE23000E0001BF2300
:10181800000E0001C023BFC0C0F0BEC0BFF0BDC0F5
:10182800BEF00001BD6B0001B3510001AF03F3CF5F
:10183800C6F0F4CFC7F00001C6510001BD27000172
:10184800C7510001BE23000E0001BF23000E000196
:10185800C0230001B5510001B003F3CFC6F0F4CFA7
:10186800C7F00001C6510001C2270001C75100019D
:10187800C323000E0001C423000E0001C52300018C
:10188800B4510001B103F3CFC6F0F4CFC7F00001A3
:10189800C6510001C2270001C7510001C323000E31
:1018A8000001C423000E0001C5230001B551000149
:1018B800B103F3CFC6F0F4CFC7F00001C651000161
:1018C800B76F0001C7510001B86F0001B96B000183
:1018D800BA6BB9C0BAF0B8C0B9F0B7C0B8F0000177
:1018E800B76B0001B7510001C2270001B8510001D0
:1018F800C3230001B9510001C4230001BA510001FA
:10190800C523BDC0B7F0BEC0B8F0BFC0B9F0C0C0F5
:10191800BAF0190E06D00001D890BA33B933B833EB
:10192800B733E82EF8D70001B7510001C2270001EC
:10193800B8510001C3230001B9510001C4230001BB
:10194800BA510001C523BFC0C0F0BEC0BFF0BDC0C2
:10195800BEF00001BD6B0001BC51C1C0B7F0000171
:10196800B86B0001B727000EB823820E0001B72517
:101978000001C66FFF0E0001B8210001C76F15D026
:101988000001D890C237C337C437C5370001C0AF8C
:1019980002D00001C2810001D890BD37BE37BF37E1
:1019A800C0370001C607D8A0C7070001C4AFE8D7F1
:1019B800000E0001BC6F0001C0AF24D0FF0E000173
:1019C800BD150001B76FFF0E0001BE150001B86F0D
:1019D800FF0E0001BF150001B96F7F0E0001C01591
:1019E8000001BA6F0001B7510001B8110001B91127
:1019F8000001BA11D8A403D00001C2A103D0010E7E
:101A08000001BC6F0001BC510001D8B423D0010E05
:101A18000001C227000EC323C423C5230001C5A1AA
:101A280019D0C2C0B7F0C3C0B8F0C4C0B9F0C5C0BF
:101A3800BAF00001BA35BA33B933B833B733B7C0DF
:101A4800C2F0B8C0C3F0B9C0C4F0BAC0C5F0000154
:101A5800C64BC72B0001C7BF10D00001C75104E116
:101A68000001C629D8A009D0000E0001C26F000EDF
:101A7800C36F800EC46F7F0E2BD00001C7BF07D085
:101A88000001C75111E10001C605D8B00DD0000E04
:101A98000001C26F000EC36F000EC46F000EC56F49
:101AA800000E0001BB6F15D0C6C0C1F0FF0E0001CB
:101AB800C217FF0EC3177F0EC417000EC51700010B
:101AC800C1A102D00001C48F0001D890C13100012A
:101AD800C56F0001BB510001C513C2C0AFF0C3C040
:101AE800B0F0C4C0B1F0C5C0B2F012000001D06FB0
:101AF8000001D0AF25D10001D06D0001D051800A7E
:101B0800120FD8A0AAD0000E0001966F0A0E956F8A
:101B1800000E2A6E640E296E0001D051276E286AC5
:101B280027BE28068BEC23F027C093F028C094F03A
:101B38001AEC21F00001D890933794370001D8901F
:101B480093379437240E00019327000E0001942345
:101B5800610E00019325F66E7E0E00019421F76E4A
:101B68000900F5CFB3F00900F5CFB4F00900F5CFBF
:101B7800B5F00A00F5CFB6F0000E0001966F640EBE
:101B8800956F0001D0510001936F946B93BF940738
:101B98001AEC21F00001D890933794370001D890BF
:101BA80093379437480E00019327000E00019423C1
:101BB800610E00019325F66E7E0E00019421F76EEA
:101BC8000900F5CFAFF00900F5CFB0F00900F5CF67
:101BD800B1F00A00F5CFB2F027EC0BF0AFC0CCF0B3
:101BE800B0C0CDF0B1C0CEF0B2C0CFF0CCC0AFF035
:101BF800CDC0B0F0CEC0B1F0CFC0B2F0000E2A6EAA
:101C08000A0E296E0001D051276E286A27BE2806C1
:101C18008BEC23F0D89027362836D89027362836EC
:101C2800610E2724F66E7E0E2820F76E0900F5CF88
:101C3800B3F00900F5CFB4F00900F5CFB5F00A000C
:101C4800F5CFB6F027EC0BF0AFC0C8F0B0C0C9F0C4
:101C5800B1C0CAF0B2C0CBF012000001D051800A66
:101C6800750FD8A057D0000E0001966F0A0E956F19
:101C78000001D0510001936F946B93BF94071AEC45
:101C880021F00001D890933794370001D89093370A
:101C98009437240E00019327000E00019423610E4F
:101CA80000019325F66E7E0E00019421F76E09005F
:101CB800F5CFAFF00900F5CFB0F00900F5CFB1F0DE
:101CC8000A00F5CFB2F0000E2A6E0A0E296E000146
:101CD800D051276E286A27BE28068BEC23F0D890AF
:101CE80027362836D89027362836610E2724F66EF0
:101CF8007E0E2820F76E0900F5CFB3F00900F5CF66
:101D0800B4F00900F5CFB5F00A00F5CFB6F027EC2E
:101D18000BF09AD70001D051040D610EF324F66E32
:101D28007E0EF420F76E0900F5CFC8F00900F5CF54
:101D3800C9F00900F5CFCAF00A00F5CFCBF01200C0
:101D48000001D051800A120FD8A0AAD0000E0001BD
:101D5800966F0A0E956F000E2A6E640E296E0001AA
:101D6800D051276E286A27BE28068BEC23F027C09F
:101D780093F028C094F01AEC21F00001D890933722
:101D880094370001D89093379437240E0001932795
:101D9800000E00019423950E00019325F66E7E0E29
:101DA80000019421F76E0900F5CFB3F00900F5CFD3
:101DB800B4F00900F5CFB5F00A00F5CFB6F0000E83
:101DC8000001966F640E956F0001D0510001936F6A
:101DD800946B93BF94071AEC21F00001D8909337C5
:101DE80094370001D89093379437480E0001932711
:101DF800000E00019423950E00019325F66E7E0EC9
:101E080000019421F76E0900F5CFAFF00900F5CF76
:101E1800B0F00900F5CFB1F00A00F5CFB2F027EC29
:101E28000BF0AFC0CCF0B0C0CDF0B1C0CEF0B2C0B6
:101E3800CFF0CCC0AFF0CDC0B0F0CEC0B1F0CFC0C5
:101E4800B2F0000E2A6E0A0E296E0001D051276EDC
:101E5800286A27BE28068BEC23F0D8902736283628
:101E6800D89027362836950E2724F66E7E0E282021
:101E7800F76E0900F5CFB3F00900F5CFB4F009000B
:101E8800F5CFB5F00A00F5CFB6F027EC0BF0AFC0F0
:101E9800C8F0B0C0C9F0B1C0CAF0B2C0CBF01200EF
:101EA8000001D051800A750FD8A057D0000E00014C
:101EB800966F0A0E956F0001D0510001936F946BD5
:101EC80093BF94071AEC21F00001D8909337943708
:101ED8000001D89093379437240E00019327000E01
:101EE80000019423950E00019325F66E7E0E0001E5
:101EF8009421F76E0900F5CFAFF00900F5CFB0F0E7
:101F08000900F5CFB1F00A00F5CFB2F0000E2A6E45
:101F18000A0E296E0001D051276E286A27BE2806AE
:101F28008BEC23F0D89027362836D89027362836D9
:101F3800950E2724F66E7E0E2820F76E0900F5CF41
:101F4800B3F00900F5CFB4F00900F5CFB5F00A00F9
:101F5800F5CFB6F027EC0BF09AD70001D051040D5D
:101F6800950EF324F66E7E0EF420F76E0900F5CF79
:101F7800C8F00900F5CFC9F00900F5CFCAF00A008A
:101F8800F5CFCBF012000600E9CF1AF0EACF1BF02C
:101F9800E1CF1CF0E2CF1DF0D9CF1EF0DACF1FF051
:101FA800F3CF20F0F4CF21F0F6CF22F0F7CF23F0D3
:101FB800F8CF24F0F5CF25F09EAAF5D100F0B0ECCB
:101FC80025F00201006FEA0E02010019D8B4FF00E3
:101FD800550E02010019D8A4E2D1ABA4ABB2DFD1EF
:101FE8005150D8A4DCD1B0EC25F00201016FABA4AC
:101FF800ABB2D5D15150D8A4D2D1BDD1020E4E6EBC
:10200800060E4E6401D014D04E50010D000EF3247C
:10201800D96E020EF420DA6EB0EC25F0DF6EABA4B8
:10202800ABB2BDD15150D8A4BAD100F04E2AE8D7EE
:10203800070E4E6E13D04E50010D000EF324D96ECC
:10204800020EF420DA6EB0EC25F0DF6EABA4ABB272
:10205800A6D15150D8A4A3D100F04E2A02010651AE
:10206800136E146A090E1326000E14224E50156EB4
:10207800166A1350155C1650800A176E1450800AA1
:102088001758D8A0D8D7000E0A6E020E0B6E0201A0
:102098000651070F0C6ECAEC23F00009D8B47FD1A3
:1020A800070E4F6E03C24EF003D000F04F2A4E2A9F
:1020B8000201035106C213F0146A1326000E1422FB
:1020C8004E50156E166A1350155C1650800A176E1E
:1020D8001450800A1758D8A0E8D7540E016E000E85
:1020E800026E51EC27F0000E4E6E050E4E6401D0C4
:1020F80015D0540E016E000E026E4E50010D000EEA
:10210800F324D96E020EF420DA6EDF50036E03EC6E
:1021180024F084EC27F000F04E2AE7D754C002F0F0
:1021280055C003F071EC27F03AD1020E4E6E070E3F
:102138004E6401D014D04E50010D000EF324D96E18
:10214800020EF420DA6EB0EC25F0DF6EABA4ABB271
:1021580026D15150D8A423D100F04E2AE8D700F058
:10216800000E0A6E020E0B6E060E0C6ECAEC23F001
:102178000009D8B449D0540E016E000E026E51EC1D
:1021880027F0540E016E000E026E550E036E03EC1E
:1021980024F084EC27F0540E016E000E026E410EFE
:1021A800036E03EC24F084EC27F00201035102C211
:1021B80013F0146A13C014F0136A1310476E145006
:1021C800486E0201055104C213F0146A13C014F0DA
:1021D800136A1310496E14504A6E540E016E000EA5
:1021E800026E4FC003F003EC24F084EC27F047287C
:1021F80003E14828D8B408D0474A482A4750495CE0
:1022080048504A58D8B0E9D754C002F055C003F036
:1022180071EC27F0C4D0020E4E6E070E4E6401D04A
:1022280014D04E50010D000EF324D96E020EF42086
:10223800DA6EB0EC25F0DF6EABA4ABB2B0D0515083
:10224800D8A4ADD000F04E2AE8D700F0000E0A6EF0
:10225800020E0B6E060E0C6ECAEC23F00009D8B401
:102268004ED0540E016E000E026E51EC27F0540E43
:10227800016E000E026E550E036E03EC24F084EC22
:1022880027F0540E016E000E026E030E036E03EC6F
:1022980024F084EC27F0020E02010503F350056FC9
:1022A800540E016E000E026E05C203F003EC24F01A
:1022B80084EC27F003C24EF00DD0000E4F6E540E82
:1022C800016E000E026E4FC003F003EC24F084ECA4
:1022D80027F04E2A0201035105C213F0146A13268F
:1022E800000E14224E50156E166A1350155C1650C7
:1022F800800A176E1450800A1758D8A0DED754C029
:1023080002F055C003F071EC27F049D0540E016E6D
:10231800000E026E51EC27F0540E016E000E026E94
:10232800550E036E03EC24F084EC27F0540E016E76
:10233800000E026E440E036E03EC24F084EC27F0CA
:10234800540E016E000E026E550E036E03EC24F05F
:1023580084EC27F054C002F055C003F071EC27F06C
:102368001ED03BEC20F01BD0D90E026E7F0E036E00
:1023780082EC26F014D002010151030AD8B44BD7DD
:10238800130AD8B43BD6510AD8B4CFD6050AD8B464
:10239800BDD7010AD8B4E5D70D0AD8B4E5D79E9AB7
:1023A800AB9800F0AB8825C0F5FF24C0F8FF23C028
:1023B800F7FF22C0F6FF21C0F4FF20C0F3FF1FC0C3
:1023C800DAFF1EC0D9FF1DC0E2FF1CC0E1FF1BC021
:1023D800EAFF1AC0E9FF19C0FBFF18C0FAFF5992BB
:1023E8001100000E286E060E276EE40E296E010EEF
:1023F8002A6E040E2B6E08EC27F0000E286E020ED3
:10240800276EE00E296E010E2A6E040E2B6E08EC64
:1024180027F0568056A012000001ED5197EC26F0E7
:102428000001ED510001E16FE26B0001D890E13746
:10243800E2370001D890E137E237120E0001E125BA
:10244800276E000E0001E221286EDC0E296E010EB7
:102458002A6E040E2B6E08EC27F0960EBFEC26F0C1
:102468008FEC27F00101C351110D070EF326000E62
:10247800F422FB0EF324F66E7D0EF420F76E0800AE
:10248800F550020AD8A416D0000E286E0A0E276E40
:10249800E80E296E010E2A6E040E2B6E08EC27F04A
:1024A800900E0001956F4D0E0001966F010E76ECAF
:1024B80025F027D00101C351110D070EF326000E98
:1024C800F422FB0EF324F66E7D0EF420F76E08005E
:1024D800F550100AD8A41DD0000E286E0E0E276ED7
:1024E800E80E296E010E2A6E040E2B6E08EC27F0FA
:1024F800900E0001956F4D0E0001966F040E76EC5C
:1025080025F095C0D8F196C0D9F197C0DAF198C0F6
:10251800DBF1E4C1B3F0E5C1B4F0E6C1B5F0E7C161
:10252800B6F0FE0E00019F6FFF0EA06FFF0EA16FA9
:10253800CA0EA26FD8C127F0D9C128F0DAC129F094
:10254800DBC12AF0000E4BEC1AF027C09BF028C024
:102558009CF029C09DF02AC09EF0D3EC08F09BC0E7
:10256800AFF09CC0B0F09DC0B1F09EC0B2F027ECB7
:102578000BF0AFC0C8F1B0C0C9F1B1C0CAF1B2C068
:10258800CBF1E8C1CCF0E9C1CDF0EAC1CEF0EBC1A6
:10259800CFF0000E0001B36F000EB46F000EB56FE0
:1025A800400EB66FC8C1AFF0C9C1B0F0CAC1B1F032
:1025B800CBC1B2F027EC0BF0AFC0C8F0B0C0C9F087
:1025C800B1C0CAF0B2C0CBF0DFEC13F0C8C0CCF198
:1025D800C9C0CDF1CAC0CEF1CBC0CFF10101C35102
:1025E800110D070EF326000EF422FB0EF324F66EEF
:1025F8007D0EF420F76E0800F550276E286A296AC8
:102608002A6A000E4BEC1AF027C0CCF028C0CDF097
:1026180029C0CEF02AC0CFF0CCC1C8F0CDC1C9F0D6
:10262800CEC1CAF0CFC1CBF0DFEC13F0C8C0D0F1F7
:10263800C9C0D1F1CAC0D2F1CBC0D3F1E0C19FF07B
:10264800E1C1A0F0E2C1A1F0E3C1A2F0FF0E0001D8
:10265800CC6FFF0ECD6F7F0ECE6F4B0ECF6FD0C1FC
:10266800C8F0D1C1C9F0D2C1CAF0D3C1CBF0DFECF8
:1026780013F0C8C09BF0C9C09CF0CAC09DF0CBC085
:102688009EF0D3EC08F09BC0D4F19CC0D5F19DC05E
:10269800D6F19EC0D7F1D4C19BF0D5C19CF0D6C16C
:1026A8009DF0D7C19EF0DCC19FF0DDC1A0F0DEC176
:1026B800A1F0DFC1A2F0D3EC08F09BC0C4F19CC02C
:1026C800C5F19DC0C6F19EC0C7F192EC27F0C4C108
:1026D800C8F0C5C1C9F0C6C1CAF0C7C1CBF0010175
:1026E800C351110D040EF326000EF422FB0EF32441
:1026F800F66E7D0EF420F76E0900F5CFCCF00A00D7
:10270800F5CFCDF00101C351110D060EF326000ED1
:10271800F422FB0EF324F66E7D0EF420F76E08000B
:10272800F5CFE1F0FF0E0001E1250001CE6F0001B9
:10273800CF6BFF0ECF23B4EC1EF00001ED51040D5A
:10274800A00EF324D96E010EF420DA6E0001C8C081
:10275800DEFF0001C9C0DEFF0001CAC0DEFF0001C4
:10276800CBC0DEFFF29E0001ED51040DA00EF32454
:10277800D96E010EF420DA6E0001ED51040D6B0ED6
:10278800F324E16E020EF420E26EDECFE6FFDECF28
:10279800E6FFDECFE6FFDECFE6FFF28E0001ED2B8F
:1027A800070E0001ED170001ED510001D8B4569253
:1027B8005690568412000001CB51800B0001D46F53
:1027C8000001CB51CB250001DF6F0001CAAF02D059
:1027D8000001DF810001DF510001D8B412D00001EF
:1027E800DF29D8A409D0000E0001C86F000EC96FF8
:1027F800000ECA6F000ECB6F0001CA8F000E0001D9
:1028080008D0000E0001C86F000EC96F000ECA6F15
:10281800000ECB6F0001CF51800B0001D41B0001CB
:10282800CF51CF250001E06F0001CEAF02D00001EB
:10283800E0810001E0510001D8B412D00001E02984
:10284800D8A409D0000E0001CC6F000ECD6F000E89
:10285800CE6F000ECF6F0001CE8F000E000108D0A2
:10286800000E0001CC6F000ECD6F000ECE6F000E73
:10287800CF6F0001CC510001CD110001CE11000134
:10288800CF11D8A417D0000E0001C86F000EC96F71
:10289800000ECA6F000ECB6F0001800ECA137F0EA8
:1028A800CB13C8C0C8F0C9C0C9F0CAC0CAF0CBC0F1
:1028B800CBF012000001DF510001D8A412D0000EA5
:1028C8000001C86F000EC96F000ECA6F000ECB6FF3
:1028D800C8C0C8F0C9C0C9F0CAC0CAF0CBC0CBF0E4
:1028E80012000001E0510001D06FD16B0001D01F30
:1028F800D11FD04BD12B0001DF510001D26FD36B18
:102908000001D0510001D2270001D1510001D32389
:102918007F0E0001D2250001D96F000E0001D321DE
:102928000001DA6FC8C0D5F0C9C0D6F0CAC0D7F068
:10293800CBC0D8F0000E0001C86F000EC96F000EA2
:10294800CA6F000ECB6F000E0001DB6F000EDC6F4C
:10295800000EDD6F000EDE6F000E0001E06F42D04A
:102968000001E0510001D8B417D00001D890D53744
:10297800D637D737D8370001D890C837C937CA37BC
:10298800CB370001DEAF02D00001C8810001D8902A
:10299800DB37DC37DD37DE370001CC510001D55D90
:1029A8000001CD510001D6590001CE510001D7597F
:1029B8000001CF510001D859D8A012D00001DE8DF6
:1029C8000001CC510001D55F0001CD510001D65B5B
:1029D8000001CE510001D75B0001CF510001D85B47
:1029E8000001E02B190E0001E065BAD70001D551AE
:1029F8000001D6110001D7110001D811D8B418D0A0
:102A08000001DB8115D00001D890C837C937CA3713
:102A1800CB370001DEAF02D00001C8810001D89099
:102A2800DB37DC37DD37DE370001D907D8A0DA0716
:102A38000001CAAFE8D7000E0001E06F0001DEAF69
:102A480024D0FF0E0001DB150001D06FFF0E00013E
:102A5800DC150001D16FFF0E0001DD150001D26FFA
:102A68007F0E0001DE150001D36F0001D051000177
:102A7800D1110001D2110001D311D8A403D0000153
:102A8800C8A103D0010E0001E06F0001E051000170
:102A9800D8B423D0010E0001C827000EC923CA23C9
:102AA800CB230001CBA119D0C8C0D0F0C9C0D1F048
:102AB800CAC0D2F0CBC0D3F00001D335D333D23360
:102AC800D133D033D0C0C8F0D1C0C9F0D2C0CAF019
:102AD800D3C0CBF00001D94BDA2B0001DABF14D0F8
:102AE8000001DA5104E10001D929D8A00DD0000E67
:102AF8000001DA6FD969000E0001C86F000EC96FB6
:102B0800000ECA6F000ECB6F0001DABF07D00001BC
:102B1800DA5115E10001D905D8B011D0000E000135
:102B2800DA6F000ED96F000E0001C86F000EC96F72
:102B3800000ECA6F000ECB6F000E0001D46FD9C013
:102B4800DFF00001DFA103D00001CA8F02D000012D
:102B5800CA9F0001D890DF310001CB6F0001D4512A
:102B68000001CB13C8C0C8F0C9C0C9F0CAC0CAF0B8
:102B7800CBC0CBF012000101C9AF1FD0010E01017B
:102B8800CC6FC6C1AFF0C7C1B0F0C8C1B1F0C9C100
:102B9800B2F0000E0001B36F000EB46F800EB56F77
:102BA800BF0EB66F27EC0BF0AFC0C6F1B0C0C7F1CF
:102BB800B1C0C8F1B2C0C9F103D0000E0101CC6F99
:102BC8000101CB510101D8A414D0C6C19BF0C7C1E3
:102BD8009CF0C8C19DF0C9C19EF0000E00019F6F16
:102BE800000EA06F000EA16F3F0EA26FD3EC08F08D
:102BF80030D00101CB05D8A414D0C6C19BF0C7C101
:102C08009CF0C8C19DF0C9C19EF0CD0E00019F6F18
:102C1800CC0EA06F4C0EA16F3D0EA26FD3EC08F046
:102C280018D0020E0101CB19D8A41BD0C6C19BF045
:102C3800C7C19CF0C8C19DF0C9C19EF00A0E000131
:102C48009F6FD70EA06FA30EA16F3B0EA26FD3ECA0
:102C580008F09BC0C6F19CC0C7F19DC0C8F19EC0DA
:102C6800C9F10101CB290101CD6F1DD0C6C1AFF05B
:102C7800C7C1B0F0C8C1B1F0C9C1B2F0000E0001BF
:102C8800B36F000EB46F200EB56F410EB66F27EC10
:102C98000BF0AFC0C6F1B0C0C7F1B1C0C8F1B2C047
:102CA800C9F10101CD070101CD510101D8A4DED739
:102CB8000101CA510101CB25030F0101CD6F63D07A
:102CC8000101CD070101CD510001E56FE66B01015E
:102CD800CA510001E76FE86B010E0001E727000EFB
:102CE800E8230001E5510001E71906E10001E6517A
:102CF8000001E819D8B447D00101CD51010DF350B6
:102D08000101C425D96EF4500101C521DA6EC6C18E
:102D1800D1F0C7C1D2F0C8C1D3F0C9C1D4F03CECDE
:102D28001FF0D1C0DBF0D2C0DCF0D3C0DDF0D4C0DE
:102D3800DEF00A0E0001DF6F000EE06F000EE16F9B
:102D4800000EE26FC2EC1FF00001DB51300FDF6EA6
:102D5800C6C1C8F0C7C1C9F0C8C1CAF0C9C1CBF063
:102D6800000E0001CC6F000ECD6F200ECE6F410E0D
:102D7800CF6FDFEC13F0C8C0C6F1C9C0C7F1CAC035
:102D8800C8F1CBC0C9F10101CD510101D8A498D730
:102D9800D00E0001E56FFF0E0001E66FC4C1D9FF38
:102DA800C5C1DAFFDF500001E76FE86B0001E551AC
:102DB8000001E7270001E6510001E8230001E7517F
:102DC8000001E811D8A468D0000E0101CD6F5ED0D3
:102DD800D00E0001E56FFF0E0001E66F0101CD5135
:102DE800010DF3500101C425D96EF4500101C5212C
:102DF800DA6EDF500001E76FE86B0001E551000172
:102E0800E7270001E6510001E8230001E75100012E
:102E1800E811D8A414D00101CA510101CD19D8B4C0
:102E28000ED00101CD51010DF3500101C425D96E19
:102E3800F4500101C521DA6E200EDF6E25D00101A4
:102E4800CC510101D8B428D0FF0E0001E56FFF0E68
:102E58000001E66F0101CD510001E76FE86B000149
:102E6800E5510001E7270001E6510001E8230001D0
:102E7800E7510101C425D96E0001E8510101C521BE
:102E8800DA6E2D0EDF6E08D00101CD2B0101CD5178
:102E98000101CA5DD8B09CD70101CA510001E56F94
:102EA800E66B010E0001E527000EE6230001E5515F
:102EB8000101C425D96E0001E6510101C521DA6E70
:102EC8002E0EDF6E0101CB51CAC1E5F00001E66BA1
:102ED8000001E527000EE623020E0001E527000E9B
:102EE800E6230001E5510101C425D96E0001E65130
:102EF8000101C521DA6E000EDF6E120067D156A4FB
:102F080012005694000E0201B36F030E0201B3655E
:102F180001D027D1B3C294F0000E3CEC24F08B0E04
:102F28000101CE6F020E0101CF6F0201B351020DF4
:102F3800D890F336F436D890F336F436A00EF3244E
:102F4800D96E010EF420DA6EDECFD0F1DECFD1F1EA
:102F5800DECFD2F1DECFD3F10101C351110D090E3D
:102F6800F326000EF422FB0EF324F66E7D0EF420F9
:102F7800F76E0900F5CFD4F10900F5CFD5F10900B6
:102F8800F5CFD6F10A00F5CFD7F10101C351110DE4
:102F98000D0EF326000EF422FB0EF324F66E7D0EC2
:102FA800F420F76E0900F5CFD8F10900F5CFD9F173
:102FB8000900F5CFDAF10A00F5CFDBF1030E0101C4
:102FC800DC6F0101C351110D080EF326000EF42227
:102FD800FB0EF324F66E7D0EF420F76E0800F5CF95
:102FE800DDF11FEC1EF09F0E0101CE6F020E0101F4
:102FF800CF6F0201B3510101E96FEA6BD89001016B
:10300800E937EA370101D890E937EA370101D89062
:10301800E937EA37040E0101E927000EEA23A00E7A
:103028000101E925D96E010E0101EA21DA6EDECF30
:10303800D0F1DECFD1F1DECFD2F1DECFD3F1010175
:10304800C351110D090EF326000EF422FB0EF324D2
:10305800F66E7D0EF420F76E0900F5CFD4F1090065
:10306800F5CFD5F10900F5CFD6F10A00F5CFD7F1A4
:103078000101C351110D0D0EF326000EF422FB0EB3
:10308800F324F66E7D0EF420F76E0900F5CFD8F123
:103098000900F5CFD9F10900F5CFDAF10A00F5CF2B
:1030A800DBF1030E0101DC6F0101C351110D080EA4
:1030B800F326000EF422FB0EF324F66E7D0EF420A8
:1030C800F76E0800F5CFDDF11FEC1EF0490E000188
:1030D800DB6F020E0001DC6FEF0E0001DD6F7F0E6B
:1030E8000001DE6F8B0E0001DF6F020E0001E06F42
:1030F8000101C351110D020EF326000EF422FB0E3E
:10310800F324F66E7D0EF420F76E0900F5CFE1F09A
:103118000A00F5CFE2F09F0E0001E36F020E0001F6
:10312800E46F0101C351110D020EF326000EF422C3
:10313800FB0EF324F66E7D0EF420F76E0900F5CF32
:10314800E5F00A00F5CFE6F068EC00F0490E000162
:10315800946F020E0001956F74EC22F00201B32BFC
:10316800D4D681AE0FD0030E0001946F080E3CEC4C
:1031780024F00101C22B0101C2A112002E0ECAECDB
:1031880025F01200030E0001946F080E3CEC24F0A9
:103198000101C22B0101C2A103D0530ECAEC25F0D4
:1031A800020E0001946F080E3CEC24F00101C1519D
:1031B800D8A404D04B0ECAEC25F012000101C105B9
:1031C800D8A412005A0ECAEC25F012000101C05111
:1031D800010AD8A4120093D60001D46F6D0E000125
:1031E800D465BCD0000E0001966F0A0E956F000ED4
:1031F8002A6E640E296ED4C027F0286A8BEC23F05F
:1032080027C093F028C094F01AEC21F00001D89060
:10321800933794370001D89093379437240E0001E0
:103228009327000E00019423610E00019325F66E8A
:103238007E0E00019421F76E0900F5CFB3F0090066
:10324800F5CFB4F00900F5CFB5F00A00F5CFB6F028
:10325800000E0001966F640E956FD4C093F00001C4
:10326800946B1AEC21F00001D89093379437000141
:10327800D89093379437480E00019327000E000129
:103288009423610E00019325F66E7E0E00019421B1
:10329800F76E0900F5CFAFF00900F5CFB0F00900DF
:1032A800F5CFB1F00A00F5CFB2F027EC0BF0AFC0C4
:1032B800D0F0B0C0D1F0B1C0D2F0B2C0D3F0000E9F
:1032C8002A6E0A0E296ED4C027F0286A8BEC23F0E8
:1032D800D89027362836D89027362836610E2724E6
:1032E800F66E7E0E2820F76E0900F5CFB3F00900C0
:1032F800F5CFB4F00900F5CFB5F00A00F5CFB6F078
:10330800D0C0AFF0D1C0B0F0D2C0B1F0D3C0B2F0ED
:1033180027EC0BF0AFC0CCF0B0C0CDF0B1C0CEF010
:10332800B2C0CFF0CCC0AFF0CDC0B0F0CEC0B1F0DD
:10333800CFC0B2F0000E0001B36F000EB46F000EE4
:10334800B56F3F0EB66F27EC0BF0AFC0C8F0B0C03A
:10335800C9F0B1C0CAF0B2C0CBF012000A0E000129
:10336800D4656CD0000E2A6E0A0E296ED4C027F0E0
:10337800286A8BEC23F0D89027362836D890273641
:103388002836610E2724F66E7E0E2820F76E090077
:10339800F5CFB3F00900F5CFB4F00900F5CFB5F0DB
:1033A8000A00F5CFB6F0000E0001966F0A0E956F71
:1033B800D4C093F00001946B1AEC21F00001D8906E
:1033C800933794370001D89093379437240E00012F
:1033D8009327000E00019423610E00019325F66ED9
:1033E8007E0E00019421F76E0900F5CFAFF00900B9
:1033F800F5CFB0F00900F5CFB1F00A00F5CFB2F083
:1034080027EC0BF0AFC0D0F0B0C0D1F0B1C0D2F013
:10341800B2C0D3F0D0C0AFF0D1C0B0F0D2C0B1F0DC
:10342800D3C0B2F0000E0001B36F000EB46F000EEF
:10343800B56F3F0EB66F27EC0BF087D70001D4515C
:10344800040D610EF324F66E7E0EF420F76E09006B
:10345800F5CFAFF00900F5CFB0F00900F5CFB1F026
:103468000A00F5CFB2F0000E0001B36F000EB46F82
:10347800000EB56F3F0EB66F27EC0BF0AFC0C8F06B
:10348800B0C0C9F0B1C0CAF0B2C0CBF012000001A0
:10349800956F000195510001D8A42AAE1BD027C012
:1034A80091F028C092F029C093F02AC094F000014E
:1034B800911F921F931F941F912B000E9223932309
:1034C800942391C097F092C098F093C099F094C05B
:1034D8009AF008D027C097F028C098F029C099F032
:1034E8002AC09AF02750281029102A10D8A409D0E9
:1034F800000E276E000E286E000E296E000E2A6E32
:103508001200960E0001966F08D00001962B00015C
:10351800D8909A33993398339733000E0001971552
:103528000001916F000E000198150001926F000EC6
:10353800000199150001936FFE0E00019A15000114
:10354800946F000191510001921100019311000143
:103558009411D8B410D0D9D70001962B010E0001D0
:103568009727000E982399239A230001D8909A331D
:10357800993398339733000E000197150001916F26
:10358800000E000198150001926F000E00019915B8
:103598000001936FFF0E00019A150001946F00015E
:1035A8009151000192110001931100019411D8B4B6
:1035B80009D0D2D7000196070001D89097379837DD
:1035C80099379A37000199BF04D0020E000196611D
:1035D800F1D7000196B109D0FF0E00019717FF0E31
:1035E80098177F0E9917FF0E9A170001D8909633F7
:1035F80096C091F00001926B936B946B91C094F01C
:103608000001936B926B916B00019151000197132C
:103618000001925100019813000193510001991380
:103628000001945100019A13000195510001D8A49A
:103638002AAE02D000019A8F97C027F098C028F0D0
:1036480099C029F09AC02AF0120093C027F0286A7E
:10365800296A00019235273601E3288027500001A6
:103668009C6F00019C51D8A40AD0000E0001916FF4
:10367800000E926F000E936F000E946F120096C0AA
:1036880027F0286A296A00019535273601E3288042
:10369800275000019B6F00019B51D8A40AD0000E4F
:1036A8000001916F000E926F000E936F000E946FE1
:1036B80012000001928FFF0E00019117FF0E00010A
:1036C8009217000E000193170001958FFF0E00015D
:1036D8009417FF0E00019517000E00019617000EB3
:1036E8000001976F000E986F000E996F000E9A6F89
:1036F8007F0E00019C5F00019B51980F00019C5FA9
:10370800180E00019B6F0001D890973798379937AA
:103718009A37000194510001915D00019551000113
:1037280092590001965100019359D8A00ED000017A
:1037380094510001915F000195510001925B0001D5
:1037480096510001935B000197810001D890913751
:103758009237933700019B2FD6D700019CAF1AD020
:1037680000019C51800A970FD8B00AD0000E0001C2
:10377800916F000E926F000E936F000E946F1200FF
:103788000001D8909A3399339833973300019C3FBE
:10379800F7D71BD0170E00019C6512D0000E000150
:1037A800916F000E926F000E936F000E946F1200CF
:1037B8000001D8909737983799379A3700019C07B6
:1037C80000019C510001D8A4F3D797C091F098C08C
:1037D80092F099C093F09AC094F0120000019335CA
:1037E800943500019E6F00019E51D8A40AD0000EA6
:1037F8000001916F000E926F000E936F000E946F90
:10380800120000019735983500019D6F00019D5108
:10381800D8A40AD0000E0001916F000E926F000E1E
:10382800936F000E946F12000001938FFF0E00013A
:103838009117FF0E9217FF0E9317000E94170001B1
:10384800978FFF0E00019517FF0E9617FF0E97171B
:10385800000E9817000E0001996F000E9A6F000E67
:103868009B6F000E9C6F7F0E00019E5F00019D51B3
:10387800A00F00019E5F200E00019D6F0001D890EF
:1038880099379A379B379C37000195510001915D14
:103898000001965100019259000197510001935976
:1038A8000001985100019459D8A012D000019551F7
:1038B8000001915F000196510001925B0001975150
:1038C8000001935B000198510001945B000199810C
:1038D8000001D890913792379337943700019D2F84
:1038E800CDD700019EAF1AD000019E51800A9F0FCC
:1038F800D8B00AD0000E0001916F000E926F000E32
:10390800936F000E946F12000001D8909C339B3384
:103918009A33993300019E3FF7D71BD01F0E000141
:103928009E6512D0000E0001916F000E926F000E7E
:10393800936F000E946F12000001D89099379A3750
:103948009B379C3700019E0700019E510001D8A4B7
:10395800F3D799C091F09AC092F09BC093F09CC0A5
:1039680094F01200000E896E000E8A6E000E8B6EA7
:10397800000EC26E0F0EC16E0F0EC06E6AEC27F0FD
:10398800320E926EC30E936E900E946E070E97ECE5
:1039980026F0F19EF19CF19AF08CF096F298F29252
:1039A800F090000EC76E310EC66E830ED56EF19480
:1039B800F28AF28C9D8A9F8AD08E03EC25F0010E44
:1039C8002AEC26F0800E2AEC26F04BEC23F0010EB0
:1039D8002AEC26F0800E2AEC26F0000E0001946FE7
:1039E800000E3CEC24F04E0E0001946F7F0E000197
:1039F800956F57EC26F0000E286E320E276EC30E18
:103A0800296E010E2A6E010E2B6E08EC27F0020EAD
:103A18000001946F000E3CEC24F00101C351110D1C
:103A2800FB0EF324F66E7D0EF420F76E0900F5CF39
:103A380094F00A00F5CF95F074EC22F0040E27EC10
:103A480027F00101C351110D070EF326000EF422D1
:103A5800FB0EF324F66E7D0EF420F76E0800F55089
:103A6800020AD8A40DD0900E0001986F0D0E000127
:103A7800996F000E00019A6F010EF7EC26F01ED028
:103A88000101C351110D070EF326000EF422FB0E9F
:103A9800F324F66E7D0EF420F76E0800F550100A38
:103AA800D8A40CD0900E0001986F0D0E0001996FEC
:103AB800000E00019A6F040EF7EC26F0568256802D
:103AC800E5EC26F0F28E040059EC06F0F5EC11F066
:103AD80082EC17F072EC24F0F6D7000E0001911575
:103AE800276E000E00019215286E800E00019315B6
:103AF800296E7F0E000194152A6E27502810291070
:103B08002A10D8A409D0000E0001916F000E926F00
:103B1800000E936F000E946F000E00019515276E2E
:103B2800000E00019615286E800E00019715296E6B
:103B38007F0E000198152A6E2750281029102A1088
:103B4800D8A409D0000E0001956F000E966F000EE4
:103B5800976F000E986F000194AF21D091C027F0A5
:103B680092C028F093C029F094C02AF0271E281E7E
:103B7800291E2A1E272A000E282229222A22000E60
:103B880027240001916F000E28200001926F000E7B
:103B980029200001936F800E2A200001946F0001F4
:103BA80098AF21D095C027F096C028F097C029F08B
:103BB80098C02AF0271E281E291E2A1E272A000E12
:103BC800282229222A22000E27240001956F000EA0
:103BD80028200001966F000E29200001976F800EA3
:103BE8002A200001986F000E0001911B000E921B05
:103BF800000E931B800E941B000E0001951B000EF7
:103C0800961B000E971B800E981B00019551000112
:103C1800915D0001965100019259000197510001F0
:103C280093590001985100019459D8B002D0D89006
:103C38001200D8801200D0C191F0D1C192F0D2C147
:103C480093F0D3C194F0D8C195F0D9C196F0DAC1F8
:103C580097F0DBC198F071EC1DF00001D8B015D0D9
:103C6800D4C191F0D5C192F0D6C193F0D7C194F0E8
:103C7800D0C195F0D1C196F0D2C197F0D3C198F0D8
:103C880071EC1DF00001D8A058D00101DC510101F0
:103C9800DD250101DE6F0101DE292B6E2B500101AC
:103CA800DE6FDF6B010E0101DE27000EDF2301014D
:103CB800DE510101CE25D96E0101DF510101CF216D
:103CC800DA6E000EDF6E2B50010DF3500101CE2588
:103CD800D96EF4500101CF21DA6E200EDF6E0DD0BF
:103CE8002B50010DF3500101CE25D96EF45001017E
:103CF800CF21DA6E2D0EDF6E2B062B50D8A4F0D70D
:103D08000101DC510101DE6FDF6B010E0101DE27CD
:103D1800000EDF230101DE510101CE25D96E01011C
:103D2800DF510101CF21DA6E2E0EDF6ECEC1D9FF31
:103D3800CFC1DAFF200EDF6E1200CEC1C4F1CFC1B1
:103D4800C5F1D0C1C6F1D1C1C7F1D2C1C8F1D3C143
:103D5800C9F1DCC1CAF1DDC1CBF1BFEC15F012002D
:103D6800CEC0D0F0CFC0D1F00001D890D037D13735
:103D78000001D890D037D137CCC0D2F0CDC0D3F025
:103D88000001D0510001D2270001D1510001D323F5
:103D9800D2C0F6FFD3C0F7FF0900F5CFD4F0090071
:103DA800F5CFD5F00900F5CFD6F00A00F5CFD7F05A
:103DB80050D0D4C0B3F0D5C0B4F0D6C0B5F0D7C099
:103DC800B6F0C8C0AFF0C9C0B0F0CAC0B1F0CBC03F
:103DD800B2F027EC0BF0AFC09BF0B0C09CF0B1C0C4
:103DE8009DF0B2C09EF00001CE07D8A0CF07CEC08C
:103DF800D0F0CFC0D1F00001D890D037D137000132
:103E0800D890D037D137CCC0D2F0CDC0D3F0000194
:103E1800D0510001D2270001D1510001D323D2C0D3
:103E2800F6FFD3C0F7FF0900F5CF9FF00900F5CFE3
:103E3800A0F00900F5CFA1F00A00F5CFA2F0D3EC6D
:103E480008F09BC0D4F09CC0D5F09DC0D6F09EC0B1
:103E5800D7F00001CE510001CF11D8A4AAD7D4C001
:103E6800C8F0D5C0C9F0D6C0CAF0D7C0CBF0120090
:103E78000001D335D4350001DA6F0001DA51D8A436
:103E88000AD0000E0001D16F000ED26F000ED36F62
:103E9800000ED46F1200D1C0D5F0D2C0D6F0D3C076
:103EA800D7F0D4C0D8F0200E06D00001D890D8336F
:103EB800D733D633D533E82EF8D70001D5510001D2
:103EC800D96F0001D38FFF0E0001D117FF0ED21753
:103ED800FF0ED317000ED417960E0001DA5F00010B
:103EE800DAAF1AD00001DA51800A970FD8B00AD099
:103EF800000E0001D16F000ED26F000ED36F000EBE
:103F0800D46F12000001D890D433D333D233D133D5
:103F18000001DA3FF7D71BD01F0E0001DA6512D077
:103F2800000E0001D16F000ED26F000ED36F000E8D
:103F3800D46F12000001D890D137D237D337D43795
:103F48000001DA070001DA510001D8A4F3D7000113
:103F5800D9510001D8B409D00001D41FD31FD21FF2
:103F6800D16D000ED223D323D423D1C0D1F0D2C037
:103F7800D2F0D3C0D3F0D4C0D4F01200000E0001A8
:103F8800E46F0001DEAF0CD00001DE1FDD1FDC1F77
:103F9800DB6D000EDC23DD23DE23010E0001E46F60
:103FA8000001E2AF09D00001E21FE11FE01FDF6D51
:103FB800000EE023E123E2230001DF510001E011BC
:103FC8000001E1110001E211D8B43AD0010E00015C
:103FD800E36F08D00001D890DF37E037E137E237E8
:103FE8000001E32B0001E2AFF5D70001DF5100012A
:103FF800DB5D0001E0510001DC590001E1510001E5
:10400800DD590001E2510001DE59D8A010D00001AD
:10401800DF510001DB5F0001E0510001DC5B0001C2
:10402800E1510001DD5B0001E2510001DE5B0001AE
:10403800D890E233E133E033DF330001E32FD5D703
:104048000001E4510001D8B409D00001DE1FDD1FD2
:10405800DC1FDB6D000EDC23DD23DE23DBC0DBF0A1
:10406800DCC0DCF0DDC0DDF0DEC0DEF0120000F008
:10407800540E016E000E026E51EC27F0540E016EC4
:10408800000E026E550E036E03EC24F084EC27F04C
:10409800540E016E000E026E450E036E03EC24F002
:1040A80084EC27F0000E0A6E070E0A6401D049D08E
:1040B8000A50040D6B0EF3244B6E020EF4204C6E66
:1040C80000F0540E016E000E026E4BC0D9FF4CC0BA
:1040D800DAFFDF50036E03EC24F084EC27F04B4A40
:1040E8004C2A540E016E000E026E4BC0D9FF4CC014
:1040F800DAFFDF50036E03EC24F084EC27F04B4A20
:104108004C2A540E016E000E026E4BC0D9FF4CC0F3
:10411800DAFFDF50036E03EC24F084EC27F04B4AFF
:104128004C2A540E016E000E026E4BC0D9FF4CC0D3
:10413800DAFFDF50036E03EC24F084EC27F00A2A40
:10414800B3D754C002F055C003F071EC27F0120049
:104158000001976F010E2AEC26F0800E2AEC26F05B
:10416800000197510001D8A449D0000E0001946FB6
:10417800010E3CEC24F0310ECAEC25F0000E0001D3
:10418800946F090E3CEC24F0320ECAEC25F0010EB7
:104198000001946F010E3CEC24F0330ECAEC25F0BC
:1041A800010E0001946F090E3CEC24F0340ECAECA9
:1041B80025F0020E0001946F010E3CEC24F0350E40
:1041C800CAEC25F0020E0001946F090E3CEC24F0B5
:1041D800360ECAEC25F0030E0001946F010E3CEC7C
:1041E80024F0370ECAEC25F0030E0001946F090E77
:1041F8003CEC24F0380ECAEC25F01200010E000148
:10420800946F000E3CEC24F00101C351110DFB0E1C
:10421800F324F66E7D0EF420F76E0900F5CF94F0C6
:104228000A00F5CF95F074EC22F01200000E0001A0
:10423800986F000196AF08D00001956D961FD8B011
:10424800962B010E0001986F000194AF08D0000171
:10425800936D941FD8B0942B010E0001981B000E8B
:1042680000019A6F000E996F000195510001961197
:10427800D8B42CD0010E0001976F06D00001D89059
:10428800953796370001972B000196AFF7D70001B5
:10429800D89099379A37000195510001935D000134
:1042A800965100019459D8A00AD0000195510001F7
:1042B800935F000196510001945B00019981000110
:1042C800D890963395330001972FE1D70001985184
:1042D8000001D8B405D00001996D9A1FD8B09A2B67
:1042E80099C093F09AC094F012000001966F000EE6
:1042F8000001976F8B868B8A9488949A94969394EE
:104308008FEC27F041EC26F0FF0EABEC26F0FF0E09
:10431800ABEC26F0FF0EABEC26F0FF0EABEC26F074
:1043280041EC26F0600EABEC26F0000EABEC26F06C
:104338000001976F280EABEC26F000019351ABEC0F
:1043480026F0100EABEC26F000019651ABEC26F0EF
:1043580000019151ABEC26F0080EABEC26F0000101
:104368009451ABEC26F0000192514009ABEC26F0D9
:1043780062EC27F0080EABEC26F000019551ABEC8F
:1043880026F0000192514009ABEC26F062EC27F0D0
:1043980092EC27F0000197510F0B1200000E276EC8
:1043A800000E286E000E296E000E2A6E000195512F
:1043B800000196110001971100019811D8B43DD061
:1043C800010E2B6E07D00001D89095379637973796
:1043D80098372B2A000198AFF6D7D8902736283679
:1043E80029362A36000195510001915D0001965148
:1043F8000001925900019751000193590001985109
:1044080000019459D8A011D0000195510001915F85
:10441800000196510001925B000197510001935BE6
:10442800000198510001945B27800001D8909833CF
:104438009733963395332B2ED0D727C091F028C0C9
:1044480092F029C093F02AC094F01200000195510F
:10445800000196110001971100019811D8B437D0C6
:10446800010E276E07D00001D890953796379737F9
:104478009837272A000198AFF6D700019551000117
:10448800915D000196510001925900019751000178
:1044980093590001985100019459D8A010D00001F7
:1044A80095510001915F000196510001925B000156
:1044B80097510001935B000198510001945B000142
:1044C800D8909833973396339533272ED6D791C003
:1044D80091F092C092F093C093F094C094F01200BF
:1044E80035D0010ECAEC25F02ED0020ECAEC25F00C
:1044F8002AD094C0F6FF95C0F7FFF86A050EF76456
:1045080003D00800F55005D0F6CFE9FFF7CFEAFF52
:10451800EF50CAEC25F017D094C0F6FF95C0F7FF0E
:10452800F86A050EF76403D00800F55005D0F6CFF9
:10453800E9FFF7CFEAFFEF50400AD8B4D2D71E0AF6
:10454800D8B4D3D7D6D70001944B952B94C0F6FF97
:1045580095C0F7FFF86A050EF76403D00800F55018
:1045680005D0F6CFE9FFF7CFEAFFEF500009D8B43E
:104578001200D2D781A081B21BD045504610D8B4C2
:1045880017D0010E576E010E586E454A462A4650FE
:1045980004E1650E455CD8A01200000E466E000EC0
:1045A800456E010E33EC27F0040E33EC27F01200B1
:1045B80081B081A204D0000E466E010E456E4550B2
:1045C8004610D8B4120081B002D0000E0AD057505D
:1045D800D8A406D0010E33EC27F0020E33EC27F0F6
:1045E800010E576E81B203D0000E586E120058505B
:1045F800D8A406D0010E33EC27F0030E33EC27F0D5
:10460800010E586E1200010E2AEC26F0800E2AECDC
:1046180026F0000E0001986F030E0001986501D086
:1046280029D098C094F0000E3CEC24F00101C3514D
:104638003FEC27F00001976F000197510001982582
:10464800286E296A2936000E2B6E110E2A6E6DEC23
:1046580026F0FB0E2824F66E7D0E2920F76E090041
:10466800F5CF94F00A00F5CF95F074EC22F0000134
:10467800982BD2D70101C3515AEC27F00001946F4F
:10468800000E3CEC24F02A0ECAEC25F01200000EB5
:104698000001956F480E0001946F000194512AECB7
:1046A80026F00001942B140E506E000100F000F06B
:1046B80000F000F000F0502F5AEF23F00001955160
:1046C800010DC90EF324F66E7E0EF420F76E080075
:1046D800F550CAEC25F00001952B140E506E000120
:1046E80000F000F000F000F000F0502F74EF23F01D
:1046F80000019551010DC90EF324F66E7E0EF420CB
:10470800F76E0800F5500009D8B41200C6D7000E9D
:104718000001926F28AE07D0276C281ED8B0282A2F
:10472800010E0001926F2AAE04D0296C2A1ED8B05F
:104738002A2A29502A10D8B41BD0010E0001916FE3
:1047480005D0D89029362A360001912B2AAEF9D700
:104758002950275C2A502858D8A004D02950275E11
:104768002A50285AD8902A3229320001912FF0D79E
:10477800000192510001D8B404D0276C281ED8B08B
:10478800282A27C027F028C028F01200110E016E31
:10479800000E026E51EC27F0000E106E0FD0110EB5
:1047A800016E000E026E0AC0D9FF0BC0DAFFDF509F
:1047B800036E03EC24F00A4A0B2A102A0C50105CF2
:1047C800D8A0EDD70AC0D9FF0BC0DAFF0A4A0B2AD6
:1047D8001150DE18D8A411D00AC0D9FF0BC0DAFFD7
:1047E80011C00EF012C00FF00FC00EF00F6ADE50AD
:1047F8000E18D8A402D0010E1200000E12000350A9
:1048080001C0D9FF02C0DAFFDE1A000EDD1A000E61
:10481800096E070E096401D029D001C0D9FF02C072
:10482800DAFFDF50010B086E01C0D9FF02C0DAFFC2
:10483800DECF04F0DDCF05F0D8900530076E0430E8
:10484800066E01C0D9FF02C0DAFF06C0DEFF07C04E
:10485800DDFF0850D8B408D001C0D9FF02C0DAFF84
:10486800010EDE1AA00EDD1A092AD3D70350120052
:104878000001966F000EF2BE010E0001956FF29EC8
:1048880018D000019651800F2AEC26F020D00001A4
:104898009651C00F2AEC26F01AD000019651900FBD
:1048A8002AEC26F014D000019651D00F2AEC26F0FD
:1048B8000ED000019451000AD8B4E3D7010AD8B445
:1048C800E6D7030AD8B4E9D7010AD8B4ECD700016F
:1048D80095A102D0F28E1200F29E1200000E286EF0
:1048E800040E286401D012002850010D3C0EF32458
:1048F800D96E000EF420DA6E020EDE18D8A40AD0A3
:104908002850010D3C0EF324D96E000EF420DA6E07
:10491800000EDF6E2850010D3C0EF324D96E000EF8
:10492800F420DA6EDE04D8A40AD02850010D3C0E1B
:10493800F324D96E000EF420DA6E020EDF6E282AF8
:10494800CFD7000E296E000EF2BE010E286EF29E21
:10495800010E48EC27F08D948D80010E506E0001F9
:1049680000F000F000F000F000F0502FB4EF24F059
:104978008D84010E506E000100F000F000F000F090
:1049880000F0502FC0EF24F083CF29F000F08D9471
:104998008D90000E48EC27F028A002D0F28E01D0AE
:1049A800F29E2950120002EE00F08B0EEE6AE80625
:1049B800FDE101EE00F0C40EEE6AE806FDE100013B
:1049C800ED6BEC6BEB6BEA6BE96B566A00EE2CF067
:1049D8002A0EEE6AE806FDE1280EF66E4F0EF76E17
:1049E800000EF86E0900F5CF57F00900F5CF58F022
:1049F80059905992000EF86E0001B6EF1CF096908F
:104A0800969296948D928D948D90000E48EC27F096
:104A1800380E8C6E000E0001946F0A0E000194652A
:104A280001D008D0C80EBFEC26F0D3EC26F0000168
:104A3800942BF3D7380E2AEC26F0060E2AEC26F033
:104A48000C0E2AEC26F0010E2AEC26F01200C68A7B
:104A58008A94580EABEC26F0000E0001916F000E00
:104A6800926F000E936F000E946F000EABEC26F061
:104A78000001936F000EABEC26F00001926F000E60
:104A8800ABEC26F00001916F8A8491C028F092C0A7
:104A980029F093C02AF094C02BF01200000E0001F8
:104AA800B31B000EB41B000EB51B800EB61BAFC0A7
:104AB8009BF0B0C09CF0B1C09DF0B2C09EF0B3C0F6
:104AC8009FF0B4C0A0F0B5C0A1F0B6C0A2F0D3EC7E
:104AD80008F09BC0AFF09CC0B0F09DC0B1F09EC084
:104AE800B2F012000001996F95C028F096C029F025
:104AF80000019951FCEC25F062EC27F02BEC25F035
:104B080028C041F029C042F02AC043F02BC044F02D
:104B180041C095F042C096F043C097F044C098F069
:104B28001200286E2850010D3C0EF324D96E000E99
:104B3800F420DA6E020EDE18D8A40CD02850010D2D
:104B48003C0EF324D96E000EF420DA6E000EDF6EF0
:104B5800010E1200000E1200000E516E000E026EC1
:104B6800000E016E00F09EBA08D0014A022A100E0B
:104B7800015C270E0258D8A0F5D79EAA03D07EEC78
:104B880027F01200010E516E000E12002A6E000E60
:104B9800F2BE010E2B6EF29EE3EC25F0000E48ECFF
:104BA80027F08D828D948D902A5078EC27F08D9285
:104BB8002BA002D0F28E01D0F29E00F01200030E5C
:104BC8000001926FE80E916F07D0A5EC24F0000168
:104BD800936F000193AF120000019107D8A09207CC
:104BE80000019129F2E100019229D8B41200EDD711
:104BF8002A6EC68A8A94100EABEC26F02A50ABECCB
:104C080026F02850ABEC26F0080EABEC26F0200E70
:104C1800ABEC26F02950ABEC26F08A841200275022
:104C2800281029102A10D8B408D0000E271A000E10
:104C3800281A000E291A800E2A1A27C027F028C021
:104C480028F029C029F02AC02AF012002A6E000E86
:104C5800F2BE010E2B6EF29EE3EC25F0000E48EC3E
:104C680027F08D928D948D902A5078EC27F02BA008
:104C780002D0F28E1200F29E1200500E276EC30E62
:104C8800286E000E296E000E2A6E01D000F027064D
:104C9800000E285A295A2A5A2750281029102A1053
:104CA800D8B41200F3D70BD094C0F6FF95C0F7FF25
:104CB8000800F550CAEC25F00001944B952B94C0E0
:104CC800F6FF95C0F7FF0800F5500009D8B41200A8
:104CD800EBD728502A02F3CF91F0F4CF92F0285066
:104CE8002B02F3500001922729502A02F3500001A9
:104CF800922791C028F092C029F012000AD002C071
:104D0800F6FF03C0F7FF0800F55084EC27F0024ACD
:104D1800032A02C0F6FF03C0F7FF0800F550000998
:104D2800D8B41200ECD7276E93969398939A27A03D
:104D380002D08A8601D08A9627A202D08A8801D01A
:104D48008A9827A402D08A8A12008A9A1200276EAB
:104D5800000EF2BE010E536EF29E27C0C9FF00F08E
:104D6800C7A0FDD7C9CF52F053A002D0F28E01D010
:104D7800F29E52501200276E040E286EFA0E506EE4
:104D8800000100F000F000F000F000F0502FC5EF37
:104D980026F000F0282EF2D7272EEED712008D84A9
:104DA800010E506E000100F000F000F000F000F07D
:104DB800502FD7EF26F000F000F000F000F08D94AF
:104DC8001200000E276E040E276401D0120027502F
:104DD800010D3C0EF324D96E000EF420DA6E000E9D
:104DE800DF6E272AF0D72B6E98C091F099C092F009
:104DF8009AC093F0800E0001946FA00E0001956F89
:104E08002B5079EC21F012000AD02B50010DF350F1
:104E18002924D96EF4502A20DA6E000EDF6E2B0694
:104E28002B28D8B41200F1D7296E000E286E3A0E3E
:104E3800296005D02F0E296402D0010E286E28C0E3
:104E480027F027301200296E040E2A6EFA0EBFECE6
:104E580026F000F02A2EFAD7292EF6D71200266E51
:104E68002650010D3C0EF324D96E000EF420DA6EA4
:104E7800010EDF6E1200276E040E276002D0000EAE
:104E880012002750FD0F1200276E2750D8A403D018
:104E9800000E956E12009568120001C0D9FF02C07D
:104EA800DAFFFF0EDE6EFF0EDD6E1200276E040EB7
:104EB800276002D027501200030E1200C69A8A9467
:104EC80000F082B8FDD7C68A00F01200AC84140E38
:104ED800AF6EAC8AAB88AB8E1200025084EC27F020
:104EE800035084EC27F01200276E27C08CFFD3EC08
:104EF80026F0120001D000F09EAAFDD7AE50120095
:104F0800016EACA2FED701C0ADFF12002B062B2804
:104F1800D8B41200FBD7C68A8A9412008A84120079
:024F2800010185
:107DFA00005D7FD47FC97F0202010000000000D02D
:107E0A0036456C7FD77FC97F021002000000000050
:107E1A0000B9432E7FD17F997F030201000048C336
:107E2A00000016443E7FD17FA57F0302010000486F
:107E3A00C3000016447B7FD17FB17F03100100008D
:107E4A0048C3000016448A7FD17FBD7F031001001A
:107E5A000048C3000016440000803FCDCCCC3D0A48
:107E6A00D7233C6F12833A17B7D138ACC52737BD31
:107E7A0037863595BFD63377CC2B325F708930FF82
:107E8A00E6DB2E08E53C1E6042A20D0000803F00A2
:107E9A000020410000C84200007A4400401C46000D
:107EAA0050C347002474498096184B20BCBE4C2806
:107EBA006B6E4EF9021550EC78AD60CAF249710644
:107ECA0009090680808080800E11110A9B80801526
:107EDA001F1F0408080780FFFFFFFFFFFFFF8055F1
:107EEA00AA55AA55AA558055AA55AA7FFF7F800090
:107EFA00010000000A00000064000000E80300001E
:107F0A0010270000A086010040420F0080969800CA
:107F1A0000E1F50500CA9A3B5A4F293CED8A543EC6
:107F2A000F70103F20505431303030283337352904
:107F3A00204043002050543130303028333835291E
:107F4A002040430054363030345452205665722E45
:107F5A0034310020302E2E323932352E30204F68FF
:107F6A006D0020302E2E3336352E3030204F686D7E
:107F7A00002050543130302833373529204043000F
:107F8A00205054313030283338352920404300C33B
:107F9A00B57AC31EE1743E9F9D4237D5FE72C3B0C7
:107FAA001D6C3E195C4E37C3B57AC3B30C19402415
:107FBA000B983AD5FE72C38E921340F437A13A0059
:107FCA000000000000803F4043005E20005E004F3A
:107FDA0063742033312032303136002025332E327B
:107FEA006620202000257325732573257300286ECB
:067FFA00756C6C2900000B
:020000040020DA
:08000000FFFFFFFFFFFFFFFF00
:020000040030CA
:0E000000FF061F16FF8381FF0FC00FE00F40A9
:0200000400F00A
:100000003700000000008FC2953F17B7513917B76E
:100010005139000000000000000000000000000056
:1000200000000000000000000000000000000000D0
:1000300000000100000000000000000000000000BF
:1000400000000000000000000000000000000000B0
:1000500000000000000000000000000000000000A0
:100060000000000000000000000000000000000090
:100070000000000000000000000000000000000080
:100080000000000000000000000000000000000070
:100090000000000000000000000000000000000060
:1000A0000000000000000000000000000000000050
:1000B0000000000000000000000000000000000040
:1000C0000000000000000000000000000000000030
:1000D0000000000000000000000000000000000020
:1000E0000000000000000000000000000000000010
:1000F0000000000000000000000000000000000000
:00000001FF
